:020000040000FA
:10000000600200105101000055010000570100007E
:10001000590100005B0100005D01000000000000CC
:100020000000000000000000000000005F01000070
:100030006101000000000000630100006501000094
:100040006701000067010000670100006701000010
:100050006701000067010000670100006701000000
:1000600067010000670100006701000067010000F0
:1000700067010000670100006701000067010000E0
:1000800067010000670100006701000067010000D0
:1000900067010000670100006701000067010000C0
:1000A00067010000670100006701000067010000B0
:1000B00067010000670100006701000067010000A0
:1000C00067010000670100006701000000F002F80E
:1000D00000F02EF80AA090E8000C82448344AAF1B4
:1000E0000107DA4501D100F023F8AFF2090EBAE8B2
:1000F0000F0013F0010F18BFFB1A43F0010318475C
:100100003C0100004C0100000023002400250026D3
:10011000103A28BF78C1FBD8520728BF30C148BF6A
:100120000B6070471FB500F082F81FBD10B510BD01
:1001300000F043F81146FFF7F5FF00F023F800F058
:1001400061F803B4FFF7F2FF03BC00F069F80000A8
:1001500008480047FEE7FEE7FEE7FEE7FEE7FEE7AA
:10016000FEE7FEE7FEE7FEE703480449024A044BC8
:1001700070470000CD000000600000106002001019
:10018000600000104FF0FF3009490860002008624D
:100190000CE00748406B10F4003F04D04FF0FF30F4
:1001A0000349486102E0002001494861F1E700008D
:1001B00000C00920704770477047754600F028F866
:1001C000AE4605006946534620F00700854618B044
:1001D00020B5FFF7C9FFBDE820404FF000064FF003
:1001E00000074FF000084FF0000B21F00701AC466C
:1001F000ACE8C009ACE8C009ACE8C009ACE8C0098B
:100200008D4670470446AFF300802046FFF799FF04
:1002100000487047000000100048704704000010BC
:1002200001491820ABBEFEE726000200704710B55A
:10023000FFF7F2FF4FF00001016010BD0003000066
:100240000000001060020000080100000000000033
:10025000000000000000000000000000000000009E
:10026000000000000000000000000000000000008E
:10027000000000000000000000000000000000007E
:10028000000000000000000000000000000000006E
:10029000000000000000000000000000000000005E
:1002A000000000000000000000000000000000004E
:1002B000000000000000000000000000000000003E
:1002C000000000000000000000000000000000002E
:1002D000000000000000000000000000000000001E
:1002E000000000000000000000000000000000000E
:1002F000000000000000000000000000FFFFFFFF02
:04000005000000CD2A
:00000001FF
