:100000000C9446000C9465000C9465000C946500FB
:100010000C9465000C9465000C9465000C946500CC
:100020000C9465000C9465000C9465000C946500BC
:100030000C9465000C9465000C9465000C946500AC
:100040000C9453140C9465000C9465000C9465009A
:100050000C9465000C9465000C9465000C9465008C
:100060000C9465000C9465000C9465000C9465007C
:100070000C9465000C9465000C9465000C9465006C
:100080000C9465000C9465000C94650011241FBE4F
:10009000CFEFD0E1DEBFCDBF12E0A0E0B1E0E8EDF0
:1000A000FFE200E00BBF02C007900D92AA31B1073A
:1000B000D9F715E0AAE1B2E001C01D92A13FB10756
:1000C000E1F70E9467000C94EB170C940000CF93AB
:1000D000DF93CDB7DEB7E7E2F0E01082E6E2F0E0D2
:1000E00087E88083E9E2F0E087E68083EBE2F0E0F6
:1000F0001082EAE2F0E088E18083E5E9F0E086E062
:100100008083E3E5F0E087E08083E7E5F0E081E0ED
:1001100080830E94A60389E992E0E1ECF0E024E00C
:10012000AC016FEF70E0CF010E947F0F81E293E09E
:10013000E7E1F1E025E0AC016FEF70E0CF010E9454
:100140007F0F81EA93E0EEE6F1E026E0AC016FEF8D
:1001500070E0CF010E947F0F81E090E00E94550A7D
:1001600090939D0280939C0281E090E00E94550A4A
:1001700090939B0280939A020E947704DF91CF9123
:100180000895CF93DF93CDB7DEB764970FB6F89499
:10019000DEBF0FBECDBFE7E2F0E01082A6E2B0E026
:1001A000E6E2F0E0808180648C93E6E2F0E080811A
:1001B000882F90E0807490700097B9F7E4E2F0E047
:1001C0008081282F30E0E5E2F0E08081882F90E008
:1001D000982F8827822B932B9093A1028093A002C3
:1001E0008091A0029091A1029F938F9380E091E073
:1001F0009F938F93CE0101969F938F930E94B61485
:100200008DB79EB706960FB6F8949EBF0FBE8DBFF2
:1002100020919C0230919D02CE010196BC01C90142
:100220000E94300B8DE390E00E945812B4CFCF9320
:10023000DF93CDB7DEB764970FB6F894DEBF0FBE7D
:10024000CDBFE7E2F0E081E08083A6E2B0E0E6E245
:10025000F0E0808180648C93E6E2F0E08081882F7A
:1002600090E0807490700097B9F7E4E2F0E080814C
:10027000282F30E0E5E2F0E08081882F90E0982F91
:100280008827822B932B9093A1028093A0028091C8
:10029000A0029091A1029F938F9389E091E09F9398
:1002A0008F93CE0101969F938F930E94B6148DB7C2
:1002B0009EB706960FB6F8949EBF0FBE8DBF2091D5
:1002C0009A0230919B02CE010196BC01C9010E94A5
:1002D000300B8DE390E00E945812B3CFCF93DF93A1
:1002E000CDB7DEB726970FB6F894DEBF0FBECDBFF1
:1002F00080919E0290919F0220919C0230919D02DC
:10030000AC0160E070E0C9010E94A50A9E838D8364
:100310001A8219821AC0ACE2B0E089819A819C01EC
:100320008D819E81F901E80FF91F80818C93EBE2AA
:10033000F0E08081882F90E0807290700097B9F390
:1003400089819A8101969A83898389819A819C0106
:100350008D819E81F901E80FF91F80818823D9F6EC
:1003600080919E0290919F0220919A0230919B026F
:10037000AC0160E070E0C9010E94A50A9C838B83F8
:100380001A8219821AC0ACE2B0E089819A819C017C
:100390008B819C81F901E80FF91F80818C93EBE23E
:1003A000F0E08081882F90E0807290700097B9F320
:1003B00089819A8101969A83898389819A819C0196
:1003C0008B819C81F901E80FF91F80818823D9F680
:1003D0008FCFCF93DF93CDB7DEB72C970FB6F894BE
:1003E000DEBF0FBECDBF9E838D8378876F835A8714
:1003F00049873C872B8789859A859C838B838D8150
:100400009E819A8389838981EB81FC8180838B81A2
:100410009C8101979C838B8389819A81892F99275D
:10042000EB81FC8180838B819C8101979C838B83F2
:10043000EB81FC8110828B819C8101979C838B8353
:10044000EB81FC8110828B819C8101979C838B8343
:10045000EB81FC8110828B819C8101979C838B8333
:10046000EB81FC8110828B819C8101979C838B8323
:10047000EB81FC8110828B819C8101979C838B8313
:10048000EB81FC8110828B819C8101979C838B8303
:10049000EB81FC8110828B819C8101979C838B83F3
:1004A000EB81FC8110828B819C8101979C838B83E3
:1004B000EB81FC8110828B819C8101979C838B83D3
:1004C000EB81FC8110828B819C8101979C838B83C3
:1004D000EB81FC8110828B819C8101979C838B83B3
:1004E000EB81FC8110828B819C8101979C838B83A3
:1004F000EB81FC8110828B819C8101979C838B8393
:10050000EB81FC8110828B819C8101979C838B8382
:10051000EB81FC8110828B819C8101979C838B8372
:10052000EB81FC8110828B819C8101979C838B8362
:10053000EB81FC8110828B819C8101979C838B8352
:10054000EB81FC8110828B819C8101979C838B8342
:10055000EB81FC8110828B819C8101979C838B8332
:10056000EB81FC8110828B819C8101979C838B8322
:10057000EB81FC8110828B819C8101979C838B8312
:10058000EB81FC8110828B819C8101979C838B8302
:10059000EB81FC8110828B819C8101979C838B83F2
:1005A000EB81FC8110828B819C8101979C838B83E2
:1005B0008F8198859A8389838981EB81FC818083EF
:1005C0008B819C8101979C838B8389819A81892F60
:1005D0009927EB81FC8180838B819C8101979C838F
:1005E0008B83EB81FC8110828B819C8101979C83A2
:1005F0008B83EB81FC8110828B819C8101979C8392
:100600008B83EB81FC8110828B819C8101979C8381
:100610008B83EB81FC8110828B819C8101979C8371
:100620008B83EB81FC8110828B819C8101979C8361
:100630008B83EB81FC8110828B819C8101979C8351
:100640008B83EB81FC8110828B819C8101979C8341
:100650008B83EB81FC8180E880838B819C81019777
:100660009C838B838B819C812C960FB6F894DEBF84
:100670000FBECDBFDF91CF910895CF93DF93CDB75C
:10068000DEB722970FB6F894DEBF0FBECDBF9A83B8
:10069000898322960FB6F894DEBF0FBECDBFDF91DF
:1006A000CF910895CF93DF93CDB7DEB722970FB6E2
:1006B000F894DEBF0FBECDBF9A83898322960FB612
:1006C000F894DEBF0FBECDBFDF91CF910895CF93D9
:1006D000DF93CDB7DEB7DF91CF910895CF93DF934E
:1006E000CDB7DEB7DF91CF910895CF93DF93CDB72C
:1006F000DEB7DF91CF910895CF93DF93CDB7DEB70B
:10070000DF91CF910895CF93DF93CDB7DEB7DF911F
:10071000CF910895CF93DF93CDB7DEB7DF91CF911F
:100720000895CF93DF93CDB7DEB722970FB6F89435
:10073000DEBF0FBECDBF9A83898322960FB6F89491
:10074000DEBF0FBECDBFDF91CF910895CF93DF9372
:10075000CDB7DEB70E947C030E9481070E94A007EC
:100760000E94FE070E9439070E94DA070E94EC07E8
:100770000E948303DF91CF910895CF93DF93CDB78C
:10078000DEB78091A303813049F4809140048F3F0C
:1007900029F0809140048F5F80934004DF91CF91D6
:1007A0000895CF93DF93CDB7DEB78091A303813057
:1007B00009F060C0F89480914004882329F080916A
:1007C000400481508093400480914004882309F0C4
:1007D00050C08091A203882309F04BC080913A0455
:1007E000882F90E0FC01E65EFE4F808180933F04FD
:1007F00080913F04282F220F220F220F80913F0467
:10080000882F90E0FC01E55CFB4F8081882F90E011
:10081000FC01E65EFE4F8081820F8093A8039091D9
:10082000A8038091A903981721F18091A803882F2C
:1008300090E0880F991FFC01ED52FA4F8081918161
:10084000909339048093380480912C0490912D0466
:10085000A0912E04B0912F040196A11DB11D80938B
:100860002C0490932D04A0932E04B0932F040E9487
:100870001C147894DF91CF910895CF93DF93CDB777
:10088000DEB78091A303813059F4F8948091A203DC
:100890008F3F29F08091A2038F5F8093A203789409
:1008A000DF91CF910895CF93DF93CDB7DEB78091DD
:1008B000A3038130C9F4F8948091A203882399F0AE
:1008C0008091A20381508093A2038091A203882388
:1008D00041F480914004882321F478940E945108C7
:1008E00003C0789401C07894DF91CF910895CF939D
:1008F000DF93CDB7DEB722970FB6F894DEBF0FBEF9
:10090000CDBF8091A3038823E9F580913A04882F15
:1009100090E0FC01E65EFE4F80818A838A81882F09
:1009200090E0FC01E55CFB4F8081882F90E0FC01AA
:10093000E65EFE4F808189838A81982F990F990FF7
:10094000990F8981890F8093A8038091A8038093D0
:10095000A9038091A803882F90E0880F991FFC01BC
:10096000ED52FA4F8081918190933904809338043D
:10097000809138049091390490934204809341040B
:100980000E94851322960FB6F894DEBF0FBECDBF2E
:10099000DF91CF910895CF93DF93CDB7DEB782E09B
:1009A00090E00E945812F8941092A4031092A503AC
:1009B0001092A6031092A70378948DE390E00E9412
:1009C0005812F8948091A4039091A503A091A603D6
:1009D000B091A7038093300490933104A093320424
:1009E000B093330481E08093D2057894DF91CF9166
:1009F0000895CF93DF93CDB7DEB722970FB6F89463
:100A0000DEBF0FBECDBF0E9475038091A30381306E
:100A100009F058C08091AA039091AB039A8389830F
:100A20004BC0F894E981FA81828593850097E9F1BA
:100A3000E981FA81828593850197E981FA8193871B
:100A40008287E981FA8182859385009771F5E98132
:100A5000FA818485882F90E0887090700097F9F46F
:100A6000E981FA81918980913A04892B80933A0433
:100A7000E981FA818785282F30E0E981FA8187852D
:100A8000882F90E0FC01E55CFB4F9081E981FA81C1
:100A90008089892BF901E55CFB4F808306C0E981E1
:100AA000FA8181E090E093878287E981FA818281EF
:100AB00093819A8389837894E981FA8185858C3042
:100AC00009F0AFCF22960FB6F894DEBF0FBECDBFB0
:100AD000DF91CF910895CF93DF93CDB7DEB78CEF41
:100AE00090E0DF91CF910895CF93DF93CDB7DEB73C
:100AF000DF91CF910895CF93DF93CDB7DEB72C97D9
:100B00000FB6F894DEBF0FBECDBF998788877B876D
:100B10006A874C87E885F9858181882F90E0FC0100
:100B2000E65EFE4F80818C838C81882F90E0FC01F3
:100B3000EE5EFE4F80818A838C81282F30E088858D
:100B40009985820F931FFC0136968081882F90E053
:100B5000FC01E65EFE4F80818D838D81882F90E0C1
:100B6000FC01EE5EFE4F80818B838C81982F990F64
:100B7000990F990F8D81890F89838C81482F50E0BF
:100B80008C81282F30E088859985820F931FFC0186
:100B900036968081982F8B8180958923282F888590
:100BA0009985840F951FFC01369620838885998549
:100BB000840F951FFC0136968081882351F4E885C7
:100BC000F9858181982F8A8180958923E885F98527
:100BD00081838981882F90E0880F991FFC01ED5255
:100BE000FA4F808191819F838E83EE81FF811386EE
:100BF0001286EE81FF8117821682EE81FF818A853F
:100C00009B8591878087EE81FF818485982F8C85D5
:100C100080958923EE81FF818487EE81FF81848521
:100C20008823B1F490913A048A81892B80933A0405
:100C30008C81282F30E08C81882F90E0FC01E55CCE
:100C4000FB4F90818B81892BF901E55CFB4F808301
:100C50008981882F90E02C960FB6F894DEBF0FBEE6
:100C6000CDBFDF91CF910895CF93DF93CDB7DEB79E
:100C700022970FB6F894DEBF0FBECDBF9A8389834B
:100C8000E0914104F091420489819A81978386839F
:100C9000E0914104F09142048785282F30E0E091F3
:100CA0004104F09142048785882F90E0FC01E55CC7
:100CB000FB4F8081982FE0914104F091420480899C
:100CC00080958923F901E55CFB4F8083F901E55CA0
:100CD000FB4F8081882361F4E0914104F09142044C
:100CE0008189982F909580913A04892380933A04C2
:100CF000E0914104F09142048785482F50E0E09153
:100D00004104F09142048785282F30E089819A813F
:100D1000820F931FFC0136969081E0914104F0917F
:100D200042048089292F282B89819A81840F951F5D
:100D3000FC0136962083E981FA819181E09141049A
:100D4000F09142048189892BE981FA81818322967D
:100D50000FB6F894DEBF0FBECDBFDF91CF910895DF
:100D6000CF93DF93CDB7DEB722970FB6F894DEBFEF
:100D70000FBECDBF9A838983E0914104F091420474
:100D80008785482F50E0E0914104F0914204878527
:100D9000282F30E089819A81820F931FFC013696BB
:100DA0008081982FE0914104F091420480898095E0
:100DB0008923282F89819A81840F951FFC013696FB
:100DC000208389819A81840F951FFC01369680814A
:100DD000882371F4E981FA818181982FE09141049F
:100DE000F0914204818980958923E981FA81818388
:100DF000E0914104F09142041486E0914104F091A5
:100E000042041782168222960FB6F894DEBF0FBEF8
:100E1000CDBFDF91CF910895CF93DF93CDB7DEB7EC
:100E200024970FB6F894DEBF0FBECDBF9C838B8393
:100E3000EB81FC8111828B819C8106969A83898348
:100E4000E981FA81108289819A8101969A83898346
:100E5000E981FA81108289819A8101969A83898336
:100E600024960FB6F894DEBF0FBECDBFDF91CF91B1
:100E70000895CF93DF93CDB7DEB726970FB6F894DA
:100E8000DEBF0FBECDBF83EC94E09C838B838BECE5
:100E900094E09A8389831E821D8218C0EB81FC81B5
:100EA0001082EB81FC8189819A81958384838B8177
:100EB0009C8108969C838B8389819A8108969A836A
:100EC00089838D819E8101969E838D838D819E81F4
:100ED0008230910518F3EB81FC811082EB81FC815B
:100EE0001582148283EC94E090933E0480933D0439
:100EF00026960FB6F894DEBF0FBECDBFDF91CF911F
:100F00000895CF93DF93CDB7DEB7109240041092CF
:100F1000A203109237041092A30310922C04109293
:100F20002D0410922E0410922F041092A4031092FC
:100F3000A5031092A6031092A703DF91CF91089505
:100F4000CF93DF93CDB7DEB724970FB6F894DEBF0B
:100F50000FBECDBF10923A048BE394E09A8389834D
:100F60001C821B820DC0E981FA81108289819A81DD
:100F700001969A8389838B819C8101969C838B83C4
:100F80008B819C818230910570F31092A90310929D
:100F9000A80310923904109238041092420410925F
:100FA000410424960FB6F894DEBF0FBECDBFDF918B
:100FB000CF910895CF93DF93CDB7DEB782EC94E065
:100FC000E8EBF8E02CE0AC0160E070E0CF010E94BB
:100FD0007F0FDF91CF910895CF93DF93CDB7DEB729
:100FE0008BE294E0ECEDF8E02BE0AC0160E070E027
:100FF000CF010E947F0FDF91CF910895CF93DF93B0
:10100000CDB7DEB725970FB6F894DEBF0FBECDBFC4
:101010001092AB031092AA031D820DC08D81882F00
:1010200090E0880F991FFC01ED52FA4F1182108257
:101030008D818F5F8D838D818D3080F38BED94E07A
:101040009C838B838EEE94E09A8389831D8213C0E8
:10105000EB81FC8189819A81938382838B819C813E
:1010600043969C838B8389819A8143969A83898353
:101070008D818F5F8D838D818C3050F3EB81FC816E
:10108000138212828BED94E09093350480933404A4
:1010900025960FB6F894DEBF0FBECDBFDF91CF917E
:1010A0000895CF93DF93CDB7DEB721970FB6F894AD
:1010B000DEBF0FBECDBFF89480914004882309F0B5
:1010C0004DC08091A203882309F048C080913A0462
:1010D000882F90E0FC01E65EFE4F80818983898144
:1010E000282F220F220F220F8981882F90E0FC01E8
:1010F000E55CFB4F8081882F90E0FC01E65EFE4FAF
:101100008081820F8093A8039091A8038091A90306
:10111000981721F18091A803882F90E0880F991FDC
:10112000FC01ED52FA4F80819181909339048093B4
:10113000380480912C0490912D04A0912E04B0913C
:101140002F040196A11DB11D80932C0490932D04B2
:10115000A0932E04B0932F040E94B9137894219683
:101160000FB6F894DEBF0FBECDBFDF91CF910895CB
:10117000CF93DF93CDB7DEB722970FB6F894DEBFDB
:101180000FBECDBF9A838983F8948091A403909178
:10119000A503A091A603B091A7030196A11DB11DBF
:1011A0008093A4039093A503A093A603B093A703F1
:1011B00078940E948A03E8CFCF93DF93CDB7DEB750
:1011C0002B970FB6F894DEBF0FBECDBF9B878A87E3
:1011D00004C08AE790E00E9458128091D2058823CB
:1011E000C1F38091300490913104A0913204B09108
:1011F000330424E630E040E050E0BC01CD010E9421
:101200009217DA01C9018A839B83AC83BD83F8946A
:101210008091A4039091A503A091A603B091A70388
:101220008093ED059093EE05A093EF05B093F00544
:101230008091A4039091A503A091A603B091A70368
:101240008E839F83A887B9871092A4031092A50369
:101250001092A6031092A70378948A819B81AC8197
:10126000BD810097A105B105E1F08E819F81A88520
:10127000B9852A813B814C815D81BC01CD010E94F1
:101280009217DA01C901982F84E6891B8983898125
:10129000882324F08981809336041BC01092360481
:1012A00018C0109236048091300490913104A091BE
:1012B0003204B091330424E630E040E050E0BC0159
:1012C000CD010E949217DA01C9018A839B83AC8306
:1012D000BD830E946E038DE390E00E94581297CF69
:1012E000AF92BF92CF92DF92EF92FF920F931F9334
:1012F000CF93DF93CDB7DEB763970FB6F894DEBF19
:101300000FBECDBF8B837D836C835F834E83398714
:101310002887EA86FB860C871D87DF86CE86B98AFA
:10132000A88AF89480913404909135049A83898333
:1013300089819A81009709F4A0C0E981FA818281AC
:10134000938190933504809334047894E981FA81F1
:101350008C819D8191838083E981FA818B8185874E
:10136000E981FA811486E981FA8113861286E9817E
:10137000FA81128A8B81869586958695E981FA8114
:101380008787E981FA818785882F90E0FC01EE5EEE
:10139000FE4F8081E981FA81818B8B818770E981A1
:1013A000FA818687E981FA818685882F90E0FC01A1
:1013B000EE5EFE4F8081E981FA81808BE981FA81BE
:1013C00017821682E981FA811186108689819A81B5
:1013D0000E94910389819A810E943D03F8948B8138
:1013E000882F90E0880F991FFC01ED52FA4F8981F8
:1013F0009A81918380838091AA039091AB03E981C4
:10140000FA8193838283E981FA8115821482809123
:10141000AA039091AB03009741F0E091AA03F091E9
:10142000AB0389819A819583848389819A81909382
:10143000AB038093AA03E981FA81918980913A04F0
:10144000892B80933A04E981FA818785282F30E03F
:10145000E981FA818785882F90E0FC01E55CFB4FEC
:101460009081E981FA818089892BF901E55CFB4F44
:10147000808378941B8A1A8A05C0789486E490E069
:101480009B8B8A8B8A899B8963960FB6F894DEBF03
:101490000FBECDBFDF91CF911F910F91FF90EF90C5
:1014A000DF90CF90BF90AF900895CF93DF93CDB7EB
:1014B000DEB726970FB6F894DEBF0FBECDBF9C8374
:1014C0008B8380914004882319F01E821D8232C0D4
:1014D000F89480913D0490913E049A838983809191
:1014E0003D0490913E04009751F0E0913D04F0914D
:1014F0003E048481958190933E0480933D047894CA
:1015000089819A81009791F0E981FA8181E0808355
:10151000E981FA8113821282E981FA818B819C81AF
:101520009583848389819A810E940C0789819A819D
:101530009E838D838D819E8126960FB6F894DEBFA3
:101540000FBECDBFDF91CF910895CF93DF93CDB77D
:10155000DEB72A970FB6F894DEBF0FBECDBF9C83CF
:101560008B837E836D8358874F83809140048823CB
:1015700039F0EF81F88582E080831A86198665C08C
:10158000F894EB81FC81848195819A838983898198
:101590009A81009769F0EB81FC811582148278941E
:1015A000EF81F885108289819A819A8789874DC059
:1015B000A0914104B0914204E0914104F0914204B1
:1015C00084858260FD018487E0914104F0914204AA
:1015D0008D819E81938782878B819C810E943406B6
:1015E00078940E945108F894E0914104F0914204EB
:1015F000808591859A83898389819A810097D1F02A
:10160000E0914104F091420411861086E09141047A
:10161000F09142041486E0914104F0914204178253
:1016200016827894EF81F885108289819A819A8751
:1016300089870BC08B819C810E94B0067894EF81D2
:10164000F8858AE080831A86198689859A852A9684
:101650000FB6F894DEBF0FBECDBFDF91CF910895D6
:10166000CF93DF93CDB7DEB726970FB6F894DEBFE2
:101670000FBECDBF9A8389837C836B83F894E98105
:10168000FA818181882379F08B819C8129813A813B
:1016900042E0BC01C9010E947B0578940E94510878
:1016A0001E821D8215C0E981FA818481958100978F
:1016B00031F0789484E190E09E838D8309C0E981C4
:1016C000FA818B819C819583848378941E821D820C
:1016D0008D819E8126960FB6F894DEBF0FBECDBFDA
:1016E000DF91CF910895CF93DF93CDB7DEB72797E2
:1016F0000FB6F894DEBF0FBECDBF8B837D836C83A6
:1017000080914004882339F0EC81FD818DE880834D
:101710001F821E8267C0F8948B81882F90E0880F0B
:10172000991FFC01ED52FA4F80819181009741F0A1
:101730007894EC81FD8188E280831F821E8252C0F2
:101740008B81882F90E0880F991FFC01ED52FA4F92
:1017500081E090E09183808380913D0490913E04EC
:101760009A83898389819A810097A1F48B81882F3C
:1017700090E0880F991FFC01ED52FA4F1182108200
:101780007894EC81FD8184E0808389819A819F83B4
:101790008E8328C0E0913D04F0913E0484819581C0
:1017A00090933E0480933D047894E981FA8184E02B
:1017B00080838B81882F90E0982F88278F6FE98115
:1017C000FA8193838283E981FA8115821482898167
:1017D0009A810E940C07EC81FD81108289819A8197
:1017E0009F838E838E819F8127960FB6F894DEBFEC
:1017F0000FBECDBFDF91CF910895CF93DF93CDB7CB
:10180000DEB72B970FB6F894DEBF0FBECDBF9F8318
:101810008E83798768875B874A8780914004882315
:1018200029F0EA85FB8582E080831FC1F894EE8170
:10183000FF81828193818F3F39F5EE81FF81828123
:1018400093818070EE81FF8193838283EE81FF819B
:1018500022813381E0914104F09142048585882FF3
:1018600090E0822B932BEE81FF8193838283809182
:10187000410490914204EE81FF81958384837894A2
:10188000EA85FB851082F1C0EE81FF818281938120
:10189000892F99278D83EE81FF81828193818C83AB
:1018A000EE81FF81848195819A838983E981FA8120
:1018B00095858D81981709F49DC0E0914104F091C0
:1018C000420495858C81981708F094C0E981FA81CB
:1018D0008785882F90E0FC01E55CFB4F9081E981D2
:1018E000FA8180898923882359F1E981FA818785E2
:1018F000282F30E0E981FA818785882F90E0FC016C
:10190000E55CFB4F8081982FE981FA818089809581
:101910008923F901E55CFB4F8083F901E55CFB4F0E
:101920008081882351F4E981FA818189982F9095EB
:1019300080913A04892380933A0481E08B8301C02B
:101940001B82E981FA818D818587E981FA8185850C
:10195000869586958695E981FA818787E981FA815E
:101960008785882F90E0FC01EE5EFE4F8081E98143
:10197000FA81818BE981FA8185858770E981FA8115
:101980008687E981FA818685882F90E0FC01EE5EEA
:10199000FE4F8081E981FA81808B8B818130F1F467
:1019A000E981FA81918980913A04892B80933A04E4
:1019B000E981FA818785282F30E0E981FA818785DE
:1019C000882F90E0FC01E55CFB4F9081E981FA8172
:1019D0008089892BF901E55CFB4F80838D81882FFD
:1019E00090E0880F991FFC01ED52FA4F89819A818E
:1019F00091838083A0914104B0914204E09141041D
:101A0000F091420484858061FD018487E091410466
:101A1000F091420488859985938782878E819F8182
:101A20000E94340678940E945108F894E091410491
:101A3000F09142048485882F90E080719070009727
:101A400051F08E819F810E94B0067894EA85FB85D3
:101A50008AE080830AC0E0914104F0914204178239
:101A600016827894EA85FB8510822B960FB6F8943F
:101A7000DEBF0FBECDBFDF91CF910895CF93DF932F
:101A8000CDB7DEB726970FB6F894DEBF0FBECDBF39
:101A90009C838B8380914004882329F085E090E02B
:101AA0009E838D831BC1F894EB81FC81828193819D
:101AB000892F99278A83EB81FC8182819381898395
:101AC000E0914104F091420495858A81981771F064
:101AD000E0914104F091420495858981981731F095
:101AE0007894E8E7F0E0FE83ED83F8C0E0914104EC
:101AF000F091420495858A81981709F09CC0E09185
:101B00004104F09142048785282F30E0E0914104A0
:101B1000F09142048785882F90E0FC01E55CFB4F43
:101B20008081982FE0914104F09142048089809552
:101B30008923F901E55CFB4F8083F901E55CFB4FEC
:101B40008081882361F4E0914104F091420481890D
:101B5000982F909580913A04892380933A04E091DC
:101B60004104F091420489818587E0914104F0911C
:101B7000420489818695869586958787A091410440
:101B8000B0914204E0914104F09142048785882F8E
:101B900090E0FC01EE5EFE4F8081FD01818BE091C3
:101BA0004104F0914204898187708687A0914104A5
:101BB000B0914204E0914104F09142048685882F5F
:101BC00090E0FC01EE5EFE4F8081FD01808BE09194
:101BD0004104F0914204918980913A04892B8093C9
:101BE0003A04E0914104F09142048785282F30E0C7
:101BF000E0914104F09142048785882F90E0FC0138
:101C0000E55CFB4F9081E0914104F09142048089B2
:101C1000892BF901E55CFB4F80838981882F90E057
:101C20002091410430914204880F991FFC01ED522C
:101C3000FA4F318320838A81882F90E0880F991F83
:101C4000FC01ED52FA4F81E090E091838083EB81BB
:101C5000FC818181882391F18B819C8140E160E04E
:101C600070E00E947B058983EB81FC8182819381F6
:101C70008070EB81FC8193838283EB81FC812281E4
:101C800033818981882F90E0822B932BEB81FC811B
:101C9000938382838981882F90E0880F991FFC01AC
:101CA000ED52FA4F80819181EB81FC819583848391
:101CB00078940E9451081E821D8210C0EB81FC8125
:101CC000828193818F6FEB81FC8193838283EB818F
:101CD000FC811582148278941E821D828D819E81E2
:101CE00026960FB6F894DEBF0FBECDBFDF91CF9121
:101CF0000895CF93DF93CDB7DEB726970FB6F8944C
:101D0000DEBF0FBECDBF9C838B83809140048823B0
:101D100019F01E821D8232C0F89480913D0490918A
:101D20003E049A83898380913D0490913E040097FC
:101D300051F0E0913D04F0913E04848195819093AF
:101D40003E0480933D04789489819A81009791F0B4
:101D5000E981FA8183E08083E981FA818B819C812A
:101D600093838283E981FA811582148289819A8121
:101D70000E940C0789819A819E838D838D819E812B
:101D800026960FB6F894DEBF0FBECDBFDF91CF9180
:101D90000895CF93DF93CDB7DEB726970FB6F894AB
:101DA000DEBF0FBECDBF9A8389837C836B835E8346
:101DB0004D8380914004882329F0ED81FE8182E0EB
:101DC000808350C0F894E981FA81828193810097E1
:101DD00071F0E981FA81828193810197E981FA8129
:101DE000938382837894ED81FE8110823BC0A09121
:101DF0004104B0914204E0914104F0914204848591
:101E00008160FD018487E0914104F09142048B815F
:101E10009C819387828789819A810E943406789475
:101E20000E945108F894E0914104F09142048485A5
:101E3000882F90E081709070882351F089819A8179
:101E40000E94B0067894ED81FE818AE080830AC00A
:101E5000E0914104F0914204178216827894ED815A
:101E6000FE81108226960FB6F894DEBF0FBECDBF5E
:101E7000DF91CF910895CF93DF93CDB7DEB724974D
:101E80000FB6F894DEBF0FBECDBF9A838983F89456
:101E9000E981FA818181882369F089819A8141E011
:101EA00060E070E00E947B0578940E9451081C82DB
:101EB0001B821AC0E981FA81828193812FEF8F3FC3
:101EC000920769F0E981FA81828193810196E98123
:101ED000FA819383828378941C821B8205C0789454
:101EE00082E390E09C838B838B819C8124960FB648
:101EF000F894DEBF0FBECDBFDF91CF910895AF92B2
:101F0000BF92CF92DF92EF92FF920F931F93CF93E6
:101F1000DF93CDB7DEB72C970FB6F894DEBF0FBEB8
:101F2000CDBF9D838C837F836E83598748872A87A3
:101F3000F8948A85882F90E0880F991FFC01ED5254
:101F4000FA4F80819181009709F050C08A85882FCF
:101F500090E0880F991FFC01ED52FA4F81E090E06C
:101F6000918380837894888599856E817F81EC81C7
:101F7000FD8120E030E0AC01CF010E94E9019B83AC
:101F80008A838A819B81AA24BB24CC24DD24EE246D
:101F9000FF24870120E030E040E050E0BC018A856A
:101FA0000E94700989838981882371F4F894809153
:101FB00037048F5F8093370478948091A303813036
:101FC00079F40E9451080CC0F8948A85882F90E01B
:101FD000880F991FFC01ED52FA4F118210827894FC
:101FE0008981282F30E03C872B8705C0789488E2D0
:101FF00090E09C878B878B859C852C960FB6F894F8
:10200000DEBF0FBECDBFDF91CF911F910F91FF902B
:10201000EF90DF90CF90BF90AF900895CF93DF9374
:10202000CDB7DEB728970FB6F894DEBF0FBECDBF91
:102030008E8380914004882329F08FE390E0988775
:102040008F83F6C0F8948E818F3F31F4E091410484
:10205000F091420485858E838E81882F90E0880FD1
:10206000991FFC01ED52FA4F808191819B838A83F5
:102070008A819B81009709F4D6C0EA81FB8187851C
:10208000282F30E0EA81FB818785882F90E0FC01D2
:10209000E55CFB4F8081982FEA81FB8180898095E8
:1020A0008923F901E55CFB4F8083F901E55CFB4F77
:1020B0008081882351F4EA81FB818189982F909552
:1020C00080913A04892380933A04EA81FB818681D6
:1020D00097819D838C838C819D810097A1F1EA81FA
:1020E000FB818785482F50E0EA81FB818785282F77
:1020F00030E08C819D81820F931FFC013696808198
:10210000982FEA81FB81808980958923282F8C81F3
:102110009D81840F951FFC01369620838C819D81C3
:10212000840F951FFC0136968081882361F4EC8131
:10213000FD818181982FEA81FB81818980958923A6
:10214000EC81FD818183EA81FB8113861286EA811D
:10215000FB8114868091A2038F3F29F08091A20316
:102160008F5F8093A20378940E947405F894809105
:10217000A203882329F08091A20381508093A203B7
:102180008A819B810E945203809137048150809301
:1021900037048E81882F90E0880F991FFC01ED5243
:1021A000FA4F11821082EA81FB8184819581009728
:1021B00081F4EA81FB810280F381E02D1582148293
:1021C000EA81FB81828193819093AB038093AA0380
:1021D00016C0EA81FB81A481B581EA81FB818281FD
:1021E0009381FD0193838283EA81FB81A281B38184
:1021F000EA81FB8184819581FD01958384838091AF
:10220000340490913504EA81FB81938382838A812F
:102210009B81909335048093340478940E945108F4
:1022200018861F8205C078948CE390E098878F838E
:102230008F81988528960FB6F894DEBF0FBECDBF6C
:10224000DF91CF910895CF93DF93CDB7DEB7279776
:102250000FB6F894DEBF0FBECDBF8D838D818F3F4B
:1022600071F4F894E0914104F091420482898C83E6
:1022700078948C81282F30E03F832E831FC0F89400
:102280008D81882F90E0880F991FFC01ED52FA4F45
:10229000808191819A83898389819A81009731F025
:1022A000E981FA818EE3828B1B8202C08BE08B83F3
:1022B00078948B81282F30E03F832E838E819F81FD
:1022C00027960FB6F894DEBF0FBECDBFDF91CF913A
:1022D0000895CF93DF93CDB7DEB725970FB6F89467
:1022E000DEBF0FBECDBF8B83F8948B81882F90E02B
:1022F000880F991FFC01ED52FA4F808191819A83DA
:10230000898389819A81009731F4789484E690E0FA
:102310009D838C8346C0E981FA818485882F90E073
:10232000887090700097C1F1E981FA818485877F78
:10233000E981FA818487E981FA818485882341F5DE
:10234000E981FA8182859385009711F5E981FA8107
:10235000918980913A04892B80933A04E981FA812A
:102360008785282F30E0E981FA818785882F90E0E2
:10237000FC01E55CFB4F9081E981FA818089892B22
:10238000F901E55CFB4F808378940E94510801C0FD
:1023900078941D821C8205C0789485E690E09D8328
:1023A0008C838C819D8125960FB6F894DEBF0FBE7D
:1023B000CDBFDF91CF910895CF93DF93CDB7DEB737
:1023C00026970FB6F894DEBF0FBECDBF8C83F8946E
:1023D0008C818F3F49F4E0914104F091420485855E
:1023E0008C8381E08B830CC0E0914104F091420426
:1023F00095858C81981719F481E08B8301C01B822D
:102400008C81882F90E0880F991FFC01ED52FA4FC4
:10241000808191819A83898389819A81009731F49F
:1024200078948AE590E09E838D8337C0E981FA81B4
:102430008785282F30E0E981FA818785882F90E011
:10244000FC01E55CFB4F8081982FE981FA8180894E
:1024500080958923F901E55CFB4F8083F901E55CF8
:10246000FB4F8081882351F4E981FA818189982F7B
:10247000909580913A04892380933A04E981FA8106
:1024800084858860E981FA81848778948B818130A2
:1024900011F40E9451081E821D828D819E81269614
:1024A0000FB6F894DEBF0FBECDBFDF91CF91089578
:1024B000CF93DF93CDB7DEB722970FB6F894DEBF88
:1024C0000FBECDBF9A83898389819A81009709F4D1
:1024D0003CC0F894E0914104F09142048785282F94
:1024E00030E0E0914104F09142048785882F90E02C
:1024F000FC01E55CFB4F8081982FE0914104F09155
:102500004204808980958923F901E55CFB4F808333
:10251000F901E55CFB4F8081882361F4E09141047F
:10252000F09142048189982F909580913A048923F3
:1025300080933A04E0914104F091420489819A81A8
:102540009387828778940E94510822960FB6F89458
:10255000DEBF0FBECDBFDF91CF910895EF92FF9206
:102560000F931F93CF93DF93CDB7DEB72D970FB6A1
:10257000F894DEBF0FBECDBF8F83688749873B8746
:102580002A878F81882359F48885882341F4898597
:10259000882329F48A859B85009709F4A3C0888540
:1025A0008C3328F081E590E09D878C879FC08985DA
:1025B0008C3328F082E590E09D878C8797C08A85D0
:1025C0009B8523E0883E920728F083E590E09D8775
:1025D0008C878CC08F81882F90E0A0E0B0E020E154
:1025E0003EE040E050E0BC01CD010E9473177B014A
:1025F0008C018885882F90E0A0E0B0E02CE330E0EB
:1026000040E050E0BC01CD010E947317DC01CB011A
:10261000A8019701280F391F4A1F5B1F8985882F42
:1026200090E0A0E0B0E0820F931FA41FB51F2DE340
:1026300030E040E050E0BC01CD010E9473177B0107
:102640008C018A859B85CC01A0E0B0E02DE330E0D1
:1026500040E050E0BC01CD010E947317DC01CB01CA
:1026600088519E4FAF4FBF4F28EE33E040E050E01F
:10267000BC01CD010E949217DA01C9018E0D9F1D88
:10268000A01FB11F8B839C83AD83BE838B819C81F4
:10269000AD81BE81CD01AA27BB279A8389838B8117
:1026A0009C81AD81BE81A070B0708B839C83AD8313
:1026B000BE838B819C810E9458120DC080E090E8FF
:1026C0000E94581280E090E80E94581289819A81F5
:1026D00001979A83898389819A81009779F71D866A
:1026E0001C8604C084E590E09D878C878C859D8541
:1026F0002D960FB6F894DEBF0FBECDBFDF91CF9100
:102700001F910F91FF90EF9008950E946703009131
:10271000A30303950093A303E0913804F0913904D7
:10272000C191CDBFD191DEBF0F910FBF0F910BBFF4
:10273000FF91EF91DF91CF91BF91AF919F918F91D9
:102740007F916F915F914F913F912F911F910F91C9
:10275000FF90EF90DF90CF90BF90AF909F908F90C1
:102760007F906F905F904F903F902F901F900F90B1
:1027700008950F921F922F923F924F925F926F9205
:102780007F928F929F92AF92BF92CF92DF92EF9201
:10279000FF920F931F932F933F934F935F936F93EA
:1027A0007F938F939F93AF93BF93CF93DF93EF93D9
:1027B000FF930BB70F930FB70F93E0914104F09184
:1027C0004204CDB7C193DEB7D1930E946703009155
:1027D000A8030093A903E0913804F0913904E09331
:1027E0004104F0934204C191CDBFD191DEBF0F915E
:1027F0000FBF0F910BBFFF91EF91DF91CF91BF9171
:10280000AF919F918F917F916F915F914F913F9188
:102810002F911F910F91FF90EF90DF90CF90BF907D
:10282000AF909F908F907F906F905F904F903F9070
:102830002F901F900F9008950E9467030091A803A6
:102840000093A903E0913804F0913904E093410426
:10285000F0934204C191CDBFD191DEBF0F910FBF64
:102860000F910BBFFF91EF91DF91CF91BF91AF918E
:102870009F918F917F916F915F914F913F912F9198
:102880001F910F91FF90EF90DF90CF90BF90AF908E
:102890009F908F907F906F905F904F903F902F9080
:1028A0001F900F9008950F921F922F923F924F9278
:1028B0005F926F927F928F929F92AF92BF92CF92D0
:1028C000DF92EF92FF920F931F932F933F934F93BB
:1028D0005F936F937F938F939F93AF93BF93CF93A8
:1028E000DF93EF93FF930BB70F930FB700680F932E
:1028F00000914004039500934004013041F4CDB7AA
:10290000DEB7E0914104F0914204C193D19300E01D
:1029100002BFF0E01F2E78940E94F90400000E948C
:10292000D1030F910FBF0F910BBFFF91EF91DF917B
:10293000CF91BF91AF919F918F917F916F915F9157
:102940004F913F912F911F910F91FF90EF90DF904A
:10295000CF90BF90AF909F908F907F906F905F903F
:102960004F903F902F901F900F900895A0E1B0E0FE
:10297000ECEBF4E10C94C2170F89188D86E08E837E
:102980001C830B838FEF9FE798878F83AE01455E93
:102990005F4F5A834983698D7A8DCE0103960E94D9
:1029A000DB1429853A85020F131FF8011082E4E039
:1029B00060960C94DE172F923F925F926F927F92F7
:1029C0008F929F92AF92BF92CF92DF92EF92FF923F
:1029D0000F931F93CF93DF93CDB7DEB72B970FB62F
:1029E000F894DEBF0FBECDBF3C014B016A01FC0174
:1029F00017821682838181FD03C08FEF9FEFBBC1D9
:102A00001E010894211C311CF3013381F40133FDB4
:102A1000859133FF81914F01882309F4A9C1853243
:102A200039F433FD859133FF81914F01853229F4CB
:102A3000B30190E00E94E916E7CF982FAA2410E096
:102A400055241032B0F49B3269F09C3228F4903255
:102A500051F0933271F40BC09D3239F0903349F448
:102A600011602AC01260146027C0186025C0106170
:102A700023C017FD2AC0292F20532A3088F416FFBF
:102A800007C08AE0A89EC0011124A22EA80E14C07F
:102A90008AE0589EC0011124522E580E10620CC0BC
:102AA0009E3221F416FD64C1106406C09C3611F4F8
:102AB000106802C0983649F4F40133FD959133FF54
:102AC00091914F01992309F0BCCF892F8554833010
:102AD00018F08052833038F424E030E0C20ED31E68
:102AE0008FE389830FC0933631F0933781F09335AC
:102AF00009F056C020C0F6018081898322E030E0D1
:102B0000C20ED31E710181E0A82EB12C12C0F601B5
:102B1000E080F18016FD03C06FEF7FEF02C06A2DE9
:102B200070E022E030E0C20ED31EC7010E94DE1624
:102B30005C011F7713C0F601E080F18016FD03C031
:102B40006FEF7FEF02C06A2D70E022E030E0C20E2E
:102B5000D31EC7010E94D3165C01106813FF07C083
:102B60001BC0B30180E290E00E94E9165A94852DC3
:102B700090E0A816B906A8F30FC0F70117FD8591DC
:102B800017FF81917F01B30190E00E94E916511077
:102B90005A940894A108B108A114B10471F7E5C0D2
:102BA000943611F0993669F517FF0AC0F601608175
:102BB00071818281938124E030E0C20ED31E0DC06A
:102BC000F601808191819C01B901882777FD80956C
:102BD000982F42E050E0C40ED51E012F0F7697FFCC
:102BE00008C090958095709561957F4F8F4F9F4F4E
:102BF00000682AE030E0A1010E941517B82EB21833
:102C00003DC0953721F41F7E2AE030E01CC0197FBB
:102C10009F3661F0903720F4983509F0A9C00FC0B5
:102C2000903739F0983709F0A3C004C028E030E0AD
:102C30000AC0106114FD146020E130E004C014FDEE
:102C4000166020E132E017FF08C0F6016081718153
:102C50008281938144E050E008C0F6018081918137
:102C6000BC0180E090E042E050E0C40ED51EA1011E
:102C70000E941517B82EB218012F0F7706FF09C052
:102C80000E7FBA1430F404FF06C002FD04C00F7EAC
:102C900002C01B2D01C01A2D04FF0CC0FE01EB0D5C
:102CA000F11D8081803311F4097E08C01F5F02FF8F
:102CB00005C003C0802F867809F01F5FE02E03FD5A
:102CC00014C000FF0FC0151510F0AB2C0BC0AB2CBF
:102CD000A50CA11A152D06C0B30180E290E00E9458
:102CE000E9161F5F1515C0F304C0151510F4511A2D
:102CF00001C05524E4FE10C0B30180E390E00E94BF
:102D0000E916E2FE1EC0E1FE03C088E590E002C0C5
:102D100088E790E0B3010CC08E2D867891F0E1FE3B
:102D200002C08BE201C080E207FD8DE2B30190E0BA
:102D30000E94E91606C0B30180E390E00E94E91604
:102D4000AA94BA14C0F3BA94F101EB0DF11D80817D
:102D5000B30190E00E94E916BB2039F0F4CFB30133
:102D600080E290E00E94E9165A945520C1F74CCEBB
:102D7000F301868197812B960FB6F894DEBF0FBEC4
:102D8000CDBFDF91CF911F910F91FF90EF90DF901A
:102D9000CF90BF90AF909F908F907F906F905F90FB
:102DA0003F902F900895FC010590615070400110F4
:102DB000D8F7809590958E0F9F1F0895FC01615064
:102DC000704001900110D8F7809590958E0F9F1F4D
:102DD00008950F931F93CF93DF938C01EB018B81A9
:102DE00081FF1BC082FF0DC02E813F818C819D81A0
:102DF0002817390764F4E881F9810193F983E8839E
:102E000006C0E885F985802F0995892B31F48E81DC
:102E10009F8101969F838E8302C00FEF1FEFC80131
:102E2000DF91CF911F910F910895FA01AA272830C1
:102E300051F1203181F1E8946F936E7F6E5F7F4F87
:102E40008F4F9F4FAF4FB1E03ED0B4E03CD0670F03
:102E5000781F891F9A1FA11D680F791F8A1F911D56
:102E6000A11D6A0F711D811D911DA11D20D009F4A6
:102E700068943F912AE0269F11243019305D3193E8
:102E8000DEF6CF010895462F4770405D4193B3E0D1
:102E90000FD0C9F7F6CF462F4F70405D4A3318F078
:102EA000495D31FD4052419302D0A9F7EACFB4E029
:102EB000A6959795879577956795BA95C9F70097E1
:102EC0006105710508959B01AC010A2E0694579582
:102ED000479537952795BA95C9F7620F731F841FD9
:102EE000951FA01D0895629FD001739FF001829FDE
:102EF000E00DF11D649FE00DF11D929FF00D839F89
:102F0000F00D749FF00D659FF00D9927729FB00D25
:102F1000E11DF91F639FB00DE11DF91FBD01CF0138
:102F200011240895A1E21A2EAA1BBB1BFD010DC09E
:102F3000AA1FBB1FEE1FFF1FA217B307E407F50769
:102F400020F0A21BB30BE40BF50B661F771F881F45
:102F5000991F1A9469F760957095809590959B01DB
:102F6000AC01BD01CF0108952F923F924F925F9225
:102F70006F927F928F929F92AF92BF92CF92DF9289
:102F8000EF92FF920F931F93CF93DF93CDB7DEB7EE
:102F9000CA1BDB0B0FB6F894DEBF0FBECDBF099482
:102FA0002A88398848885F846E847D848C849B84D9
:102FB000AA84B984C884DF80EE80FD800C811B81E7
:102FC000AA81B981CE0FD11D0FB6F894DEBF0FBE16
:082FD000CDBFED010895FFCF14
:102FD800616463313D25640D00616463323D25649D
:102FE8000D000102040810204080000001000200CA
:102FF80001000300010002000100040001000200BA
:1030080001000300010002000100050001000200A8
:103018000100030001000200010004000100020099
:103028000100030001000200010006000100020087
:103038000100030001000200010004000100020079
:103048000100030001000200010005000100020068
:103058000100030001000200010004000100020059
:103068000100030001000200010007000100020046
:103078000100030001000200010004000100020039
:103088000100030001000200010005000100020028
:103098000100030001000200010004000100020019
:1030A8000100030001000200010006000100020007
:1030B80001000300010002000100040001000200F9
:1030C80001000300010002000100050001000200E8
:1030D80001000300010002000100040001000200D9
:0A30E80001000300010002000100D6
:00000001FF
