:100000000C9446000C9465000C9465000C946500FB
:100010000C9465000C9465000C9465000C946500CC
:100020000C9465000C9465000C9465000C946500BC
:100030000C9465000C9465000C9465000C946500AC
:100040000C9483130C9465000C9465000C9465006B
:100050000C9465000C9465000C9465000C9465008C
:100060000C9465000C9465000C9465000C9465007C
:100070000C9465000C9465000C9465000C9465006C
:100080000C9465000C9465000C94650011241FBE4F
:10009000CFEFD0E1DEBFCDBF12E0A0E0B1E0E0E500
:1000A000F8E200E00BBF02C007900D92AE32B1073C
:1000B000D9F715E0AEE2B2E001C01D92A138B10758
:1000C000E1F70E9467000C9427140C940000CF9372
:1000D000DF93CDB7DEB7E9E2F0E087E68083EBE2BD
:1000E000F0E01082EAE2F0E088E18083E5E9F0E008
:1000F00086E08083E3E5F0E087E08083E7E5F0E0F9
:1001000081E080830E94D6028DEA92E0E7EAF0E087
:1001100024E0AC016FEF70E0CF010E94AF0E81E3ED
:1001200093E0E6EEF0E025E0AC016FEF70E0CF0188
:100130000E94AF0E80E090E00E94A90D9093AF0264
:100140008093AE020E94A703DF91CF910895CF93D1
:10015000DF93CDB7DEB722970FB6F894DEBF0FBEA0
:10016000CDBF8091B0029091B1022091AE0230914A
:10017000AF02AC0160E070E0C9010E94F90D1A8283
:10018000198217C0ACE2B0E089819A81FC01E0508D
:10019000FF4F80818C93EBE2F0E08081882F90E02C
:1001A000807290700097B9F389819A8101969A8341
:1001B000898389819A81FC01E050FF4F80818823E7
:1001C00009F781E090E00E948811CBCFCF93DF93B5
:1001D000CDB7DEB722970FB6F894DEBF0FBECDBF06
:1001E0001A82198217C0ACE2B0E089819A81FC01C1
:1001F000EB5EFE4F80818C93EBE2F0E08081882FF4
:1002000090E0807290700097B9F389819A8101968D
:100210009A83898389819A81FC01EB5EFE4F8081FC
:10022000882309F78091AE029091AF020E946B0E75
:10023000D7CFCF93DF93CDB7DEB72C970FB6F89417
:10024000DEBF0FBECDBF9E838D8378876F835A87B5
:1002500049873C872B8789859A859C838B838D81F1
:100260009E819A8389838981EB81FC8180838B8144
:100270009C8101979C838B8389819A81892F9927FF
:10028000EB81FC8180838B819C8101979C838B8394
:10029000EB81FC8110828B819C8101979C838B83F5
:1002A000EB81FC8110828B819C8101979C838B83E5
:1002B000EB81FC8110828B819C8101979C838B83D5
:1002C000EB81FC8110828B819C8101979C838B83C5
:1002D000EB81FC8110828B819C8101979C838B83B5
:1002E000EB81FC8110828B819C8101979C838B83A5
:1002F000EB81FC8110828B819C8101979C838B8395
:10030000EB81FC8110828B819C8101979C838B8384
:10031000EB81FC8110828B819C8101979C838B8374
:10032000EB81FC8110828B819C8101979C838B8364
:10033000EB81FC8110828B819C8101979C838B8354
:10034000EB81FC8110828B819C8101979C838B8344
:10035000EB81FC8110828B819C8101979C838B8334
:10036000EB81FC8110828B819C8101979C838B8324
:10037000EB81FC8110828B819C8101979C838B8314
:10038000EB81FC8110828B819C8101979C838B8304
:10039000EB81FC8110828B819C8101979C838B83F4
:1003A000EB81FC8110828B819C8101979C838B83E4
:1003B000EB81FC8110828B819C8101979C838B83D4
:1003C000EB81FC8110828B819C8101979C838B83C4
:1003D000EB81FC8110828B819C8101979C838B83B4
:1003E000EB81FC8110828B819C8101979C838B83A4
:1003F000EB81FC8110828B819C8101979C838B8394
:10040000EB81FC8110828B819C8101979C838B8383
:100410008F8198859A8389838981EB81FC81808390
:100420008B819C8101979C838B8389819A81892F01
:100430009927EB81FC8180838B819C8101979C8330
:100440008B83EB81FC8110828B819C8101979C8343
:100450008B83EB81FC8110828B819C8101979C8333
:100460008B83EB81FC8110828B819C8101979C8323
:100470008B83EB81FC8110828B819C8101979C8313
:100480008B83EB81FC8110828B819C8101979C8303
:100490008B83EB81FC8110828B819C8101979C83F3
:1004A0008B83EB81FC8110828B819C8101979C83E3
:1004B0008B83EB81FC8180E880838B819C81019719
:1004C0009C838B838B819C812C960FB6F894DEBF26
:1004D0000FBECDBFDF91CF910895CF93DF93CDB7FE
:1004E000DEB722970FB6F894DEBF0FBECDBF9A835A
:1004F000898322960FB6F894DEBF0FBECDBFDF9181
:10050000CF910895CF93DF93CDB7DEB722970FB683
:10051000F894DEBF0FBECDBF9A83898322960FB6B3
:10052000F894DEBF0FBECDBFDF91CF910895CF937A
:10053000DF93CDB7DEB7DF91CF910895CF93DF93EF
:10054000CDB7DEB7DF91CF910895CF93DF93CDB7CD
:10055000DEB7DF91CF910895CF93DF93CDB7DEB7AC
:10056000DF91CF910895CF93DF93CDB7DEB7DF91C1
:10057000CF910895CF93DF93CDB7DEB7DF91CF91C1
:100580000895CF93DF93CDB7DEB722970FB6F894D7
:10059000DEBF0FBECDBF9A83898322960FB6F89433
:1005A000DEBF0FBECDBFDF91CF910895CF93DF9314
:1005B000CDB7DEB70E94AC020E94B1060E94D00601
:1005C0000E942E070E9469060E940A070E941C07CB
:1005D0000E94B302DF91CF910895CF93DF93CDB7FF
:1005E000DEB780913303813049F48091D0038F3F8F
:1005F00029F08091D0038F5F8093D003DF91CF915A
:100600000895CF93DF93CDB7DEB780913303813068
:1006100009F060C0F8948091D003882329F080917C
:10062000D00381508093D0038091D003882309F0B8
:1006300050C080913203882309F04BC08091CA03D7
:10064000882F90E0FC01E35DFE4F80818093CF0313
:100650008091CF03282F220F220F220F8091CF03EA
:10066000882F90E0FC01E553FC4F8081882F90E0BB
:10067000FC01E35DFE4F8081820F809338039091EF
:10068000380380913903981721F180913803882F1E
:1006900090E0880F991FFC01ED59FA4F80819181FC
:1006A0009093C9038093C8038091BC039091BD03CC
:1006B000A091BE03B091BF030196A11DB11D80930F
:1006C000BC039093BD03A093BE03B093BF030E94ED
:1006D0004C137894DF91CF910895CF93DF93CDB7EA
:1006E000DEB780913303813059F4F894809132035E
:1006F0008F3F29F0809132038F5F8093320378948B
:10070000DF91CF910895CF93DF93CDB7DEB780917E
:1007100033038130C9F4F89480913203882399F02F
:100720008091320381508093320380913203882379
:1007300041F48091D003882321F478940E948107AA
:1007400003C0789401C07894DF91CF910895CF933E
:10075000DF93CDB7DEB722970FB6F894DEBF0FBE9A
:10076000CDBF809133038823E9F58091CA03882F98
:1007700090E0FC01E35DFE4F80818A838A81882FAF
:1007800090E0FC01E553FC4F8081882F90E0FC0154
:10079000E35DFE4F808189838A81982F990F990F9D
:1007A000990F8981890F8093380380913803809352
:1007B000390380913803882F90E0880F991FFC013E
:1007C000ED59FA4F808191819093C9038093C803BA
:1007D0008091C8039091C9039093D2038093D10371
:1007E0000E94B51222960FB6F894DEBF0FBECDBFA1
:1007F000DF91CF910895CF93DF93CDB7DEB782E03D
:1008000090E00E948811F8941092340310923503FE
:10081000109236031092370378948DE390E00E9493
:100820008811F8948091340390913503A091360398
:10083000B09137038093C0039093C103A093C20388
:10084000B093C30381E0809362057894DF91CF91E8
:100850000895CF93DF93CDB7DEB722970FB6F89404
:10086000DEBF0FBECDBF0E94A50280913303813051
:1008700009F058C080913A0390913B039A83898391
:100880004BC0F894E981FA81828593850097E9F15C
:10089000E981FA81828593850197E981FA819387BD
:1008A0008287E981FA8182859385009771F5E981D4
:1008B000FA818485882F90E0887090700097F9F411
:1008C000E981FA8191898091CA03892B8093CA03B7
:1008D000E981FA818785282F30E0E981FA818785CF
:1008E000882F90E0FC01E553FC4F9081E981FA816B
:1008F0008089892BF901E553FC4F808306C0E9818B
:10090000FA8181E090E093878287E981FA81828190
:1009100093819A8389837894E981FA8185858C30E3
:1009200009F0AFCF22960FB6F894DEBF0FBECDBF51
:10093000DF91CF910895CF93DF93CDB7DEB78CEFE2
:1009400090E0DF91CF910895CF93DF93CDB7DEB7DD
:10095000DF91CF910895CF93DF93CDB7DEB72C977A
:100960000FB6F894DEBF0FBECDBF998788877B870F
:100970006A874C87E885F9858181882F90E0FC01A2
:10098000E35DFE4F80818C838C81882F90E0FC0199
:10099000EB5DFE4F80818A838C81282F30E0888533
:1009A0009985820F931FFC0136968081882F90E0F5
:1009B000FC01E35DFE4F80818D838D81882F90E067
:1009C000FC01EB5DFE4F80818B838C81982F990F0A
:1009D000990F990F8D81890F89838C81482F50E061
:1009E0008C81282F30E088859985820F931FFC0128
:1009F00036968081982F8B8180958923282F888532
:100A00009985840F951FFC013696208388859985EA
:100A1000840F951FFC0136968081882351F4E88568
:100A2000F9858181982F8A8180958923E885F985C8
:100A300081838981882F90E0880F991FFC01ED59EF
:100A4000FA4F808191819F838E83EE81FF8113868F
:100A50001286EE81FF8117821682EE81FF818A85E0
:100A60009B8591878087EE81FF818485982F8C8577
:100A700080958923EE81FF818487EE81FF818485C3
:100A80008823B1F49091CA038A81892B8093CA0389
:100A90008C81282F30E08C81882F90E0FC01E55379
:100AA000FC4F90818B81892BF901E553FC4F8083AA
:100AB0008981882F90E02C960FB6F894DEBF0FBE88
:100AC000CDBFDF91CF910895CF93DF93CDB7DEB740
:100AD00022970FB6F894DEBF0FBECDBF9A838983ED
:100AE000E091D103F091D20389819A819783868323
:100AF000E091D103F091D2038785282F30E0E09177
:100B0000D103F091D2038785882F90E0FC01E55353
:100B1000FC4F8081982FE091D103F091D20380891E
:100B200080958923F901E553FC4F8083F901E55352
:100B3000FC4F8081882361F4E091D103F091D203CE
:100B40008189982F90958091CA0389238093CA0345
:100B5000E091D103F091D2038785482F50E0E091D6
:100B6000D103F091D2038785282F30E089819A81C3
:100B7000820F931FFC0136969081E091D103F09192
:100B8000D2038089292F282B89819A81840F951F70
:100B9000FC0136962083E981FA819181E091D103AD
:100BA000F091D2038189892BE981FA818183229690
:100BB0000FB6F894DEBF0FBECDBFDF91CF91089581
:100BC000CF93DF93CDB7DEB722970FB6F894DEBF91
:100BD0000FBECDBF9A838983E091D103F091D203F8
:100BE0008785482F50E0E091D103F091D2038785AB
:100BF000282F30E089819A81820F931FFC0136965D
:100C00008081982FE091D103F091D2038089809563
:100C10008923282F89819A81840F951FFC0136969C
:100C2000208389819A81840F951FFC0136968081EB
:100C3000882371F4E981FA818181982FE091D103B1
:100C4000F091D203818980958923E981FA8181839A
:100C5000E091D103F091D2031486E091D103F09199
:100C6000D2031782168222960FB6F894DEBF0FBE0B
:100C7000CDBFDF91CF910895CF93DF93CDB7DEB78E
:100C800024970FB6F894DEBF0FBECDBF9C838B8335
:100C9000EB81FC8111828B819C8106969A838983EA
:100CA000E981FA81108289819A8101969A838983E8
:100CB000E981FA81108289819A8101969A838983D8
:100CC00024960FB6F894DEBF0FBECDBFDF91CF9153
:100CD0000895CF93DF93CDB7DEB726970FB6F8947C
:100CE000DEBF0FBECDBF83E594E09C838B838BE595
:100CF00094E09A8389831E821D8218C0EB81FC8157
:100D00001082EB81FC8189819A81958384838B8118
:100D10009C8108969C838B8389819A8108969A830B
:100D200089838D819E8101969E838D838D819E8195
:100D30008230910518F3EB81FC811082EB81FC81FC
:100D40001582148283E594E09093CE038093CD03C3
:100D500026960FB6F894DEBF0FBECDBFDF91CF91C0
:100D60000895CF93DF93CDB7DEB71092D0031092E2
:100D700032031092C703109233031092BC031092F7
:100D8000BD031092BE031092BF0310923403109261
:100D900035031092360310923703DF91CF910895F7
:100DA000CF93DF93CDB7DEB724970FB6F894DEBFAD
:100DB0000FBECDBF1092CA038BEC93E09A83898358
:100DC0001C821B820DC0E981FA81108289819A817F
:100DD00001969A8389838B819C8101969C838B8366
:100DE0008B819C818230910570F3109239031092AF
:100DF00038031092C9031092C8031092D2031092C4
:100E0000D10324960FB6F894DEBF0FBECDBFDF919D
:100E1000CF910895CF93DF93CDB7DEB782E594E00D
:100E2000E8EEF7E02CE0AC0160E070E0CF010E945A
:100E3000AF0EDF91CF910895CF93DF93CDB7DEB79B
:100E40008BEB93E0ECE0F8E02BE0AC0160E070E0CD
:100E5000CF010E94AF0EDF91CF910895CF93DF9322
:100E6000CDB7DEB725970FB6F894DEBF0FBECDBF66
:100E700010923B0310923A031D820DC08D81882F82
:100E800090E0880F991FFC01ED59FA4F11821082F2
:100E90008D818F5F8D838D818D3080F38BE694E023
:100EA0009C838B838EE794E09A8389831D8213C091
:100EB000EB81FC8189819A81938382838B819C81E0
:100EC00043969C838B8389819A8143969A838983F5
:100ED0008D818F5F8D838D818C3050F3EB81FC8110
:100EE000138212828BE694E09093C5038093C4032F
:100EF00025960FB6F894DEBF0FBECDBFDF91CF9120
:100F00000895CF93DF93CDB7DEB721970FB6F8944E
:100F1000DEBF0FBECDBFF8948091D003882309F0C7
:100F20004DC080913203882309F048C08091CA03E4
:100F3000882F90E0FC01E35DFE4F808189838981E9
:100F4000282F220F220F220F8981882F90E0FC0189
:100F5000E553FC4F8081882F90E0FC01E35DFE4F5C
:100F60008081820F809338039091380380913903F8
:100F7000981721F180913803882F90E0880F991FEE
:100F8000FC01ED59FA4F808191819093C9038093C0
:100F9000C8038091BC039091BD03A091BE03B091A2
:100FA000BF030196A11DB11D8093BC039093BD03A7
:100FB000A093BE03B093BF030E94E91278942196D8
:100FC0000FB6F894DEBF0FBECDBFDF91CF9108956D
:100FD000CF93DF93CDB7DEB722970FB6F894DEBF7D
:100FE0000FBECDBF9A838983F8948091340390918A
:100FF0003503A0913603B09137030196A11DB11DB1
:101000008093340390933503A0933603B093370352
:1010100078940E94BA02E8CFCF93DF93CDB7DEB7C2
:101020002B970FB6F894DEBF0FBECDBF9B878A8784
:1010300004C08AE790E00E948811809162058823AD
:10104000C1F38091C0039091C103A091C203B091FC
:10105000C30324E630E040E050E0BC01CD010E9433
:101060000514DA01C9018A839B83AC83BD83F8949C
:101070008091340390913503A0913603B0913703EA
:1010800080937D0590937E05A0937F05B0938005A6
:101090008091340390913503A0913603B0913703CA
:1010A0008E839F83A887B9871092340310923503EB
:1010B000109236031092370378948A819B81AC8119
:1010C000BD810097A105B105E1F08E819F81A885C2
:1010D000B9852A813B814C815D81BC01CD010E9493
:1010E0000514DA01C901982F84E6891B8983898157
:1010F000882324F089818093C6031BC01092C60305
:1011000018C01092C6038091C0039091C103A091B2
:10111000C203B091C30324E630E040E050E0BC01DC
:10112000CD010E940514DA01C9018A839B83AC8337
:10113000BD830E949E028DE390E00E94881197CFAC
:10114000AF92BF92CF92DF92EF92FF920F931F93D5
:10115000CF93DF93CDB7DEB763970FB6F894DEBFBA
:101160000FBECDBF8B837D836C835F834E833987B6
:101170002887EA86FB860C871D87DF86CE86B98A9C
:10118000A88AF8948091C4039091C5039A838983B7
:1011900089819A81009709F4A0C0E981FA8182814E
:1011A00093819093C5038093C4037894E981FA8175
:1011B0008C819D8191838083E981FA818B818587F0
:1011C000E981FA811486E981FA8113861286E98120
:1011D000FA81128A8B81869586958695E981FA81B6
:1011E0008787E981FA818785882F90E0FC01EB5D94
:1011F000FE4F8081E981FA81818B8B818770E98143
:10120000FA818687E981FA818685882F90E0FC0142
:10121000EB5DFE4F8081E981FA81808BE981FA8163
:1012200017821682E981FA811186108689819A8156
:101230000E94C10289819A810E946D02F8948B817B
:10124000882F90E0880F991FFC01ED59FA4F898192
:101250009A819183808380913A0390913B03E98145
:10126000FA8193838283E981FA81158214828091C5
:101270003A0390913B03009741F0E0913A03F091DB
:101280003B0389819A819583848389819A81909394
:101290003B0380933A03E981FA8191898091CA03E3
:1012A000892B8093CA03E981FA818785282F30E052
:1012B000E981FA818785882F90E0FC01E553FC4F96
:1012C0009081E981FA818089892BF901E553FC4FEE
:1012D000808378941B8A1A8A05C0789486E490E00B
:1012E0009B8B8A8B8A899B8963960FB6F894DEBFA5
:1012F0000FBECDBFDF91CF911F910F91FF90EF9067
:10130000DF90CF90BF90AF900895CF93DF93CDB78C
:10131000DEB726970FB6F894DEBF0FBECDBF9C8315
:101320008B838091D003882319F01E821D8232C0E6
:10133000F8948091CD039091CE039A838983809114
:10134000CD039091CE03009751F0E091CD03F09141
:10135000CE03848195819093CE038093CD037894BE
:1013600089819A81009791F0E981FA8181E08083F7
:10137000E981FA8113821282E981FA818B819C8151
:101380009583848389819A810E943C0689819A8110
:101390009E838D838D819E8126960FB6F894DEBF45
:1013A0000FBECDBFDF91CF910895CF93DF93CDB71F
:1013B000DEB72A970FB6F894DEBF0FBECDBF9C8371
:1013C0008B837E836D8358874F838091D0038823DE
:1013D00039F0EF81F88582E080831A86198665C02E
:1013E000F894EB81FC81848195819A83898389813A
:1013F0009A81009769F0EB81FC81158214827894C0
:10140000EF81F885108289819A819A8789874DC0FA
:10141000A091D103B091D203E091D103F091D20316
:1014200084858260FD018487E091D103F091D2032D
:101430008D819E81938782878B819C810E94640528
:1014400078940E948107F894E091D103F091D2033F
:10145000808591859A83898389819A810097D1F0CB
:10146000E091D103F091D20311861086E091D1036F
:10147000F091D2031486E091D103F091D203178248
:1014800016827894EF81F885108289819A819A87F3
:1014900089870BC08B819C810E94E0057894EF8145
:1014A000F8858AE080831A86198689859A852A9626
:1014B0000FB6F894DEBF0FBECDBFDF91CF91089578
:1014C000CF93DF93CDB7DEB726970FB6F894DEBF84
:1014D0000FBECDBF9A8389837C836B83F894E981A7
:1014E000FA818181882379F08B819C8129813A81DD
:1014F00042E0BC01C9010E94AB0478940E948107BC
:101500001E821D8215C0E981FA8184819581009730
:1015100031F0789484E190E09E838D8309C0E98165
:10152000FA818B819C819583848378941E821D82AD
:101530008D819E8126960FB6F894DEBF0FBECDBF7B
:10154000DF91CF910895CF93DF93CDB7DEB7279783
:101550000FB6F894DEBF0FBECDBF8B837D836C8347
:101560008091D003882339F0EC81FD818DE8808360
:101570001F821E8267C0F8948B81882F90E0880FAD
:10158000991FFC01ED59FA4F80819181009741F03C
:101590007894EC81FD8188E280831F821E8252C094
:1015A0008B81882F90E0880F991FFC01ED59FA4F2D
:1015B00081E090E0918380838091CD039091CE0370
:1015C0009A83898389819A810097A1F48B81882FDE
:1015D00090E0880F991FFC01ED59FA4F118210829B
:1015E0007894EC81FD8184E0808389819A819F8356
:1015F0008E8328C0E091CD03F091CE038481958144
:101600009093CE038093CD037894E981FA8184E0AE
:1016100080838B81882F90E0982F88278F6FE981B6
:10162000FA8193838283E981FA8115821482898108
:101630009A810E943C06EC81FD81108289819A8109
:101640009F838E838E819F8127960FB6F894DEBF8D
:101650000FBECDBFDF91CF910895CF93DF93CDB76C
:10166000DEB72B970FB6F894DEBF0FBECDBF9F83BA
:101670008E83798768875B874A878091D003882328
:1016800029F0EA85FB8582E080831FC1F894EE8112
:10169000FF81828193818F3F39F5EE81FF818281C5
:1016A00093818070EE81FF8193838283EE81FF813D
:1016B00022813381E091D103F091D2038585882F77
:1016C00090E0822B932BEE81FF8193838283809124
:1016D000D1039091D203EE81FF8195838483789426
:1016E000EA85FB851082F1C0EE81FF8182819381C2
:1016F000892F99278D83EE81FF81828193818C834D
:10170000EE81FF81848195819A838983E981FA81C1
:1017100095858D81981709F49DC0E091D103F091D2
:10172000D20395858C81981708F094C0E981FA81DD
:101730008785882F90E0FC01E553FC4F9081E9817B
:10174000FA8180898923882359F1E981FA81878583
:10175000282F30E0E981FA818785882F90E0FC010D
:10176000E553FC4F8081982FE981FA81808980952B
:101770008923F901E553FC4F8083F901E553FC4FC0
:101780008081882351F4E981FA818189982F90958D
:101790008091CA0389238093CA0381E08B8301C0AF
:1017A0001B82E981FA818D818587E981FA818585AE
:1017B000869586958695E981FA818787E981FA8100
:1017C0008785882F90E0FC01EB5DFE4F8081E981E9
:1017D000FA81818BE981FA8185858770E981FA81B7
:1017E0008687E981FA818685882F90E0FC01EB5D90
:1017F000FE4F8081E981FA81808B8B818130F1F409
:10180000E981FA8191898091CA03892B8093CA0367
:10181000E981FA818785282F30E0E981FA8187857F
:10182000882F90E0FC01E553FC4F9081E981FA811B
:101830008089892BF901E553FC4F80838D81882FA6
:1018400090E0880F991FFC01ED59FA4F89819A8128
:1018500091838083A091D103B091D203E091D10311
:10186000F091D20384858061FD018487E091D103EA
:10187000F091D20388859985938782878E819F8195
:101880000E94640578940E948107F894E091D10346
:10189000F091D2038485882F90E08071907000973A
:1018A00051F08E819F810E94E0057894EA85FB8546
:1018B0008AE080830AC0E091D103F091D2031782BD
:1018C00016827894EA85FB8510822B960FB6F894E1
:1018D000DEBF0FBECDBFDF91CF910895CF93DF93D1
:1018E000CDB7DEB726970FB6F894DEBF0FBECDBFDB
:1018F0009C838B838091D003882329F085E090E03E
:101900009E838D831BC1F894EB81FC81828193813E
:10191000892F99278A83EB81FC8182819381898336
:10192000E091D103F091D20395858A81981771F0E7
:10193000E091D103F091D20395858981981731F018
:101940007894E8E7F0E0FE83ED83F8C0E091D103FE
:10195000F091D20395858A81981709F09CC0E09197
:10196000D103F091D2038785282F30E0E091D10395
:10197000F091D2038785882F90E0FC01E553FC4F5E
:101980008081982FE091D103F091D20380898095D6
:101990008923F901E553FC4F8083F901E553FC4F9E
:1019A0008081882361F4E091D103F091D203818991
:1019B000982F90958091CA0389238093CA03E09160
:1019C000D103F091D20389818587E091D103F09111
:1019D000D20389818695869586958787A091D103C4
:1019E000B091D203E091D103F091D2038785882F83
:1019F00090E0FC01EB5DFE4F8081FD01818BE09169
:101A0000D103F091D203898187708687A091D10399
:101A1000B091D203E091D103F091D2038685882F53
:101A200090E0FC01EB5DFE4F8081FD01808BE09139
:101A3000D103F091D20391898091CA03892B8093BD
:101A4000CA03E091D103F091D2038785282F30E0BB
:101A5000E091D103F091D2038785882F90E0FC01BB
:101A6000E553FC4F9081E091D103F091D20380893E
:101A7000892BF901E553FC4F80838981882F90E001
:101A80002091D1033091D203880F991FFC01ED59A9
:101A9000FA4F318320838A81882F90E0880F991F25
:101AA000FC01ED59FA4F81E090E091838083EB8156
:101AB000FC818181882391F18B819C8140E160E0F0
:101AC00070E00E94AB048983EB81FC818281938169
:101AD0008070EB81FC8193838283EB81FC81228186
:101AE00033818981882F90E0822B932BEB81FC81BD
:101AF000938382838981882F90E0880F991FFC014E
:101B0000ED59FA4F80819181EB81FC81958384832B
:101B100078940E9481071E821D8210C0EB81FC8197
:101B2000828193818F6FEB81FC8193838283EB8130
:101B3000FC811582148278941E821D828D819E8183
:101B400026960FB6F894DEBF0FBECDBFDF91CF91C2
:101B50000895CF93DF93CDB7DEB726970FB6F894ED
:101B6000DEBF0FBECDBF9C838B838091D0038823C3
:101B700019F01E821D8232C0F8948091CD0390919D
:101B8000CE039A8389838091CD039091CE030097F1
:101B900051F0E091CD03F091CE0384819581909333
:101BA000CE038093CD03789489819A81009791F038
:101BB000E981FA8183E08083E981FA818B819C81CC
:101BC00093838283E981FA811582148289819A81C3
:101BD0000E943C0689819A819E838D838D819E819E
:101BE00026960FB6F894DEBF0FBECDBFDF91CF9122
:101BF0000895CF93DF93CDB7DEB726970FB6F8944D
:101C0000DEBF0FBECDBF9A8389837C836B835E83E7
:101C10004D838091D003882329F0ED81FE8182E0FD
:101C2000808350C0F894E981FA8182819381009782
:101C300071F0E981FA81828193810197E981FA81CA
:101C4000938382837894ED81FE8110823BC0A091C2
:101C5000D103B091D203E091D103F091D2038485F6
:101C60008160FD018487E091D103F091D2038B81E3
:101C70009C819387828789819A810E9464057894E8
:101C80000E948107F894E091D103F091D2038485FA
:101C9000882F90E081709070882351F089819A811B
:101CA0000E94E0057894ED81FE818AE080830AC07D
:101CB000E091D103F091D203178216827894ED81DE
:101CC000FE81108226960FB6F894DEBF0FBECDBF00
:101CD000DF91CF910895CF93DF93CDB7DEB72497EF
:101CE0000FB6F894DEBF0FBECDBF9A838983F894F8
:101CF000E981FA818181882369F089819A8141E0B3
:101D000060E070E00E94AB0478940E9481071C821E
:101D10001B821AC0E981FA81828193812FEF8F3F64
:101D2000920769F0E981FA81828193810196E981C4
:101D3000FA819383828378941C821B8205C07894F5
:101D400082E390E09C838B838B819C8124960FB6E9
:101D5000F894DEBF0FBECDBFDF91CF910895AF9253
:101D6000BF92CF92DF92EF92FF920F931F93CF9388
:101D7000DF93CDB7DEB72C970FB6F894DEBF0FBE5A
:101D8000CDBF9D838C837F836E83598748872A8745
:101D9000F8948A85882F90E0880F991FFC01ED59EF
:101DA000FA4F80819181009709F050C08A85882F71
:101DB00090E0880F991FFC01ED59FA4F81E090E007
:101DC000918380837894888599856E817F81EC8169
:101DD000FD8120E030E0AC01CF010E9419019B831E
:101DE0008A838A819B81AA24BB24CC24DD24EE240F
:101DF000FF24870120E030E040E050E0BC018A850C
:101E00000E94A00889838981882371F4F8948091C5
:101E1000C7038F5F8093C703789480913303813029
:101E200079F40E9481070CC0F8948A85882F90E08D
:101E3000880F991FFC01ED59FA4F11821082789496
:101E40008981282F30E03C872B8705C0789488E271
:101E500090E09C878B878B859C852C960FB6F89499
:101E6000DEBF0FBECDBFDF91CF911F910F91FF90CD
:101E7000EF90DF90CF90BF90AF900895CF93DF9316
:101E8000CDB7DEB728970FB6F894DEBF0FBECDBF33
:101E90008E838091D003882329F08FE390E0988788
:101EA0008F83F6C0F8948E818F3F31F4E091D10397
:101EB000F091D20385858E838E81882F90E0880FE4
:101EC000991FFC01ED59FA4F808191819B838A8390
:101ED0008A819B81009709F4D6C0EA81FB818785BE
:101EE000282F30E0EA81FB818785882F90E0FC0174
:101EF000E553FC4F8081982FEA81FB818089809592
:101F00008923F901E553FC4F8083F901E553FC4F28
:101F10008081882351F4EA81FB818189982F9095F3
:101F20008091CA0389238093CA03EA81FB81868159
:101F300097819D838C838C819D810097A1F1EA819B
:101F4000FB818785482F50E0EA81FB818785282F18
:101F500030E08C819D81820F931FFC013696808139
:101F6000982FEA81FB81808980958923282F8C8195
:101F70009D81840F951FFC01369620838C819D8165
:101F8000840F951FFC0136968081882361F4EC81D3
:101F9000FD818181982FEA81FB8181898095892348
:101FA000EC81FD818183EA81FB8113861286EA81BF
:101FB000FB811486809132038F3F29F08091320398
:101FC0008F5F8093320378940E94A404F8948091E8
:101FD0003203882329F080913203815080933203A9
:101FE0008A819B810E9482028091C70381508093E5
:101FF000C7038E81882F90E0880F991FFC01ED594F
:10200000FA4F11821082EA81FB81848195810097C9
:1020100081F4EA81FB810280F381E02D1582148234
:10202000EA81FB818281938190933B0380933A0301
:1020300016C0EA81FB81A481B581EA81FB8182819E
:102040009381FD0193838283EA81FB81A281B38125
:10205000EA81FB8184819581FD0195838483809150
:10206000C4039091C503EA81FB81938382838A81B3
:102070009B819093C5038093C40378940E94810749
:1020800018861F8205C078948CE390E098878F8330
:102090008F81988528960FB6F894DEBF0FBECDBF0E
:1020A000DF91CF910895CF93DF93CDB7DEB7279718
:1020B0000FB6F894DEBF0FBECDBF8D838D818F3FED
:1020C00071F4F894E091D103F091D20382898C836A
:1020D00078948C81282F30E03F832E831FC0F894A2
:1020E0008D81882F90E0880F991FFC01ED59FA4FE0
:1020F000808191819A83898389819A81009731F0C7
:10210000E981FA818EE3828B1B8202C08BE08B8394
:1021100078948B81282F30E03F832E838E819F819E
:1021200027960FB6F894DEBF0FBECDBFDF91CF91DB
:102130000895CF93DF93CDB7DEB725970FB6F89408
:10214000DEBF0FBECDBF8B83F8948B81882F90E0CC
:10215000880F991FFC01ED59FA4F808191819A8374
:10216000898389819A81009731F4789484E690E09C
:102170009D838C8346C0E981FA818485882F90E015
:10218000887090700097C1F1E981FA818485877F1A
:10219000E981FA818487E981FA818485882341F580
:1021A000E981FA8182859385009711F5E981FA81A9
:1021B00091898091CA03892B8093CA03E981FA81AE
:1021C0008785282F30E0E981FA818785882F90E084
:1021D000FC01E553FC4F9081E981FA818089892BCC
:1021E000F901E553FC4F808378940E94810701C078
:1021F00078941D821C8205C0789485E690E09D83CA
:102200008C838C819D8125960FB6F894DEBF0FBE1E
:10221000CDBFDF91CF910895CF93DF93CDB7DEB7D8
:1022200026970FB6F894DEBF0FBECDBF8C83F8940F
:102230008C818F3F49F4E091D103F091D2038585E1
:102240008C8381E08B830CC0E091D103F091D203A9
:1022500095858C81981719F481E08B8301C01B82CE
:102260008C81882F90E0880F991FFC01ED59FA4F5F
:10227000808191819A83898389819A81009731F441
:1022800078948AE590E09E838D8337C0E981FA8156
:102290008785282F30E0E981FA818785882F90E0B3
:1022A000FC01E553FC4F8081982FE981FA818089F8
:1022B00080958923F901E553FC4F8083F901E553AB
:1022C000FC4F8081882351F4E981FA818189982F1C
:1022D00090958091CA0389238093CA03E981FA818A
:1022E00084858860E981FA81848778948B81813044
:1022F00011F40E9481071E821D828D819E81269687
:102300000FB6F894DEBF0FBECDBFDF91CF91089519
:10231000CF93DF93CDB7DEB722970FB6F894DEBF29
:102320000FBECDBF9A83898389819A81009709F472
:102330003CC0F894E091D103F091D2038785282F17
:1023400030E0E091D103F091D2038785882F90E0AF
:10235000FC01E553FC4F8081982FE091D103F0916F
:10236000D203808980958923F901E553FC4F80834E
:10237000F901E553FC4F8081882361F4E091D1039A
:10238000F091D2038189982F90958091CA03892377
:102390008093CA03E091D103F091D20389819A819D
:1023A0009387828778940E94810722960FB6F894CB
:1023B000DEBF0FBECDBFDF91CF910895EF92FF92A8
:1023C0000F931F93CF93DF93CDB7DEB72D970FB643
:1023D000F894DEBF0FBECDBF8F83688749873B87E8
:1023E0002A878F81882359F48885882341F4898539
:1023F000882329F48A859B85009709F4A3C08885E2
:102400008C3328F081E590E09D878C879FC089857B
:102410008C3328F082E590E09D878C8797C08A8571
:102420009B8523E0883E920728F083E590E09D8716
:102430008C878CC08F81882F90E0A0E0B0E020E1F5
:102440003EE040E050E0BC01CD010E94E6137B017C
:102450008C018885882F90E0A0E0B0E02CE330E08C
:1024600040E050E0BC01CD010E94E613DC01CB014D
:10247000A8019701280F391F4A1F5B1F8985882FE4
:1024800090E0A0E0B0E0820F931FA41FB51F2DE3E2
:1024900030E040E050E0BC01CD010E94E6137B013A
:1024A0008C018A859B85CC01A0E0B0E02DE330E073
:1024B00040E050E0BC01CD010E94E613DC01CB01FD
:1024C00088519E4FAF4FBF4F28EE33E040E050E0C1
:1024D000BC01CD010E940514DA01C9018E0D9F1DBA
:1024E000A01FB11F8B839C83AD83BE838B819C8196
:1024F000AD81BE81CD01AA27BB279A8389838B81B9
:102500009C81AD81BE81A070B0708B839C83AD83B4
:10251000BE838B819C810E9488110DC080E090E871
:102520000E94881180E090E80E94881189819A8138
:1025300001979A83898389819A81009779F71D860B
:102540001C8604C084E590E09D878C878C859D85E2
:102550002D960FB6F894DEBF0FBECDBFDF91CF91A1
:102560001F910F91FF90EF9008950E9497020091A4
:102570003303039500933303E091C803F091C9033B
:10258000C191CDBFD191DEBF0F910FBF0F910BBF96
:10259000FF91EF91DF91CF91BF91AF919F918F917B
:1025A0007F916F915F914F913F912F911F910F916B
:1025B000FF90EF90DF90CF90BF90AF909F908F9063
:1025C0007F906F905F904F903F902F901F900F9053
:1025D00008950F921F922F923F924F925F926F92A7
:1025E0007F928F929F92AF92BF92CF92DF92EF92A3
:1025F000FF920F931F932F933F934F935F936F938C
:102600007F938F939F93AF93BF93CF93DF93EF937A
:10261000FF930BB70F930FB70F93E091D103F09196
:10262000D203CDB7C193DEB7D1930E949702009138
:10263000380300933903E091C803F091C903E09394
:10264000D103F093D203C191CDBFD191DEBF0F91E1
:102650000FBF0F910BBFFF91EF91DF91CF91BF9112
:10266000AF919F918F917F916F915F914F913F912A
:102670002F911F910F91FF90EF90DF90CF90BF901F
:10268000AF909F908F907F906F905F904F903F9012
:102690002F901F900F9008950E9497020091380389
:1026A00000933903E091C803F091C903E093D1038B
:1026B000F093D203C191CDBFD191DEBF0F910FBF77
:1026C0000F910BBFFF91EF91DF91CF91BF91AF9130
:1026D0009F918F917F916F915F914F913F912F913A
:1026E0001F910F91FF90EF90DF90CF90BF90AF9030
:1026F0009F908F907F906F905F904F903F902F9022
:102700001F900F9008950F921F922F923F924F9219
:102710005F926F927F928F929F92AF92BF92CF9271
:10272000DF92EF92FF920F931F932F933F934F935C
:102730005F936F937F938F939F93AF93BF93CF9349
:10274000DF93EF93FF930BB70F930FB700680F93CF
:102750000091D00303950093D003013041F4CDB72D
:10276000DEB7E091D103F091D203C193D19300E0A1
:1027700002BFF0E01F2E78940E94290400000E94FE
:1027800001030F910FBF0F910BBFFF91EF91DF91ED
:10279000CF91BF91AF919F918F917F916F915F91F9
:1027A0004F913F912F911F910F91FF90EF90DF90EC
:1027B000CF90BF90AF909F908F907F906F905F90E1
:1027C0004F903F902F901F900F900895629FD001DF
:1027D000739FF001829FE00DF11D649FE00DF11DDC
:1027E000929FF00D839FF00D749FF00D659FF00D8B
:1027F0009927729FB00DE11DF91F639FB00DE11D78
:10280000F91FBD01CF0111240895A1E21A2EAA1BC0
:10281000BB1BFD010DC0AA1FBB1FEE1FFF1FA21790
:10282000B307E407F50720F0A21BB30BE40BF50B8D
:10283000661F771F881F991F1A9469F76095709516
:10284000809590959B01AC01BD01CF010895FFCF0C
:1028500068656C6C6F6F20686F7720617265207996
:102860006F750D0A00686920616D2066696E652EBE
:102870002E2E2E0D000102040810204080000001C1
:102880000002000100030001000200010004000139
:102890000002000100030001000200010005000128
:1028A0000002000100030001000200010004000119
:1028B0000002000100030001000200010006000107
:1028C00000020001000300010002000100040001F9
:1028D00000020001000300010002000100050001E8
:1028E00000020001000300010002000100040001D9
:1028F00000020001000300010002000100070001C6
:1029000000020001000300010002000100040001B8
:1029100000020001000300010002000100050001A7
:102920000002000100030001000200010004000198
:102930000002000100030001000200010006000186
:102940000002000100030001000200010004000178
:102950000002000100030001000200010005000167
:102960000002000100030001000200010004000158
:0E29700000020001000300010002000100004F
:00000001FF
