:020000040000FA
:10000000680200106D010000710100007301000022
:100010007501000077010000790100000000000078
:100020000000000000000000000000007B01000054
:100030007D010000000000007F0100008101000040
:1000400083010000830100008301000083010000A0
:100050008301000083010000830100008301000090
:100060008301000083010000830100008301000080
:100070008301000083010000830100008301000070
:100080008301000083010000830100008301000060
:100090008301000083010000830100008301000050
:1000A0008301000083010000830100008301000040
:1000B0008301000083010000830100008301000030
:1000C00083010000830100008301000000F002F8BA
:1000D00000F03CF80AA090E8000C82448344AAF1A6
:1000E0000107DA4501D100F031F8AFF2090EBAE8A4
:1000F0000F0013F0010F18BFFB1A43F0010318475C
:100100004C0200006C020000103A24BF78C878C18D
:10011000FAD8520724BF30C830C144BF04680C600D
:10012000704700000023002400250026103A28BF55
:1001300078C1FBD8520728BF30C148BF0B60704759
:100140001FB500F0D2F81FBD10B510BD00F0D8F8F3
:100150001146FFF7F5FF00F023F800F0B0F803B404
:10016000FFF7F2FF03BC00F0B9F8000008480047B1
:10017000FEE7FEE7FEE7FEE7FEE7FEE7FEE7FEE757
:10018000FEE7FEE703480449024A044B70470000BB
:10019000CD00000068000010680200106800001028
:1001A0003D48006840F002003C49C1F8C4000846E0
:1001B000D0F8A80140F00400394908604FF002006F
:1001C0004FF0402188613748C8600846406940F0D8
:1001D000010048610846406940F002004861084655
:1001E000406840F00200486000BF4FF00100002866
:1001F00006DA4FEAC0002C4A6FF00201505407E0C3
:100200004FF001004FEAC00028494FF00102885426
:1002100000BF4FF04020406820F002004FF0402126
:10022000486000BF4FF0010000FA00F04FF00101FC
:100230004FEA51114FF0E02202EB8101C1F80001B9
:1002400000BF4FF04020406840F001004FF04021D7
:1002500048601148006840F400401049C1F8C400EB
:100260001348006A40F000501149086200BFFEE7E1
:100270004FF04020006840F001004FF0402108603E
:100280000B48406B80F000500949486309480068FA
:10029000401C084908607047C4C00F4000C00F40B0
:1002A000A8C10F40FF1AB70018ED00E000E400E01D
:1002B00000C00920000000107047704770470446D6
:1002C000AFF300802046FFF74AFF00000048704768
:1002D0000400001000487047080000100149182071
:1002E000ABBEFEE726000200704710B5FFF7F2FF35
:1002F0004FF00001016010BD00000000FFFFFFFF94
:100300007546FFF7E3FFAE4605006946534620F009
:100310000700854618B020B5FFF734FFBDE8204040
:100320004FF000064FF000074FF000084FF0000BB1
:1003300021F00701AC46ACE8C009ACE8C009ACE864
:10034000C009ACE8C0098D46704700006C0300008E
:10035000000000100400000008010000700300000D
:1003600004000010640200002401000000000000EE
:04000005000000CD2A
:00000001FF
