:100000000C9446000C9465000C9465000C946500FB
:100010000C9465000C9465000C9465000C946500CC
:100020000C9465000C9465000C9465000C946500BC
:100030000C9465000C9465000C9465000C946500AC
:100040000C947D130C9465000C9465000C94650071
:100050000C9465000C9465000C9465000C9465008C
:100060000C9465000C9465000C9465000C9465007C
:100070000C9465000C9465000C9465000C9465006C
:100080000C9465000C9465000C94650011241FBE4F
:10009000CFEFD0E1DEBFCDBF12E0A0E0B1E0ECE2F7
:1000A000FEE200E00BBF02C007900D92A031B10745
:1000B000D9F715E0A0E1B2E001C01D92A537B10764
:1000C000E1F70E9467000C9415170C940000CF9381
:1000D000DF93CDB7DEB7E7E2F0E080E48083E6E2CD
:1000E000F0E087E88083E9E2F0E087E68083EBE2F6
:1000F000F0E01082EAE2F0E088E18083E5E9F0E0F8
:1001000086E080830E94D0028FE892E0EFE9F0E081
:1001100024E0AC016FEF70E0CF010E94A90E85E2F0
:1001200093E0E2EEF0E025E0AC016FEF70E0CF018C
:100130000E94A90E0E94A103DF91CF910895CF9351
:10014000DF93CDB7DEB7A6E2B0E0E6E2F0E0808173
:1001500080648C93E6E2F0E08081882F90E08074E8
:1001600090700097B9F7E4E2F0E08081282F30E04A
:10017000E5E2F0E08081882F90E0982F8827822B9D
:10018000932B9093A5028093A4028091A402909156
:10019000A5029F938F9380E091E09F938F9380E9D6
:1001A00092E09F938F930E94E0138DB79EB70696BF
:1001B0000FB6F8949EBF0FBE8DBF8DE390E00E94F6
:1001C0008211C1CFCF93DF93CDB7DEB722970FB6A1
:1001D000F894DEBF0FBECDBF1A8219821BC0ACE2FD
:1001E000B0E089819A81FC01E057FD4F80818C93BA
:1001F000EBE2F0E08081882F90E0807290700097B1
:10020000B9F38DE390E00E94821189819A81019671
:100210009A83898389819A81FC01E057FD4F80810F
:100220008823E9F6D9CFCF93DF93CDB7DEB72C97EC
:100230000FB6F894DEBF0FBECDBF9E838D83788747
:100240006F835A8749873C872B8789859A859C834A
:100250008B838D819E819A8389838981EB81FC8147
:1002600080838B819C8101979C838B8389819A8178
:10027000892F9927EB81FC8180838B819C81019759
:100280009C838B83EB81FC8110828B819C81019705
:100290009C838B83EB81FC8110828B819C810197F5
:1002A0009C838B83EB81FC8110828B819C810197E5
:1002B0009C838B83EB81FC8110828B819C810197D5
:1002C0009C838B83EB81FC8110828B819C810197C5
:1002D0009C838B83EB81FC8110828B819C810197B5
:1002E0009C838B83EB81FC8110828B819C810197A5
:1002F0009C838B83EB81FC8110828B819C81019795
:100300009C838B83EB81FC8110828B819C81019784
:100310009C838B83EB81FC8110828B819C81019774
:100320009C838B83EB81FC8110828B819C81019764
:100330009C838B83EB81FC8110828B819C81019754
:100340009C838B83EB81FC8110828B819C81019744
:100350009C838B83EB81FC8110828B819C81019734
:100360009C838B83EB81FC8110828B819C81019724
:100370009C838B83EB81FC8110828B819C81019714
:100380009C838B83EB81FC8110828B819C81019704
:100390009C838B83EB81FC8110828B819C810197F4
:1003A0009C838B83EB81FC8110828B819C810197E4
:1003B0009C838B83EB81FC8110828B819C810197D4
:1003C0009C838B83EB81FC8110828B819C810197C4
:1003D0009C838B83EB81FC8110828B819C810197B4
:1003E0009C838B83EB81FC8110828B819C810197A4
:1003F0009C838B83EB81FC8110828B819C81019794
:100400009C838B838F8198859A8389838981EB81F3
:10041000FC8180838B819C8101979C838B83898164
:100420009A81892F9927EB81FC8180838B819C8124
:1004300001979C838B83EB81FC8110828B819C8153
:1004400001979C838B83EB81FC8110828B819C8143
:1004500001979C838B83EB81FC8110828B819C8133
:1004600001979C838B83EB81FC8110828B819C8123
:1004700001979C838B83EB81FC8110828B819C8113
:1004800001979C838B83EB81FC8110828B819C8103
:1004900001979C838B83EB81FC8110828B819C81F3
:1004A00001979C838B83EB81FC8180E880838B8127
:1004B0009C8101979C838B838B819C812C960FB6AA
:1004C000F894DEBF0FBECDBFDF91CF910895CF93DB
:1004D000DF93CDB7DEB722970FB6F894DEBF0FBE1D
:1004E000CDBF9A83898322960FB6F894DEBF0FBEE4
:1004F000CDBFDF91CF910895CF93DF93CDB7DEB716
:1005000022970FB6F894DEBF0FBECDBF9A838983C2
:1005100022960FB6F894DEBF0FBECDBFDF91CF910C
:100520000895CF93DF93CDB7DEB7DF91CF910895D4
:10053000CF93DF93CDB7DEB7DF91CF910895CF93FF
:10054000DF93CDB7DEB7DF91CF910895CF93DF93DF
:10055000CDB7DEB7DF91CF910895CF93DF93CDB7BD
:10056000DEB7DF91CF910895CF93DF93CDB7DEB79C
:10057000DF91CF910895CF93DF93CDB7DEB7229768
:100580000FB6F894DEBF0FBECDBF9A838983229643
:100590000FB6F894DEBF0FBECDBFDF91CF910895A7
:1005A000CF93DF93CDB7DEB70E94A6020E94AB06C1
:1005B0000E94CA060E9428070E9463060E94040740
:1005C0000E9416070E94AD02DF91CF910895CF934C
:1005D000DF93CDB7DEB780912703813049F4809156
:1005E000C4038F3F29F08091C4038F5F8093C403BD
:1005F000DF91CF910895CF93DF93CDB7DEB7809190
:100600002703813009F060C0F8948091C4038823E7
:1006100029F08091C40381508093C4038091C40366
:10062000882309F050C080912603882309F04BC02D
:100630008091BE03882F90E0FC01E05FFE4F808137
:100640008093C3038091C303282F220F220F220F10
:100650008091C303882F90E0FC01E154FC4F80811E
:10066000882F90E0FC01E05FFE4F8081820F809335
:100670002C0390912C0380912D03981721F18091E8
:100680002C03882F90E0880F991FFC01E95AFA4F3C
:10069000808191819093BD038093BC038091B003CE
:1006A0009091B103A091B203B091B3030196A11D43
:1006B000B11D8093B0039093B103A093B203B093A4
:1006C000B3030E9446137894DF91CF910895CF939E
:1006D000DF93CDB7DEB780912703813059F4F894CA
:1006E000809126038F3F29F0809126038F5F8093AE
:1006F00026037894DF91CF910895CF93DF93CDB700
:10070000DEB7809127038130C9F4F89480912603E5
:10071000882399F08091260381508093260380914D
:100720002603882341F48091C403882321F478941C
:100730000E947B0703C0789401C07894DF91CF9129
:100740000895CF93DF93CDB7DEB722970FB6F89415
:10075000DEBF0FBECDBF809127038823E9F58091CE
:10076000BE03882F90E0FC01E05FFE4F80818A830A
:100770008A81882F90E0FC01E154FC4F8081882F12
:1007800090E0FC01E05FFE4F808189838A81982F91
:10079000990F990F990F8981890F80932C0380916C
:1007A0002C0380932D0380912C03882F90E0880FD9
:1007B000991FFC01E95AFA4F808191819093BD0302
:1007C0008093BC038091BC039091BD039093C603BA
:1007D0008093C5030E94AF1222960FB6F894DEBF35
:1007E0000FBECDBFDF91CF910895CF93DF93CDB7EB
:1007F000DEB782E090E00E948211F8941092280304
:100800001092290310922A0310922B0378948DE3FF
:1008100090E00E948211F89480912803909129031E
:10082000A0912A03B0912B038093B4039093B50356
:10083000A093B603B093B70381E0809356057894F4
:10084000DF91CF910895CF93DF93CDB7DEB7229795
:100850000FB6F894DEBF0FBECDBF0E949F028091FD
:100860002703813009F058C080912E0390912F0307
:100870009A8389834BC0F894E981FA8182859385B4
:100880000097E9F1E981FA81828593850197E981F1
:10089000FA8193878287E981FA818285938500971F
:1008A00071F5E981FA818485882F90E088709070D5
:1008B0000097F9F4E981FA8191898091BE03892B2F
:1008C0008093BE03E981FA818785282F30E0E98192
:1008D000FA818785882F90E0FC01E154FC4F9081DC
:1008E000E981FA818089892BF901E154FC4F8083E9
:1008F00006C0E981FA8181E090E093878287E981EF
:10090000FA81828193819A8389837894E981FA813B
:1009100085858C3009F0AFCF22960FB6F894DEBFF4
:100920000FBECDBFDF91CF910895CF93DF93CDB7A9
:10093000DEB78CEF90E0DF91CF910895CF93DF93F6
:10094000CDB7DEB7DF91CF910895CF93DF93CDB7C9
:10095000DEB72C970FB6F894DEBF0FBECDBF9987D8
:1009600088877B876A874C87E885F9858181882F0E
:1009700090E0FC01E05FFE4F80818C838C81882FAA
:1009800090E0FC01E85FFE4F80818A838C81282FF4
:1009900030E088859985820F931FFC01369680810F
:1009A000882F90E0FC01E05FFE4F80818D838D8178
:1009B000882F90E0FC01E85FFE4F80818B838C8163
:1009C000982F990F990F990F8D81890F89838C81A9
:1009D000482F50E08C81282F30E088859985820F40
:1009E000931FFC0136968081982F8B8180958923F7
:1009F000282F88859985840F951FFC0136962083C2
:100A000088859985840F951FFC01369680818823FF
:100A100051F4E885F9858181982F8A818095892311
:100A2000E885F98581838981882F90E0880F991F57
:100A3000FC01E95AFA4F808191819F838E83EE8178
:100A4000FF8113861286EE81FF8117821682EE8166
:100A5000FF818A859B8591878087EE81FF818485D0
:100A6000982F8C8580958923EE81FF818487EE8184
:100A7000FF8184858823B1F49091BE038A81892BFC
:100A80008093BE038C81282F30E08C81882F90E0EA
:100A9000FC01E154FC4F90818B81892BF901E154D9
:100AA000FC4F80838981882F90E02C960FB6F894B4
:100AB000DEBF0FBECDBFDF91CF910895CF93DF93FF
:100AC000CDB7DEB722970FB6F894DEBF0FBECDBF0D
:100AD0009A838983E091C503F091C60389819A8145
:100AE00097838683E091C503F091C6038785282FFD
:100AF00030E0E091C503F091C6038785882F90E030
:100B0000FC01E154FC4F8081982FE091C503F091E6
:100B1000C603808980958923F901E154FC4F8083C5
:100B2000F901E154FC4F8081882361F4E091C50311
:100B3000F091C6038189982F90958091BE038923F7
:100B40008093BE03E091C503F091C6038785482FCB
:100B500050E0E091C503F091C6038785282F30E06F
:100B600089819A81820F931FFC0136969081E091D2
:100B7000C503F091C6038089292F282B89819A818A
:100B8000840F951FFC0136962083E981FA819181BB
:100B9000E091C503F091C6038189892BE981FA812F
:100BA000818322960FB6F894DEBF0FBECDBFDF91D2
:100BB000CF910895CF93DF93CDB7DEB722970FB6CD
:100BC000F894DEBF0FBECDBF9A838983E091C50341
:100BD000F091C6038785482F50E0E091C503F0915E
:100BE000C6038785282F30E089819A81820F931F61
:100BF000FC0136968081982FE091C503F091C603E1
:100C0000808980958923282F89819A81840F951F57
:100C1000FC013696208389819A81840F951FFC01FF
:100C200036968081882371F4E981FA818181982F39
:100C3000E091C503F091C603818980958923E981FC
:100C4000FA818183E091C503F091C6031486E09197
:100C5000C503F091C6031782168222960FB6F89448
:100C6000DEBF0FBECDBFDF91CF910895CF93DF934D
:100C7000CDB7DEB724970FB6F894DEBF0FBECDBF59
:100C80009C838B83EB81FC8111828B819C810696F6
:100C90009A838983E981FA81108289819A810196F8
:100CA0009A838983E981FA81108289819A810196E8
:100CB0009A83898324960FB6F894DEBF0FBECDBF0A
:100CC000DF91CF910895CF93DF93CDB7DEB726970D
:100CD0000FB6F894DEBF0FBECDBF87E494E09C83CF
:100CE0008B838FE494E09A8389831E821D8218C0CF
:100CF000EB81FC811082EB81FC8189819A81958353
:100D000084838B819C8108969C838B8389819A81C3
:100D100008969A8389838D819E8101969E838D8317
:100D20008D819E818230910518F3EB81FC811082C8
:100D3000EB81FC811582148287E494E09093C203D6
:100D40008093C10326960FB6F894DEBF0FBECDBFC9
:100D5000DF91CF910895CF93DF93CDB7DEB7109297
:100D6000C403109226031092BB0310922703109223
:100D7000B0031092B1031092B2031092B303109219
:100D800028031092290310922A0310922B03DF915B
:100D9000CF910895CF93DF93CDB7DEB724970FB6E9
:100DA000F894DEBF0FBECDBF1092BE038FEB93E071
:100DB0009A8389831C821B820DC0E981FA8110828B
:100DC00089819A8101969A8389838B819C8101967E
:100DD0009C838B838B819C818230910570F3109270
:100DE0002D0310922C031092BD031092BC0310929D
:100DF000C6031092C50324960FB6F894DEBF0FBE4B
:100E0000CDBFDF91CF910895CF93DF93CDB7DEB7FC
:100E100086E494E0E2EEF7E02CE0AC0160E070E004
:100E2000CF010E94A90EDF91CF910895CF93DF9358
:100E3000CDB7DEB78FEA93E0E6E0F8E02BE0AC0157
:100E400060E070E0CF010E94A90EDF91CF9108957C
:100E5000CF93DF93CDB7DEB725970FB6F894DEBFFB
:100E60000FBECDBF10922F0310922E031D820DC016
:100E70008D81882F90E0880F991FFC01E95AFA4F65
:100E8000118210828D818F5F8D838D818D3080F3F3
:100E90008FE594E09C838B8382E794E09A83898337
:100EA0001D8213C0EB81FC8189819A8193838283A7
:100EB0008B819C8143969C838B8389819A81439605
:100EC0009A8389838D818F5F8D838D818C3050F3E0
:100ED000EB81FC81138212828FE594E09093B90339
:100EE0008093B80325960FB6F894DEBF0FBECDBF32
:100EF000DF91CF910895CF93DF93CDB7DEB72197E0
:100F00000FB6F894DEBF0FBECDBFF8948091C40336
:100F1000882309F04DC080912603882309F048C03A
:100F20008091BE03882F90E0FC01E05FFE4F80813E
:100F300089838981282F220F220F220F8981882FF0
:100F400090E0FC01E154FC4F8081882F90E0FC018F
:100F5000E05FFE4F8081820F80932C0390912C03E1
:100F600080912D03981721F180912C03882F90E018
:100F7000880F991FFC01E95AFA4F80819181909363
:100F8000BD038093BC038091B0039091B103A09105
:100F9000B203B091B3030196A11DB11D8093B003BC
:100FA0009093B103A093B203B093B3030E94E312F2
:100FB000789421960FB6F894DEBF0FBECDBFDF91B7
:100FC000CF910895CF93DF93CDB7DEB722970FB6B9
:100FD000F894DEBF0FBECDBF9A838983F8948091C9
:100FE000280390912903A0912A03B0912B03019625
:100FF000A11DB11D8093280390932903A0932A0378
:10100000B0932B0378940E94B402E8CFCF93DF9380
:10101000CDB7DEB72B970FB6F894DEBF0FBECDBFAE
:101020009B878A8704C08AE790E00E9482118091A2
:1010300056058823C1F38091B4039091B503A09124
:10104000B603B091B70324E630E040E050E0BC01C5
:10105000CD010E94BC16DA01C9018A839B83AC834F
:10106000BD83F8948091280390912903A0912A03CD
:10107000B0912B038093710590937205A093730533
:10108000B09374058091280390912903A0912A03BD
:10109000B0912B038E839F83A887B9871092280372
:1010A0001092290310922A0310922B0378948A81BC
:1010B0009B81AC81BD810097A105B105E1F08E81D6
:1010C0009F81A885B9852A813B814C815D81BC01C6
:1010D000CD010E94BC16DA01C901982F84E6891B54
:1010E00089838981882324F089818093BA031BC076
:1010F0001092BA0318C01092BA038091B403909171
:10110000B503A091B603B091B70324E630E040E008
:1011100050E0BC01CD010E94BC16DA01C9018A83EE
:101120009B83AC83BD830E9498028DE390E00E9474
:10113000821197CFAF92BF92CF92DF92EF92FF9240
:101140000F931F93CF93DF93CDB7DEB763970FB69F
:10115000F894DEBF0FBECDBF8B837D836C835F832E
:101160004E8339872887EA86FB860C871D87DF86B2
:10117000CE86B98AA88AF8948091B8039091B90371
:101180009A83898389819A81009709F4A0C0E981B3
:10119000FA81828193819093B9038093B803789404
:1011A000E981FA818C819D8191838083E981FA8133
:1011B0008B818587E981FA811486E981FA8113861A
:1011C0001286E981FA81128A8B81869586958695A9
:1011D000E981FA818787E981FA818785882F90E004
:1011E000FC01E85FFE4F8081E981FA81818B8B8170
:1011F0008770E981FA818687E981FA818685882F5F
:1012000090E0FC01E85FFE4F8081E981FA81808BEC
:10121000E981FA8117821682E981FA8111861086A6
:1012200089819A810E94BB0289819A810E9467020A
:10123000F8948B81882F90E0880F991FFC01E95A60
:10124000FA4F89819A819183808380912E039091B6
:101250002F03E981FA8193838283E981FA811582E0
:10126000148280912E0390912F03009741F0E0911A
:101270002E03F0912F0389819A819583848389813C
:101280009A8190932F0380932E03E981FA819189AB
:101290008091BE03892B8093BE03E981FA81878503
:1012A000282F30E0E981FA818785882F90E0FC01C2
:1012B000E154FC4F9081E981FA818089892BF90101
:1012C000E154FC4F808378941B8A1A8A05C0789475
:1012D00086E490E09B8B8A8B8A899B8963960FB604
:1012E000F894DEBF0FBECDBFDF91CF911F910F915C
:1012F000FF90EF90DF90CF90BF90AF900895CF9385
:10130000DF93CDB7DEB726970FB6F894DEBF0FBEDA
:10131000CDBF9C838B838091C403882319F01E82E8
:101320001D8232C0F8948091C1039091C2039A83C8
:1013300089838091C1039091C203009751F0E0919D
:10134000C103F091C203848195819093C20380937D
:10135000C103789489819A81009791F0E981FA819B
:1013600081E08083E981FA8113821282E981FA8126
:101370008B819C819583848389819A810E94360622
:1013800089819A819E838D838D819E8126960FB659
:10139000F894DEBF0FBECDBFDF91CF910895CF93FC
:1013A000DF93CDB7DEB72A970FB6F894DEBF0FBE36
:1013B000CDBF9C838B837E836D8358874F838091C1
:1013C000C403882339F0EF81F88582E080831A8690
:1013D000198665C0F894EB81FC81848195819A839C
:1013E000898389819A81009769F0EB81FC8115825C
:1013F00014827894EF81F885108289819A819A8786
:1014000089874DC0A091C503B091C603E091C50383
:10141000F091C60384858260FD018487E091C50355
:10142000F091C6038D819E81938782878B819C81F9
:101430000E945E0578940E947B07F894E091C503B2
:10144000F091C603808591859A83898389819A81E9
:101450000097D1F0E091C503F091C6031186108684
:10146000E091C503F091C6031486E091C503F091A5
:10147000C603178216827894EF81F88510828981DD
:101480009A819A8789870BC08B819C810E94DA059B
:101490007894EF81F8858AE080831A861986898599
:1014A0009A852A960FB6F894DEBF0FBECDBFDF91A6
:1014B000CF910895CF93DF93CDB7DEB726970FB6C0
:1014C000F894DEBF0FBECDBF9A8389837C836B8384
:1014D000F894E981FA818181882379F08B819C815C
:1014E00029813A8142E0BC01C9010E94A504789497
:1014F0000E947B071E821D8215C0E981FA818481CA
:101500009581009731F0789484E190E09E838D83FB
:1015100009C0E981FA818B819C81958384837894C9
:101520001E821D828D819E8126960FB6F894DEBFA5
:101530000FBECDBFDF91CF910895CF93DF93CDB78D
:10154000DEB727970FB6F894DEBF0FBECDBF8B83F3
:101550007D836C838091C403882339F0EC81FD8105
:101560008DE880831F821E8267C0F8948B81882F4C
:1015700090E0880F991FFC01E95AFA4F8081918110
:10158000009741F07894EC81FD8188E280831F828E
:101590001E8252C08B81882F90E0880F991FFC011A
:1015A000E95AFA4F81E090E0918380838091C103F2
:1015B0009091C2039A83898389819A810097A1F4CB
:1015C0008B81882F90E0880F991FFC01E95AFA4F10
:1015D000118210827894EC81FD8184E0808389817E
:1015E0009A819F838E8328C0E091C103F091C2034A
:1015F000848195819093C2038093C1037894E9819B
:10160000FA8184E080838B81882F90E0982F88274F
:101610008F6FE981FA8193838283E981FA81158250
:10162000148289819A810E943606EC81FD811082A4
:1016300089819A819F838E838E819F8127960FB6A1
:10164000F894DEBF0FBECDBFDF91CF910895CF9349
:10165000DF93CDB7DEB72B970FB6F894DEBF0FBE82
:10166000CDBF9F838E83798768875B874A87809108
:10167000C403882329F0EA85FB8582E080831FC1AB
:10168000F894EE81FF81828193818F3F39F5EE815D
:10169000FF81828193818070EE81FF8193838283B9
:1016A000EE81FF8122813381E091C503F091C60371
:1016B0008585882F90E0822B932BEE81FF81938389
:1016C00082838091C5039091C603EE81FF8195834B
:1016D00084837894EA85FB851082F1C0EE81FF81D6
:1016E00082819381892F99278D83EE81FF81828169
:1016F00093818C83EE81FF81848195819A83898394
:10170000E981FA8195858D81981709F49DC0E09152
:10171000C503F091C60395858C81981708F094C095
:10172000E981FA818785882F90E0FC01E154FC4F24
:101730009081E981FA8180898923882359F1E9819F
:10174000FA818785282F30E0E981FA818785882F03
:1017500090E0FC01E154FC4F8081982FE981FA81EF
:10176000808980958923F901E154FC4F8083F90138
:10177000E154FC4F8081882351F4E981FA81818909
:10178000982F90958091BE0389238093BE0381E0BA
:101790008B8301C01B82E981FA818D818587E98174
:1017A000FA818585869586958695E981FA81878770
:1017B000E981FA818785882F90E0FC01E85FFE4F80
:1017C0008081E981FA81818BE981FA818585877041
:1017D000E981FA818687E981FA818685882F90E000
:1017E000FC01E85FFE4F8081E981FA81808B8B816B
:1017F0008130F1F4E981FA8191898091BE03892BCE
:101800008093BE03E981FA818785282F30E0E98142
:10181000FA818785882F90E0FC01E154FC4F90818C
:10182000E981FA818089892BF901E154FC4F808399
:101830008D81882F90E0880F991FFC01E95AFA4F9B
:1018400089819A8191838083A091C503B091C60359
:10185000E091C503F091C60384858061FD01848712
:10186000E091C503F091C6038885998593878287A7
:101870008E819F810E945E0578940E947B07F89478
:10188000E091C503F091C6038485882F90E08071B4
:101890009070009751F08E819F810E94DA057894B4
:1018A000EA85FB858AE080830AC0E091C503F09158
:1018B000C603178216827894EA85FB8510822B96E0
:1018C0000FB6F894DEBF0FBECDBFDF91CF91089564
:1018D000CF93DF93CDB7DEB726970FB6F894DEBF70
:1018E0000FBECDBF9C838B838091C403882329F0D6
:1018F00085E090E09E838D831BC1F894EB81FC8191
:1019000082819381892F99278A83EB81FC8182814F
:1019100093818983E091C503F091C60395858A81FF
:10192000981771F0E091C503F091C6039585898100
:10193000981731F07894E8E7F0E0FE83ED83F8C083
:10194000E091C503F091C60395858A81981709F047
:101950009CC0E091C503F091C6038785282F30E035
:10196000E091C503F091C6038785882F90E0FC01C4
:10197000E154FC4F8081982FE091C503F091C6039C
:10198000808980958923F901E154FC4F8083F90116
:10199000E154FC4F8081882361F4E091C503F0910C
:1019A000C6038189982F90958091BE0389238093E7
:1019B000BE03E091C503F091C60389818587E0915C
:1019C000C503F091C603898186958695869587879C
:1019D000A091C503B091C603E091C503F091C60381
:1019E0008785882F90E0FC01E85FFE4F8081FD0134
:1019F000818BE091C503F091C6038981877086874A
:101A0000A091C503B091C603E091C503F091C60350
:101A10008685882F90E0FC01E85FFE4F8081FD0104
:101A2000808BE091C503F091C60391898091BE033C
:101A3000892B8093BE03E091C503F091C60387858F
:101A4000282F30E0E091C503F091C6038785882FE9
:101A500090E0FC01E154FC4F9081E091C503F091CE
:101A6000C6038089892BF901E154FC4F8083898169
:101A7000882F90E02091C5033091C603880F991FED
:101A8000FC01E95AFA4F318320838A81882F90E044
:101A9000880F991FFC01E95AFA4F81E090E0918389
:101AA0008083EB81FC818181882391F18B819C81F2
:101AB00040E160E070E00E94A5048983EB81FC8135
:101AC000828193818070EB81FC8193838283EB819F
:101AD000FC81228133818981882F90E0822B932B96
:101AE000EB81FC81938382838981882F90E0880F2A
:101AF000991FFC01E95AFA4F80819181EB81FC81A9
:101B00009583848378940E947B071E821D8210C077
:101B1000EB81FC81828193818F6FEB81FC819383C8
:101B20008283EB81FC811582148278941E821D824F
:101B30008D819E8126960FB6F894DEBF0FBECDBF75
:101B4000DF91CF910895CF93DF93CDB7DEB726977E
:101B50000FB6F894DEBF0FBECDBF9C838B83809100
:101B6000C403882319F01E821D8232C0F89480912C
:101B7000C1039091C2039A8389838091C10390919C
:101B8000C203009751F0E091C103F091C203848138
:101B900095819093C2038093C103789489819A813F
:101BA000009791F0E981FA8183E08083E981FA81ED
:101BB0008B819C8193838283E981FA8115821482CF
:101BC00089819A810E94360689819A819E838D83BC
:101BD0008D819E8126960FB6F894DEBF0FBECDBFD5
:101BE000DF91CF910895CF93DF93CDB7DEB72697DE
:101BF0000FB6F894DEBF0FBECDBF9A8389837C8376
:101C00006B835E834D838091C403882329F0ED812B
:101C1000FE8182E0808350C0F894E981FA8182815C
:101C20009381009771F0E981FA8182819381019714
:101C3000E981FA81938382837894ED81FE81108219
:101C40003BC0A091C503B091C603E091C503F091DC
:101C5000C60384858160FD018487E091C503F0910E
:101C6000C6038B819C819387828789819A810E9498
:101C70005E0578940E947B07F894E091C503F0918B
:101C8000C6038485882F90E081709070882351F07E
:101C900089819A810E94DA057894ED81FE818AE03B
:101CA00080830AC0E091C503F091C60317821682B3
:101CB0007894ED81FE81108226960FB6F894DEBFEF
:101CC0000FBECDBFDF91CF910895CF93DF93CDB7F6
:101CD000DEB724970FB6F894DEBF0FBECDBF9A8350
:101CE0008983F894E981FA818181882369F0898167
:101CF0009A8141E060E070E00E94A50478940E941F
:101D00007B071C821B821AC0E981FA818281938140
:101D10002FEF8F3F920769F0E981FA8182819381E9
:101D20000196E981FA819383828378941C821B82D5
:101D300005C0789482E390E09C838B838B819C81A7
:101D400024960FB6F894DEBF0FBECDBFDF91CF91C2
:101D50000895AF92BF92CF92DF92EF92FF920F93CE
:101D60001F93CF93DF93CDB7DEB72C970FB6F894C0
:101D7000DEBF0FBECDBF9D838C837F836E8359876B
:101D800048872A87F8948A85882F90E0880F991FC2
:101D9000FC01E95AFA4F80819181009709F050C007
:101DA0008A85882F90E0880F991FFC01E95AFA4F25
:101DB00081E090E0918380837894888599856E8115
:101DC0007F81EC81FD8120E030E0AC01CF010E94F9
:101DD00013019B838A838A819B81AA24BB24CC2400
:101DE000DD24EE24FF24870120E030E040E050E0D5
:101DF000BC018A850E949A0889838981882371F4AD
:101E0000F8948091BB038F5F8093BB03789480919B
:101E10002703813079F40E947B070CC0F8948A85EF
:101E2000882F90E0880F991FFC01E95AFA4F118220
:101E3000108278948981282F30E03C872B8705C059
:101E4000789488E290E09C878B878B859C852C9684
:101E50000FB6F894DEBF0FBECDBFDF91CF911F91BB
:101E60000F91FF90EF90DF90CF90BF90AF900895CB
:101E7000CF93DF93CDB7DEB728970FB6F894DEBFC8
:101E80000FBECDBF8E838091C403882329F08FE3DA
:101E900090E098878F83F6C0F8948E818F3F31F45D
:101EA000E091C503F091C60385858E838E81882FCE
:101EB00090E0880F991FFC01E95AFA4F80819181C7
:101EC0009B838A838A819B81009709F4D6C0EA812B
:101ED000FB818785282F30E0EA81FB818785882F69
:101EE00090E0FC01E154FC4F8081982FEA81FB8156
:101EF000808980958923F901E154FC4F8083F901A1
:101F0000E154FC4F8081882351F4EA81FB8181896F
:101F1000982F90958091BE0389238093BE03EA8118
:101F2000FB81868197819D838C838C819D81009725
:101F3000A1F1EA81FB818785482F50E0EA81FB818E
:101F40008785282F30E08C819D81820F931FFC01B3
:101F500036968081982FEA81FB818089809589233C
:101F6000282F8C819D81840F951FFC01369620833C
:101F70008C819D81840F951FFC013696808188237A
:101F800061F4EC81FD818181982FEA81FB81818957
:101F900080958923EC81FD818183EA81FB81138611
:101FA0001286EA81FB811486809126038F3F29F0F7
:101FB000809126038F5F8093260378940E949E046D
:101FC000F89480912603882329F08091260381507C
:101FD000809326038A819B810E947C028091BB03AF
:101FE00081508093BB038E81882F90E0880F991FCA
:101FF000FC01E95AFA4F11821082EA81FB81848147
:102000009581009781F4EA81FB810280F381E02DC4
:1020100015821482EA81FB818281938190932F0340
:1020200080932E0316C0EA81FB81A481B581EA81E9
:10203000FB8182819381FD0193838283EA81FB810D
:10204000A281B381EA81FB8184819581FD01958321
:1020500084838091B8039091B903EA81FB819383D3
:1020600082838A819B819093B9038093B80378948B
:102070000E947B0718861F8205C078948CE390E04D
:1020800098878F838F81988528960FB6F894DEBF46
:102090000FBECDBFDF91CF910895CF93DF93CDB722
:1020A000DEB727970FB6F894DEBF0FBECDBF8D8386
:1020B0008D818F3F71F4F894E091C503F091C603D0
:1020C00082898C8378948C81282F30E03F832E8303
:1020D0001FC0F8948D81882F90E0880F991FFC0114
:1020E000E95AFA4F808191819A83898389819A8103
:1020F000009731F0E981FA818EE3828B1B8202C066
:102100008BE08B8378948B81282F30E03F832E8364
:102110008E819F8127960FB6F894DEBF0FBECDBF8C
:10212000DF91CF910895CF93DF93CDB7DEB7259799
:102130000FB6F894DEBF0FBECDBF8B83F8948B81B2
:10214000882F90E0880F991FFC01E95AFA4F80818F
:1021500091819A83898389819A81009731F4789457
:1021600084E690E09D838C8346C0E981FA81848572
:10217000882F90E0887090700097C1F1E981FA8112
:102180008485877FE981FA818487E981FA81848562
:10219000882341F5E981FA8182859385009711F5BD
:1021A000E981FA8191898091BE03892B8093BE03D6
:1021B000E981FA818785282F30E0E981FA818785D6
:1021C000882F90E0FC01E154FC4F9081E981FA8175
:1021D0008089892BF901E154FC4F808378940E9417
:1021E0007B0701C078941D821C8205C0789485E627
:1021F00090E09D838C838C819D8125960FB6F89409
:10220000DEBF0FBECDBFDF91CF910895CF93DF9397
:10221000CDB7DEB726970FB6F894DEBF0FBECDBFA1
:102220008C83F8948C818F3F49F4E091C503F09141
:10223000C60385858C8381E08B830CC0E091C50348
:10224000F091C60395858C81981719F481E08B83F2
:1022500001C01B828C81882F90E0880F991FFC01A0
:10226000E95AFA4F808191819A83898389819A8181
:10227000009731F478948AE590E09E838D8337C08F
:10228000E981FA818785282F30E0E981FA81878505
:10229000882F90E0FC01E154FC4F8081982FE98168
:1022A000FA81808980958923F901E154FC4F80836C
:1022B000F901E154FC4F8081882351F4E981FA81CE
:1022C0008189982F90958091BE0389238093BE03C6
:1022D000E981FA8184858860E981FA81848778942C
:1022E0008B81813011F40E947B071E821D828D81BB
:1022F0009E8126960FB6F894DEBF0FBECDBFDF914C
:10230000CF910895CF93DF93CDB7DEB722970FB665
:10231000F894DEBF0FBECDBF9A83898389819A81ED
:10232000009709F43CC0F894E091C503F091C6030E
:102330008785282F30E0E091C503F091C60387859B
:10234000882F90E0FC01E154FC4F8081982FE091B0
:10235000C503F091C603808980958923F901E15472
:10236000FC4F8083F901E154FC4F8081882361F4A4
:10237000E091C503F091C6038189982F90958091D3
:10238000BE0389238093BE03E091C503F091C60389
:1023900089819A819387828778940E947B0722960D
:1023A0000FB6F894DEBF0FBECDBFDF91CF91089579
:1023B000EF92FF920F931F93CF93DF93CDB7DEB7CA
:1023C0002D970FB6F894DEBF0FBECDBF8F83688701
:1023D00049873B872A878F81882359F488858823FA
:1023E00041F48985882329F48A859B85009709F41F
:1023F000A3C088858C3328F081E590E09D878C8789
:102400009FC089858C3328F082E590E09D878C877A
:1024100097C08A859B8523E0883E920728F083E554
:1024200090E09D878C878CC08F81882F90E0A0E002
:10243000B0E020E13EE040E050E0BC01CD010E9470
:102440009D167B018C018885882F90E0A0E0B0E08C
:102450002CE330E040E050E0BC01CD010E949D162D
:10246000DC01CB01A8019701280F391F4A1F5B1F10
:102470008985882F90E0A0E0B0E0820F931FA41F11
:10248000B51F2DE330E040E050E0BC01CD010E94DB
:102490009D167B018C018A859B85CC01A0E0B0E074
:1024A0002DE330E040E050E0BC01CD010E949D16DC
:1024B000DC01CB0188519E4FAF4FBF4F28EE33E078
:1024C00040E050E0BC01CD010E94BC16DA01C90118
:1024D0008E0D9F1DA01FB11F8B839C83AD83BE8378
:1024E0008B819C81AD81BE81CD01AA27BB279A83B8
:1024F00089838B819C81AD81BE81A070B0708B83FC
:102500009C83AD83BE838B819C810E9482110DC010
:1025100080E090E80E94821180E090E80E948211A1
:1025200089819A8101979A83898389819A81009709
:1025300079F71D861C8604C084E590E09D878C8712
:102540008C859D852D960FB6F894DEBF0FBECDBF4E
:10255000DF91CF911F910F91FF90EF9008950E940E
:10256000910200912703039500932703E091BC0398
:10257000F091BD03C191CDBFD191DEBF0F910FBFCF
:102580000F910BBFFF91EF91DF91CF91BF91AF9171
:102590009F918F917F916F915F914F913F912F917B
:1025A0001F910F91FF90EF90DF90CF90BF90AF9071
:1025B0009F908F907F906F905F904F903F902F9063
:1025C0001F900F9008950F921F922F923F924F925B
:1025D0005F926F927F928F929F92AF92BF92CF92B3
:1025E000DF92EF92FF920F931F932F933F934F939E
:1025F0005F936F937F938F939F93AF93BF93CF938B
:10260000DF93EF93FF930BB70F930FB70F93E09107
:10261000C503F091C603CDB7C193DEB7D1930E9435
:10262000910200912C0300932D03E091BC03F091E3
:10263000BD03E093C503F093C603C191CDBFD19113
:10264000DEBF0F910FBF0F910BBFFF91EF91DF9195
:10265000CF91BF91AF919F918F917F916F915F913A
:102660004F913F912F911F910F91FF90EF90DF902D
:10267000CF90BF90AF909F908F907F906F905F9022
:102680004F903F902F901F900F9008950E949102BD
:1026900000912C0300932D03E091BC03F091BD0346
:1026A000E093C503F093C603C191CDBFD191DEBFC6
:1026B0000F910FBF0F910BBFFF91EF91DF91CF9162
:1026C000BF91AF919F918F917F916F915F914F914A
:1026D0003F912F911F910F91FF90EF90DF90CF903E
:1026E000BF90AF909F908F907F906F905F904F9032
:1026F0003F902F901F900F9008950F921F922F924E
:102700003F924F925F926F927F928F929F92AF9281
:10271000BF92CF92DF92EF92FF920F931F932F936E
:102720003F934F935F936F937F938F939F93AF9359
:10273000BF93CF93DF93EF93FF930BB70F930FB735
:1027400000680F930091C40303950093C403013004
:1027500041F4CDB7DEB7E091C503F091C603C19354
:10276000D19300E002BFF0E01F2E78940E94230472
:1027700000000E94FB020F910FBF0F910BBFFF9152
:10278000EF91DF91CF91BF91AF919F918F917F9109
:102790006F915F914F913F912F911F910F91FF90FA
:1027A000EF90DF90CF90BF90AF909F908F907F90F1
:1027B0006F905F904F903F902F901F900F900895D3
:1027C000A0E1B0E0E6EEF3E10C94EC160F89188D71
:1027D00086E08E831C830B838FEF9FE798878F8320
:1027E000AE01455E5F4F5A834983698D7A8DCE0174
:1027F00003960E94051429853A85020F131FF801DC
:102800001082E4E060960C9408172F923F925F923A
:102810006F927F928F929F92AF92BF92CF92DF92F0
:10282000EF92FF920F931F93CF93DF93CDB7DEB755
:102830002B970FB6F894DEBF0FBECDBF3C014B0106
:102840006A01FC0117821682838181FD03C08FEF2C
:102850009FEFBBC11E010894211C311CF301338181
:10286000F40133FD859133FF81914F01882309F4F1
:10287000A9C1853239F433FD859133FF81914F0130
:10288000853229F4B30190E00E941316E7CF982F08
:10289000AA2410E055241032B0F49B3269F09C3227
:1028A00028F4903251F0933271F40BC09D3239F01C
:1028B000903349F411602AC01260146027C0186078
:1028C00025C0106123C017FD2AC0292F20532A30AC
:1028D00088F416FF07C08AE0A89EC0011124A22E2A
:1028E000A80E14C08AE0589EC0011124522E580E22
:1028F00010620CC09E3221F416FD64C1106406C043
:102900009C3611F4106802C0983649F4F40133FD86
:10291000959133FF91914F01992309F0BCCF892FF5
:102920008554833018F08052833038F424E030E04E
:10293000C20ED31E8FE389830FC0933631F09337D5
:1029400081F0933509F056C020C0F601808189835B
:1029500022E030E0C20ED31E710181E0A82EB12C1E
:1029600012C0F601E080F18016FD03C06FEF7FEF2B
:1029700002C06A2D70E022E030E0C20ED31EC70113
:102980000E9408165C011F7713C0F601E080F180F9
:1029900016FD03C06FEF7FEF02C06A2D70E022E0EA
:1029A00030E0C20ED31EC7010E94FD155C01106805
:1029B00013FF07C01BC0B30180E290E00E94131612
:1029C0005A94852D90E0A816B906A8F30FC0F70118
:1029D00017FD859117FF81917F01B30190E00E945F
:1029E000131651105A940894A108B108A114B10407
:1029F00071F7E5C0943611F0993669F517FF0AC0F2
:102A0000F601608171818281938124E030E0C20E01
:102A1000D31E0DC0F601808191819C01B9018827E8
:102A200077FD8095982F42E050E0C40ED51E012F0F
:102A30000F7697FF08C090958095709561957F4FB0
:102A40008F4F9F4F00682AE030E0A1010E943F169F
:102A5000B82EB2183DC0953721F41F7E2AE030E031
:102A60001CC0197F9F3661F0903720F4983509F02B
:102A7000A9C00FC0903739F0983709F0A3C004C03F
:102A800028E030E00AC0106114FD146020E130E05D
:102A900004C014FD166020E132E017FF08C0F60103
:102AA000608171818281938144E050E008C0F60129
:102AB00080819181BC0180E090E042E050E0C40E52
:102AC000D51EA1010E943F16B82EB218012F0F7714
:102AD00006FF09C00E7FBA1430F404FF06C002FDE1
:102AE00004C00F7E02C01B2D01C01A2D04FF0CC0B4
:102AF000FE01EB0DF11D8081803311F4097E08C0C9
:102B00001F5F02FF05C003C0802F867809F01F5F9A
:102B1000E02E03FD14C000FF0FC0151510F0AB2C04
:102B20000BC0AB2CA50CA11A152D06C0B30180E279
:102B300090E00E9413161F5F1515C0F304C0151511
:102B400010F4511A01C05524E4FE10C0B30180E313
:102B500090E00E941316E2FE1EC0E1FE03C088E56D
:102B600090E002C088E790E0B3010CC08E2D86781B
:102B700091F0E1FE02C08BE201C080E207FD8DE230
:102B8000B30190E00E94131606C0B30180E390E009
:102B90000E941316AA94BA14C0F3BA94F101EB0D73
:102BA000F11D8081B30190E00E941316BB2039F023
:102BB000F4CFB30180E290E00E9413165A9455209E
:102BC000C1F74CCEF301868197812B960FB6F8940E
:102BD000DEBF0FBECDBFDF91CF911F910F91FF9050
:102BE000EF90DF90CF90BF90AF909F908F907F90AD
:102BF0006F905F903F902F900895FC010590615079
:102C000070400110D8F7809590958E0F9F1F089502
:102C1000FC016150704001900110D8F780959095AB
:102C20008E0F9F1F08950F931F93CF93DF938C01F7
:102C3000EB018B8181FF1BC082FF0DC02E813F8184
:102C40008C819D812817390764F4E881F98101930B
:102C5000F983E88306C0E885F985802F0995892BDB
:102C600031F48E819F8101969F838E8302C00FEF86
:102C70001FEFC801DF91CF911F910F910895FA01C5
:102C8000AA27283051F1203181F1E8946F936E7FAB
:102C90006E5F7F4F8F4F9F4FAF4FB1E03ED0B4E09C
:102CA0003CD0670F781F891F9A1FA11D680F791FDD
:102CB0008A1F911DA11D6A0F711D811D911DA11DEE
:102CC00020D009F468943F912AE0269F11243019FE
:102CD000305D3193DEF6CF010895462F4770405D99
:102CE0004193B3E00FD0C9F7F6CF462F4F70405D48
:102CF0004A3318F0495D31FD4052419302D0A9F7A3
:102D0000EACFB4E0A6959795879577956795BA959C
:102D1000C9F700976105710508959B01AC010A2E62
:102D200006945795479537952795BA95C9F7620F39
:102D3000731F841F951FA01D0895629FD001739F6C
:102D4000F001829FE00DF11D649FE00DF11D929F47
:102D5000F00D839FF00D749FF00D659FF00D992786
:102D6000729FB00DE11DF91F639FB00DE11DF91FAA
:102D7000BD01CF0111240895A1E21A2EAA1BBB1B8D
:102D8000FD010DC0AA1FBB1FEE1FFF1FA217B30737
:102D9000E407F50720F0A21BB30BE40BF50B661F4D
:102DA000771F881F991F1A9469F760957095809511
:102DB00090959B01AC01BD01CF0108952F923F92E8
:102DC0004F925F926F927F928F929F92AF92BF923B
:102DD000CF92DF92EF92FF920F931F93CF93DF93E7
:102DE000CDB7DEB7CA1BDB0B0FB6F894DEBF0FBE44
:102DF000CDBF09942A88398848885F846E847D8491
:102E00008C849B84AA84B984C884DF80EE80FD8092
:102E10000C811B81AA81B981CE0FD11D0FB6F89408
:0C2E2000DEBF0FBECDBFED010895FFCF57
:102E2C006164633D25640D0001020408102040809C
:102E3C00000001000200010003000100020001007B
:102E4C000400010002000100030001000200010067
:102E5C000500010002000100030001000200010056
:102E6C000400010002000100030001000200010047
:102E7C000600010002000100030001000200010035
:102E8C000400010002000100030001000200010027
:102E9C000500010002000100030001000200010016
:102EAC000400010002000100030001000200010007
:102EBC0007000100020001000300010002000100F4
:102ECC0004000100020001000300010002000100E7
:102EDC0005000100020001000300010002000100D6
:102EEC0004000100020001000300010002000100C7
:102EFC0006000100020001000300010002000100B5
:102F0C0004000100020001000300010002000100A6
:102F1C000500010002000100030001000200010095
:102F2C000400010002000100030001000200010086
:00000001FF
