:100000000C9446000C9465000C9465000C946500FB
:100010000C9465000C9465000C9465000C946500CC
:100020000C9465000C9465000C9465000C946500BC
:100030000C9465000C9465000C9465000C946500AC
:100040000C945C160C9465000C9465000C9465008F
:100050000C9465000C9465000C9465000C9465008C
:100060000C9465000C9465000C9465000C9465007C
:100070000C9465000C9465000C9465000C9465006C
:100080000C9465000C9465000C94650011241FBE4F
:10009000CFEFD0E1DEBFCDBF12E0A0E0B1E0EAEEED
:1000A000F3E300E00BBF02C007900D92AA31B10745
:1000B000D9F716E0AAE1B2E001C01D92A132B10762
:1000C000E1F70E9467000C94F4190C940000CF93A0
:1000D000DF93CDB7DEB7E7E2F0E01082E6E2F0E0D2
:1000E00087E88083E9E2F0E087E68083EBE2F0E0F6
:1000F0001082EAE2F0E088E18083E5E9F0E086E062
:100100008083E3E5F0E087E08083E7E5F0E081E0ED
:1001100080830E94A00389E992E0EBEBF0E024E009
:10012000AC016FEF70E0CF010E9488118FE193E086
:10013000E1E1F1E025E0AC016FEF70E0CF010E945A
:1001400088118FE993E0E8E6F1E026E0AC016FEF7B
:1001500070E0CF010E94881180EA93E06AE070E0CD
:100160000E94750E90939B0280939A020E947304E2
:10017000DF91CF910895CF93DF93CDB7DEB764972A
:100180000FB6F894DEBF0FBECDBFE7E2F0E01082FD
:10019000A6E2B0E0E6E2F0E0808180648C93E6E2E3
:1001A000F0E08081882F90E0807490700097B9F71C
:1001B000E4E2F0E08081282F30E0E5E2F0E08081A9
:1001C000882F90E0982F8827822B932B90939F0263
:1001D00080939E0280919E0290919F029F938F93A5
:1001E00080E091E09F938F93CE0101969F938F9330
:1001F0000E94BF168DB79EB706960FB6F8949EBFA5
:100200000FBE8DBF20919A0230919B02CE010196C4
:10021000BC01C9010E94CE0F8DE390E00E946114E1
:10022000B4CFCF93DF93CDB7DEB764970FB6F89412
:10023000DEBF0FBECDBFE7E2F0E081E08083A6E243
:10024000B0E0E6E2F0E0808180648C93E6E2F0E0EA
:100250008081882F90E0807490700097B9F7E4E275
:10026000F0E08081282F30E0E5E2F0E08081882F07
:1002700090E0982F8827822B932B90939F02809356
:100280009E0280919E0290919F029F938F9389E09E
:1002900091E09F938F93CE0101969F938F930E943D
:1002A000BF168DB79EB706960FB6F8949EBF0FBEC9
:1002B0008DBF20919A0230919B02CE010196BC0124
:1002C000C9010E94CE0F8DE390E00E946114B3CF6C
:1002D000CF93DF93CDB7DEB726970FB6F894DEBF86
:1002E0000FBECDBF80919C0290919D0220919A02F9
:1002F00030919B02AC0160E070E0C9010E941A0FCE
:100300009E838D831A8219821AC0ACE2B0E0898183
:100310009A819C018D819E81F901E80FF91F8081EE
:100320008C93EBE2F0E08081882F90E080729070F7
:100330000097B9F389819A8101969A83898389818B
:100340009A819C018D819E81F901E80FF91F8081BE
:100350008823D9F680919C0290919D0220919A0267
:1003600030919B02AC0160E070E0C9010E941A0F5D
:100370009C838B831A8219821AC0ACE2B0E0898117
:100380009A819C018B819C81F901E80FF91F808182
:100390008C93EBE2F0E08081882F90E08072907087
:1003A0000097B9F389819A8101969A83898389811B
:1003B0009A819C018B819C81F901E80FF91F808152
:1003C0008823D9F68FCFCF93DF93CDB7DEB72C97A5
:1003D0000FB6F894DEBF0FBECDBF9E838D837887A6
:1003E0006F835A8749873C872B8789859A859C83A9
:1003F0008B838D819E819A8389838981EB81FC81A6
:1004000080838B819C8101979C838B8389819A81D6
:10041000892F9927EB81FC8180838B819C810197B7
:100420009C838B83EB81FC8110828B819C81019763
:100430009C838B83EB81FC8110828B819C81019753
:100440009C838B83EB81FC8110828B819C81019743
:100450009C838B83EB81FC8110828B819C81019733
:100460009C838B83EB81FC8110828B819C81019723
:100470009C838B83EB81FC8110828B819C81019713
:100480009C838B83EB81FC8110828B819C81019703
:100490009C838B83EB81FC8110828B819C810197F3
:1004A0009C838B83EB81FC8110828B819C810197E3
:1004B0009C838B83EB81FC8110828B819C810197D3
:1004C0009C838B83EB81FC8110828B819C810197C3
:1004D0009C838B83EB81FC8110828B819C810197B3
:1004E0009C838B83EB81FC8110828B819C810197A3
:1004F0009C838B83EB81FC8110828B819C81019793
:100500009C838B83EB81FC8110828B819C81019782
:100510009C838B83EB81FC8110828B819C81019772
:100520009C838B83EB81FC8110828B819C81019762
:100530009C838B83EB81FC8110828B819C81019752
:100540009C838B83EB81FC8110828B819C81019742
:100550009C838B83EB81FC8110828B819C81019732
:100560009C838B83EB81FC8110828B819C81019722
:100570009C838B83EB81FC8110828B819C81019712
:100580009C838B83EB81FC8110828B819C81019702
:100590009C838B83EB81FC8110828B819C810197F2
:1005A0009C838B838F8198859A8389838981EB8152
:1005B000FC8180838B819C8101979C838B838981C3
:1005C0009A81892F9927EB81FC8180838B819C8183
:1005D00001979C838B83EB81FC8110828B819C81B2
:1005E00001979C838B83EB81FC8110828B819C81A2
:1005F00001979C838B83EB81FC8110828B819C8192
:1006000001979C838B83EB81FC8110828B819C8181
:1006100001979C838B83EB81FC8110828B819C8171
:1006200001979C838B83EB81FC8110828B819C8161
:1006300001979C838B83EB81FC8110828B819C8151
:1006400001979C838B83EB81FC8180E880838B8185
:100650009C8101979C838B838B819C812C960FB608
:10066000F894DEBF0FBECDBFDF91CF910895CF9339
:10067000DF93CDB7DEB722970FB6F894DEBF0FBE7B
:10068000CDBF9A83898322960FB6F894DEBF0FBE42
:10069000CDBFDF91CF910895CF93DF93CDB7DEB774
:1006A00022970FB6F894DEBF0FBECDBF9A83898321
:1006B00022960FB6F894DEBF0FBECDBFDF91CF916B
:1006C0000895CF93DF93CDB7DEB7DF91CF91089533
:1006D000CF93DF93CDB7DEB7DF91CF910895CF935E
:1006E000DF93CDB7DEB7DF91CF910895CF93DF933E
:1006F000CDB7DEB7DF91CF910895CF93DF93CDB71C
:10070000DEB7DF91CF910895CF93DF93CDB7DEB7FA
:10071000DF91CF910895CF93DF93CDB7DEB72297C6
:100720000FB6F894DEBF0FBECDBF9A8389832296A1
:100730000FB6F894DEBF0FBECDBFDF91CF91089505
:10074000CF93DF93CDB7DEB70E9476030E947D077B
:100750000E949C070E94FA070E9435070E944110E0
:100760000E94D6070E94E8070E947D03DF91CF9187
:100770000895CF93DF93CDB7DEB78091B503813075
:1007800049F4809170048F3F29F0809170048F5F4D
:1007900080937004DF91CF910895CF93DF93CDB70D
:1007A000DEB78091B503813009F060C0F894809184
:1007B0007004882329F08091700481508093700424
:1007C00080917004882309F050C08091B40388237D
:1007D00009F04BC080916A04882F90E0FC01E65E2E
:1007E000FE4F808180936F0480916F04282F220F29
:1007F000220F220F80916F04882F90E0FC01E559B1
:10080000FB4F8081882F90E0FC01E65EFE4F8081E7
:10081000820F8093BA039091BA038091BB0398171B
:1008200021F18091BA03882F90E0880F991FFC0175
:10083000ED5FF94F80819181909367048093660406
:1008400080913E0490913F04A0914004B0914104F6
:100850000196A11DB11D80933E0490933F04A09387
:100860004004B09341040E9425167894DF91CF9103
:100870000895CF93DF93CDB7DEB78091B503813074
:1008800059F4F8948091B4038F3F29F08091B40318
:100890008F5F8093B4037894DF91CF910895CF93C5
:1008A000DF93CDB7DEB78091B5038130C9F4F894FA
:1008B0008091B403882399F08091B4038150809390
:1008C000B4038091B403882341F480917004882399
:1008D00021F478940E944D0803C0789401C0789464
:1008E000DF91CF910895CF93DF93CDB7DEB72297F5
:1008F0000FB6F894DEBF0FBECDBF8091B50388233D
:10090000E9F580916A04882F90E0FC01E65EFE4FD5
:1009100080818A838A81882F90E0FC01E559FB4F12
:100920008081882F90E0FC01E65EFE4F8081898304
:100930008A81982F990F990F990F8981890F809338
:10094000BA038091BA038093BB038091BA03882FC6
:1009500090E0880F991FFC01ED5FF94F8081918134
:100960009093670480936604809166049091670475
:1009700090937204809371040E948E1522960FB694
:10098000F894DEBF0FBECDBFDF91CF910895CF9316
:10099000DF93CDB7DEB782E090E00E946114F89457
:1009A0001092B6031092B7031092B8031092B903D5
:1009B00078948DE390E00E946114F8948091B603DE
:1009C0009091B703A091B803B091B903809342040A
:1009D00090934304A0934404B093450481E0809332
:1009E00002067894DF91CF910895CF93DF93CDB72E
:1009F000DEB722970FB6F894DEBF0FBECDBF0E94C0
:100A00006F038091B503813009F058C08091BC0319
:100A10009091BD039A8389834BC0F894E981FA8150
:100A2000828593850097E9F1E981FA818285938532
:100A30000197E981FA8193878287E981FA8182852A
:100A40009385009771F5E981FA818485882F90E07C
:100A5000887090700097F9F4E981FA81918980910A
:100A60006A04892B80936A04E981FA818785282F9B
:100A700030E0E981FA818785882F90E0FC01E55913
:100A8000FB4F9081E981FA818089892BF901E55931
:100A9000FB4F808306C0E981FA8181E090E0938773
:100AA0008287E981FA81828193819A83898378940C
:100AB000E981FA8185858C3009F0AFCF22960FB697
:100AC000F894DEBF0FBECDBFDF91CF910895CF93D5
:100AD000DF93CDB7DEB78CEF90E0DF91CF91089533
:100AE000CF93DF93CDB7DEB7DF91CF910895CF934A
:100AF000DF93CDB7DEB72C970FB6F894DEBF0FBEED
:100B0000CDBF998788877B876A874C87E885F98579
:100B10008181882F90E0FC01E65EFE4F80818C830E
:100B20008C81882F90E0FC01EE5EFE4F80818A83ED
:100B30008C81282F30E088859985820F931FFC01D6
:100B400036968081882F90E0FC01E65EFE4F808122
:100B50008D838D81882F90E0FC01EE5EFE4F8081B9
:100B60008B838C81982F990F990F990F8D81890F05
:100B700089838C81482F50E08C81282F30E0888534
:100B80009985820F931FFC0136968081982F8B8167
:100B900080958923282F88859985840F951FFC01CE
:100BA0003696208388859985840F951FFC0136969B
:100BB0008081882351F4E885F9858181982F8A8185
:100BC00080958923E885F98581838981882F90E044
:100BD000880F991FFC01ED5FF94F808191819F8300
:100BE0008E83EE81FF8113861286EE81FF8117824C
:100BF0001682EE81FF818A859B8591878087EE81B1
:100C0000FF818485982F8C8580958923EE81FF81D3
:100C10008487EE81FF8184858823B1F490916A04F2
:100C20008A81892B80936A048C81282F30E08C8103
:100C3000882F90E0FC01E559FB4F90818B81892B37
:100C4000F901E559FB4F80838981882F90E02C962C
:100C50000FB6F894DEBF0FBECDBFDF91CF910895E0
:100C6000CF93DF93CDB7DEB722970FB6F894DEBFF0
:100C70000FBECDBF9A838983E0917104F091720415
:100C800089819A8197838683E0917104F09172043F
:100C90008785282F30E0E0917104F09172048785F8
:100CA000882F90E0FC01E559FB4F8081982FE0915F
:100CB0007104F0917204808980958923F901E559C6
:100CC000FB4F8083F901E559FB4F8081882361F454
:100CD000E0917104F09172048189982F9095809130
:100CE0006A04892380936A04E0917104F09172048C
:100CF0008785482F50E0E0917104F0917204878558
:100D0000282F30E089819A81820F931FFC0136964B
:100D10009081E0917104F09172048089292F282B31
:100D200089819A81840F951FFC0136962083E98181
:100D3000FA819181E0917104F09172048189892B8B
:100D4000E981FA81818322960FB6F894DEBF0FBE47
:100D5000CDBFDF91CF910895CF93DF93CDB7DEB7AD
:100D600022970FB6F894DEBF0FBECDBF9A8389835A
:100D7000E0917104F09172048785482F50E0E09172
:100D80007104F09172048785282F30E089819A815F
:100D9000820F931FFC0136968081982FE091710499
:100DA000F0917204808980958923282F89819A8106
:100DB000840F951FFC013696208389819A81840FC8
:100DC000951FFC0136968081882371F4E981FA81B0
:100DD0008181982FE0917104F0917204818980954E
:100DE0008923E981FA818183E0917104F091720491
:100DF0001486E0917104F091720417821682229693
:100E00000FB6F894DEBF0FBECDBFDF91CF9108952E
:100E1000CF93DF93CDB7DEB724970FB6F894DEBF3C
:100E20000FBECDBF9C838B83EB81FC8111828B81B4
:100E30009C8106969A838983E981FA81108289814F
:100E40009A8101969A838983E981FA811082898146
:100E50009A8101969A83898324960FB6F894DEBF0F
:100E60000FBECDBFDF91CF910895CF93DF93CDB764
:100E7000DEB726970FB6F894DEBF0FBECDBF83EF67
:100E800094E09C838B838BEF94E09A8389831E820A
:100E90001D8218C0EB81FC811082EB81FC8189816D
:100EA0009A81958384838B819C8108969C838B8314
:100EB00089819A8108969A8389838D819E81019682
:100EC0009E838D838D819E818230910518F3EB8105
:100ED000FC811082EB81FC811582148283EF94E007
:100EE00090936E0480936D0426960FB6F894DEBF3F
:100EF0000FBECDBFDF91CF910895CF93DF93CDB7D4
:100F0000DEB7109270041092B4031092490410924C
:100F1000B50310923E0410923F04109240041092C8
:100F200041041092B6031092B7031092B8031092C6
:100F3000B903DF91CF910895CF93DF93CDB7DEB79B
:100F400024970FB6F894DEBF0FBECDBF10926A048F
:100F50008BE694E09A8389831C821B820DC0E98111
:100F6000FA81108289819A8101969A8389838B8183
:100F70009C8101969C838B838B819C81823091051F
:100F800070F31092BB031092BA0310926704109290
:100F90006604109272041092710424960FB6F894AD
:100FA000DEBF0FBECDBFDF91CF910895CF93DF930A
:100FB000CDB7DEB782EF94E0E4EBF8E02CE0AC01D3
:100FC00060E070E0CF010E948811DF91CF91089519
:100FD000CF93DF93CDB7DEB78DE394E0E8EDF8E093
:100FE0002BE0AC0160E070E0CF010E948811DF913E
:100FF000CF910895CF93DF93CDB7DEB725970FB686
:10100000F894DEBF0FBECDBF1092BD031092BC039B
:101010001D820DC08D81882F90E0880F991FFC01E3
:10102000ED5FF94F118210828D818F5F8D838D81ED
:101030008D3080F38BE095E09C838B838EE195E08F
:101040009A8389831D8213C0EB81FC8189819A81F7
:10105000938382838B819C8143969C838B8389813C
:101060009A8143969A8389838D818F5F8D838D8149
:101070008C3050F3EB81FC81138212828BE095E07F
:10108000909347048093460425960FB6F894DEBFEC
:101090000FBECDBFDF91CF910895CF93DF93CDB732
:1010A000DEB721970FB6F894DEBF0FBECDBFF89420
:1010B00080917004882309F04DC08091B403882387
:1010C00009F048C080916A04882F90E0FC01E65E38
:1010D000FE4F808189838981282F220F220F220FC2
:1010E0008981882F90E0FC01E559FB4F8081882F92
:1010F00090E0FC01E65EFE4F8081820F8093BA0390
:101100009091BA038091BB03981721F18091BA03A3
:10111000882F90E0880F991FFC01ED5FF94F8081C7
:101120009181909367048093660480913E0490912E
:101130003F04A0914004B09141040196A11DB11D4E
:1011400080933E0490933F04A0934004B0934104E5
:101150000E94C215789421960FB6F894DEBF0FBE98
:10116000CDBFDF91CF910895CF93DF93CDB7DEB799
:1011700022970FB6F894DEBF0FBECDBF9A83898346
:10118000F8948091B6039091B703A091B803B09101
:10119000B9030196A11DB11D8093B6039093B703C7
:1011A000A093B803B093B90378940E948403E8CF66
:1011B000CF93DF93CDB7DEB72B970FB6F894DEBF92
:1011C0000FBECDBF9B878A8704C08AE790E00E944C
:1011D0006114809102068823C1F3809142049091AA
:1011E0004304A0914404B091450424E630E040E07B
:1011F00050E0BC01CD010E949B19DA01C9018A832C
:101200009B83AC83BD83F8948091B6039091B70320
:10121000A091B803B091B90380931D0690931E0668
:10122000A0931F06B09320068091B6039091B70358
:10123000A091B803B091B9038E839F83A887B98723
:101240001092B6031092B7031092B8031092B9032C
:1012500078948A819B81AC81BD810097A105B105FD
:10126000E1F08E819F81A885B9852A813B814C81DF
:101270005D81BC01CD010E949B19DA01C901982F43
:1012800084E6891B89838981882324F0898180935E
:1012900048041BC01092480418C010924804809162
:1012A000420490914304A0914404B091450424E683
:1012B00030E040E050E0BC01CD010E949B19DA0112
:1012C000C9018A839B83AC83BD830E9468038DE33D
:1012D00090E00E94611497CFAF92BF92CF92DF92BD
:1012E000EF92FF920F931F93CF93DF93CDB7DEB7AB
:1012F00063970FB6F894DEBF0FBECDBF8B837D839F
:101300006C835F834E8339872887EA86FB860C8748
:101310001D87DF86CE86B98AA88AF8948091460414
:10132000909147049A83898389819A81009709F46F
:10133000A0C0E981FA8182819381909347048093D0
:1013400046047894E981FA818C819D819183808320
:10135000E981FA818B818587E981FA811486E981A7
:10136000FA8113861286E981FA81128A8B81869529
:1013700086958695E981FA818787E981FA81878553
:10138000882F90E0FC01EE5EFE4F8081E981FA81BA
:10139000818B8B818770E981FA818687E981FA8167
:1013A0008685882F90E0FC01EE5EFE4F8081E9810A
:1013B000FA81808BE981FA8117821682E981FA81AC
:1013C0001186108689819A810E948B0389819A8176
:1013D0000E943703F8948B81882F90E0880F991F23
:1013E000FC01ED5FF94F89819A819183808380911F
:1013F000BC039091BD03E981FA8193838283E981E3
:10140000FA81158214828091BC039091BD030097EC
:1014100041F0E091BC03F091BD0389819A819583ED
:10142000848389819A819093BD038093BC03E98171
:10143000FA81918980916A04892B80936A04E981F9
:10144000FA818785282F30E0E981FA818785882F06
:1014500090E0FC01E559FB4F9081E981FA81808998
:10146000892BF901E559FB4F808378941B8A1A8AEE
:1014700005C0789486E490E09B8B8A8B8A899B894F
:1014800063960FB6F894DEBF0FBECDBFDF91CF914C
:101490001F910F91FF90EF90DF90CF90BF90AF9092
:1014A0000895CF93DF93CDB7DEB726970FB6F894A4
:1014B000DEBF0FBECDBF9C838B83809170048823D9
:1014C00019F01E821D8232C0F89480916D049091B3
:1014D0006E049A83898380916D0490916E040097C5
:1014E00051F0E0916D04F0916E04848195819093A8
:1014F0006E0480936D04789489819A81009791F0AD
:10150000E981FA8181E08083E981FA811382128284
:10151000E981FA818B819C819583848389819A8179
:101520000E94080789819A819E838D838D819E8187
:1015300026960FB6F894DEBF0FBECDBFDF91CF91D8
:101540000895CF93DF93CDB7DEB72A970FB6F894FF
:10155000DEBF0FBECDBF9C838B837E836D83588798
:101560004F8380917004882339F0EF81F88582E001
:1015700080831A86198665C0F894EB81FC8184818A
:1015800095819A83898389819A81009769F0EB819B
:10159000FC81158214827894EF81F885108289810C
:1015A0009A819A8789874DC0A0917104B091720485
:1015B000E0917104F091720484858260FD0184875A
:1015C000E0917104F09172048D819E8193878287EE
:1015D0008B819C810E94300678940E944D08F8947B
:1015E000E0917104F0917204808591859A838983DA
:1015F00089819A810097D1F0E0917104F091720491
:1016000011861086E0917104F09172041486E091C5
:101610007104F0917204178216827894EF81F88534
:10162000108289819A819A8789870BC08B819C81DE
:101630000E94AC067894EF81F8858AE080831A8650
:10164000198689859A852A960FB6F894DEBF0FBE53
:10165000CDBFDF91CF910895CF93DF93CDB7DEB7A4
:1016600026970FB6F894DEBF0FBECDBF9A8389834D
:101670007C836B83F894E981FA818181882379F0F6
:101680008B819C8129813A8142E0BC01C9010E9481
:10169000770578940E944D081E821D8215C0E9814D
:1016A000FA8184819581009731F0789484E190E00B
:1016B0009E838D8309C0E981FA818B819C8195830A
:1016C000848378941E821D828D819E8126960FB61A
:1016D000F894DEBF0FBECDBFDF91CF910895CF93B9
:1016E000DF93CDB7DEB727970FB6F894DEBF0FBEF6
:1016F000CDBF8B837D836C8380917004882339F008
:10170000EC81FD818DE880831F821E8267C0F89482
:101710008B81882F90E0880F991FFC01ED5FF94FB6
:1017200080819181009741F07894EC81FD8188E27D
:1017300080831F821E8252C08B81882F90E0880F89
:10174000991FFC01ED5FF94F81E090E09183808368
:1017500080916D0490916E049A83898389819A8126
:101760000097A1F48B81882F90E0880F991FFC01CE
:10177000ED5FF94F118210827894EC81FD8184E055
:10178000808389819A819F838E8328C0E0916D0434
:10179000F0916E048481958190936E0480936D0422
:1017A0007894E981FA8184E080838B81882F90E0AE
:1017B000982F88278F6FE981FA8193838283E9814B
:1017C000FA811582148289819A810E940807EC812E
:1017D000FD81108289819A819F838E838E819F8172
:1017E00027960FB6F894DEBF0FBECDBFDF91CF9125
:1017F0000895CF93DF93CDB7DEB72B970FB6F8944C
:10180000DEBF0FBECDBF9F838E83798768875B87DE
:101810004A8780917004882329F0EA85FB8582E05D
:1018200080831FC1F894EE81FF81828193818F3F75
:1018300039F5EE81FF81828193818070EE81FF8195
:1018400093838283EE81FF8122813381E091710451
:10185000F09172048585882F90E0822B932BEE8186
:10186000FF81938382838091710490917204EE8151
:10187000FF81958384837894EA85FB851082F1C08B
:10188000EE81FF8182819381892F99278D83EE815B
:10189000FF81828193818C83EE81FF818481958198
:1018A0009A838983E981FA8195858D81981709F456
:1018B0009DC0E0917104F091720495858C81981718
:1018C00008F094C0E981FA818785882F90E0FC01B7
:1018D000E559FB4F9081E981FA818089892388232A
:1018E00059F1E981FA818785282F30E0E981FA8171
:1018F0008785882F90E0FC01E559FB4F8081982F68
:10190000E981FA81808980958923F901E559FB4FA6
:101910008083F901E559FB4F8081882351F4E981E7
:10192000FA818189982F909580916A048923809308
:101930006A0481E08B8301C01B82E981FA818D8179
:101940008587E981FA818585869586958695E981E1
:10195000FA818787E981FA818785882F90E0FC01E9
:10196000EE5EFE4F8081E981FA81818BE981FA8107
:1019700085858770E981FA818687E981FA81868584
:10198000882F90E0FC01EE5EFE4F8081E981FA81B4
:10199000808B8B818130F1F4E981FA81918980918A
:1019A0006A04892B80936A04E981FA818785282F4C
:1019B00030E0E981FA818785882F90E0FC01E559C4
:1019C000FB4F9081E981FA818089892BF901E559E2
:1019D000FB4F80838D81882F90E0880F991FFC0139
:1019E000ED5FF94F89819A8191838083A091710481
:1019F000B0917204E0917104F09172048485806169
:101A0000FD018487E0917104F091720488859985C5
:101A1000938782878E819F810E94300678940E94EE
:101A20004D08F894E0917104F09172048485882F38
:101A300090E080719070009751F08E819F810E949C
:101A4000AC067894EA85FB858AE080830AC0E09141
:101A50007104F0917204178216827894EA85FB85EE
:101A600010822B960FB6F894DEBF0FBECDBFDF916C
:101A7000CF910895CF93DF93CDB7DEB726970FB6FA
:101A8000F894DEBF0FBECDBF9C838B838091700422
:101A9000882329F085E090E09E838D831BC1F89414
:101AA000EB81FC8182819381892F99278A83EB8145
:101AB000FC81828193818983E0917104F0917204A9
:101AC00095858A81981771F0E0917104F091720404
:101AD00095858981981731F07894E8E7F0E0FE83E6
:101AE000ED83F8C0E0917104F091720495858A81CC
:101AF000981709F09CC0E0917104F09172048785F9
:101B0000282F30E0E0917104F09172048785882FCE
:101B100090E0FC01E559FB4F8081982FE091710422
:101B2000F0917204808980958923F901E559FB4F72
:101B30008083F901E559FB4F8081882361F4E091AE
:101B40007104F09172048189982F909580916A04B4
:101B5000892380936A04E0917104F0917204898171
:101B60008587E0917104F09172048981869586954C
:101B700086958787A0917104B0917204E0917104F9
:101B8000F09172048785882F90E0FC01EE5EFE4F95
:101B90008081FD01818BE0917104F0917204898153
:101BA00087708687A0917104B0917204E0917104EE
:101BB000F09172048685882F90E0FC01EE5EFE4F66
:101BC0008081FD01808BE0917104F0917204918914
:101BD00080916A04892B80936A04E0917104F091EA
:101BE00072048785282F30E0E0917104F09172042F
:101BF0008785882F90E0FC01E559FB4F9081E091AB
:101C00007104F09172048089892BF901E559FB4F29
:101C100080838981882F90E0209171043091720433
:101C2000880F991FFC01ED5FF94F318320838A8172
:101C3000882F90E0880F991FFC01ED5FF94F81E03C
:101C400090E091838083EB81FC818181882391F1F5
:101C50008B819C8140E160E070E00E947705898380
:101C6000EB81FC81828193818070EB81FC81938385
:101C70008283EB81FC81228133818981882F90E0EE
:101C8000822B932BEB81FC81938382838981882F24
:101C900090E0880F991FFC01ED5FF94F80819181E1
:101CA000EB81FC819583848378940E944D081E8289
:101CB0001D8210C0EB81FC81828193818F6FEB814B
:101CC000FC8193838283EB81FC811582148278945A
:101CD0001E821D828D819E8126960FB6F894DEBFEE
:101CE0000FBECDBFDF91CF910895CF93DF93CDB7D6
:101CF000DEB72A970FB6F894DEBF0FBECDBF9E8326
:101D00008D8378876F8380917004882319F01A86F9
:101D1000198685C0F89480916D0490916E049C831F
:101D20008B8380916D0490916E04009751F0E09147
:101D30006D04F0916E048481958190936E0480937C
:101D40006D0478948B819C81009709F464C0F894A9
:101D500080916804909169049A83898389819A812A
:101D6000009709F447C0E0916804F091690480810C
:101D7000918190936904809368047894E981FA8151
:101D80008D819E81938382838F819885880F991F8F
:101D90009C018D819E81820F931FE981FA81958339
:101DA0008483E981FA818D819E8197838683E9818D
:101DB000FA818D819E8191878087E981FA818F8167
:101DC000988593878287E981FA8115861486EB814D
:101DD000FC8182E08083EB81FC8113821282EB81A3
:101DE000FC8189819A81958384838B819C810E9467
:101DF000080711C080916D0490916E04EB81FC8105
:101E0000958384838B819C8190936E0480936D0471
:101E100078941C821B828B819C819A878987898513
:101E20009A852A960FB6F894DEBF0FBECDBFDF911C
:101E3000CF910895CF93DF93CDB7DEB72C970FB630
:101E4000F894DEBF0FBECDBF9E838D8378876F83EE
:101E50005A87498780917004882339F0E985FA858B
:101E600082E080831C861B868EC0F894ED81FE8103
:101E7000848195819A838983E981FA818485958516
:101E80000097A1F1E981FA810084F185E02D80813C
:101E900091819C838B83CF010296E981FA8191879E
:101EA0008087E981FA81848595850197E981FA81A6
:101EB00095878487E981FA8120853185E981FA81D6
:101EC000848195812817390741F4E981FA8182815B
:101ED0009381E981FA81918780877894E985FA85F1
:101EE00010828B819C819C878B874DC0A09171044F
:101EF000B0917204E0917104F09172048485846061
:101F0000FD018487E0917104F09172048F819885BE
:101F1000938782878D819E810E94300678940E94EB
:101F20004D08F894E0917104F091720480859185D8
:101F30009C838B838B819C810097D1F0E09171040D
:101F4000F091720411861086E0917104F091720490
:101F50001486E0917104F0917204178216827894CD
:101F6000E985FA8510828B819C819C878B870BC0C9
:101F70008D819E810E94AC067894E985FA858AE07D
:101F800080831C861B868B859C852C960FB6F894C7
:101F9000DEBF0FBECDBFDF91CF910895CF93DF930A
:101FA000CDB7DEB728970FB6F894DEBF0FBECDBF12
:101FB0009C838B837E836D83F894EB81FC8181818C
:101FC000882379F08D819E812B813C8144E0BC0186
:101FD000C9010E94770578940E944D0818861F82D7
:101FE00045C0EB81FC81848195819A838983E98155
:101FF000FA8124853585E981FA81828593852817C0
:10200000390730F078948EE190E098878F832EC066
:10201000E981FA810680F781E02D8D819E8191838F
:102020008083CF010296E981FA8197838683E981D3
:10203000FA81848595850196E981FA81958784875F
:10204000E981FA8126813781E981FA81848195814C
:102050002817390741F4E981FA8182819381E98166
:10206000FA8197838683789418861F828F8198855A
:1020700028960FB6F894DEBF0FBECDBFDF91CF918B
:102080000895CF93DF93CDB7DEB726970FB6F894B8
:10209000DEBF0FBECDBF8AE494E09C838B8388E5CE
:1020A00094E09A8389831E821D8215C0EB81FC8196
:1020B00089819A81918380838B819C810E969C83F8
:1020C0008B8389819A810E969A8389838D819E81E3
:1020D00001969E838D838D819E81009739F3EB81DC
:1020E000FC81118210828AE494E0909369048093C9
:1020F000680426960FB6F894DEBF0FBECDBFDF9101
:10210000CF910895CF93DF93CDB7DEB726970FB663
:10211000F894DEBF0FBECDBF9C838B83809170048B
:10212000882319F01E821D8232C0F89480916D04BC
:1021300090916E049A83898380916D0490916E04CE
:10214000009751F0E0916D04F0916E0484819581C7
:1021500090936E0480936D04789489819A8100979E
:1021600091F0E981FA8183E08083E981FA818B81B2
:102170009C8193838283E981FA811582148289810B
:102180009A810E94080789819A819E838D838D811F
:102190009E8126960FB6F894DEBF0FBECDBFDF91AD
:1021A000CF910895CF93DF93CDB7DEB726970FB6C3
:1021B000F894DEBF0FBECDBF9A8389837C836B8387
:1021C0005E834D8380917004882329F0ED81FE8128
:1021D00082E0808350C0F894E981FA818281938102
:1021E000009771F0E981FA81828193810197E981F9
:1021F000FA81938382837894ED81FE8110823BC0C3
:10220000A0917104B0917204E0917104F091720494
:1022100084858160FD018487E0917104F0917204EE
:102220008B819C819387828789819A810E94300665
:1022300078940E944D08F894E0917104F091720432
:102240008485882F90E081709070882351F0898177
:102250009A810E94AC067894ED81FE818AE08083A9
:102260000AC0E0917104F09172041782168278948A
:10227000ED81FE81108226960FB6F894DEBF0FBE68
:10228000CDBFDF91CF910895CF93DF93CDB7DEB768
:1022900024970FB6F894DEBF0FBECDBF9A83898313
:1022A000F894E981FA818181882369F089819A8192
:1022B00041E060E070E00E94770578940E944D084C
:1022C0001C821B821AC0E981FA81828193812FEFDF
:1022D0008F3F920769F0E981FA81828193810196AB
:1022E000E981FA819383828378941C821B8205C0E2
:1022F000789482E390E09C838B838B819C812496ED
:102300000FB6F894DEBF0FBECDBFDF91CF91089519
:10231000AF92BF92CF92DF92EF92FF920F931F93F3
:10232000CF93DF93CDB7DEB72C970FB6F894DEBF0F
:102330000FBECDBF9D838C837F836E835987488773
:102340002A87F8948A85882F90E0880F991FFC01CE
:10235000ED5FF94F80819181009709F050C08A8527
:10236000882F90E0880F991FFC01ED5FF94F81E005
:1023700090E0918380837894888599856E817F81B0
:10238000EC81FD8120E030E0AC01CF010E94E3014F
:102390009B838A838A819B81AA24BB24CC24DD244D
:1023A000EE24FF24870120E030E040E050E0BC0153
:1023B0008A850E946C0989838981882371F4F89445
:1023C000809149048F5F8093490478948091B5038C
:1023D000813079F40E944D080CC0F8948A85882FCA
:1023E00090E0880F991FFC01ED5FF94F1182108278
:1023F00078948981282F30E03C872B8705C078941A
:1024000088E290E09C878B878B859C852C960FB605
:10241000F894DEBF0FBECDBFDF91CF911F910F911A
:10242000FF90EF90DF90CF90BF90AF900895CF9343
:10243000DF93CDB7DEB728970FB6F894DEBF0FBE97
:10244000CDBF8E8380917004882329F08FE390E0C4
:1024500098878F83F6C0F8948E818F3F31F4E09196
:102460007104F091720485858E838E81882F90E0AF
:10247000880F991FFC01ED5FF94F808191819B834B
:102480008A838A819B81009709F4D6C0EA81FB8107
:102490008785282F30E0EA81FB818785882F90E0AF
:1024A000FC01E559FB4F8081982FEA81FB818089EF
:1024B00080958923F901E559FB4F8083F901E5599E
:1024C000FB4F8081882351F4EA81FB818189982F19
:1024D000909580916A04892380936A04EA81FB8144
:1024E000868197819D838C838C819D810097A1F14A
:1024F000EA81FB818785482F50E0EA81FB8187854F
:10250000282F30E08C819D81820F931FFC0136962D
:102510008081982FEA81FB81808980958923282FEB
:102520008C819D81840F951FFC01369620838C81C0
:102530009D81840F951FFC0136968081882361F46C
:10254000EC81FD818181982FEA81FB8181898095D1
:102550008923EC81FD818183EA81FB8113861286C8
:10256000EA81FB8114868091B4038F3F29F080912A
:10257000B4038F5F8093B40378940E947005F8943D
:102580008091B403882329F08091B4038150809313
:10259000B4038A819B810E944C038091490481503D
:1025A000809349048E81882F90E0880F991FFC0149
:1025B000ED5FF94F11821082EA81FB818481958160
:1025C000009781F4EA81FB810280F381E02D15827E
:1025D0001482EA81FB81828193819093BD03809371
:1025E000BC0316C0EA81FB81A481B581EA81FB812D
:1025F00082819381FD0193838283EA81FB81A281A1
:10260000B381EA81FB8184819581FD019583848377
:102610008091460490914704EA81FB8193838283F1
:102620008A819B81909347048093460478940E940A
:102630004D0818861F8205C078948CE390E0988737
:102640008F838F81988528960FB6F894DEBF0FBED2
:10265000CDBFDF91CF910895CF93DF93CDB7DEB794
:1026600027970FB6F894DEBF0FBECDBF8D838D8147
:102670008F3F71F4F894E0917104F09172048289B3
:102680008C8378948C81282F30E03F832E831FC069
:10269000F8948D81882F90E0880F991FFC01ED5FE1
:1026A000F94F808191819A83898389819A810097EA
:1026B00031F0E981FA818EE3828B1B8202C08BE0CC
:1026C0008B8378948B81282F30E03F832E838E81FB
:1026D0009F8127960FB6F894DEBF0FBECDBFDF9166
:1026E000CF910895CF93DF93CDB7DEB725970FB67F
:1026F000F894DEBF0FBECDBF8B83F8948B81882FFB
:1027000090E0880F991FFC01ED5FF94F8081918166
:102710009A83898389819A81009731F4789484E639
:1027200090E09D838C8346C0E981FA818485882F5F
:1027300090E0887090700097C1F1E981FA818485FA
:10274000877FE981FA818487E981FA8184858823FA
:1027500041F5E981FA8182859385009711F5E98138
:10276000FA81918980916A04892B80936A04E981B6
:10277000FA818785282F30E0E981FA818785882FC3
:1027800090E0FC01E559FB4F9081E981FA81808955
:10279000892BF901E559FB4F808378940E944D08FD
:1027A00001C078941D821C8205C0789485E690E073
:1027B0009D838C838C819D8125960FB6F894DEBF16
:1027C0000FBECDBFDF91CF910895CF93DF93CDB7EB
:1027D000DEB726970FB6F894DEBF0FBECDBF8C8351
:1027E000F8948C818F3F49F4E0917104F091720468
:1027F00085858C8381E08B830CC0E0917104F0911E
:10280000720495858C81981719F481E08B8301C03F
:102810001B828C81882F90E0880F991FFC01ED5F4F
:10282000F94F808191819A83898389819A81009768
:1028300031F478948AE590E09E838D8337C0E981F6
:10284000FA818785282F30E0E981FA818785882FF2
:1028500090E0FC01E559FB4F8081982FE981FA81D6
:10286000808980958923F901E559FB4F8083F9011F
:10287000E559FB4F8081882351F4E981FA818189F0
:10288000982F909580916A04892380936A04E98146
:10289000FA8184858860E981FA81848778948B81C4
:1028A000813011F40E944D081E821D828D819E810F
:1028B00026960FB6F894DEBF0FBECDBFDF91CF9145
:1028C0000895CF93DF93CDB7DEB722970FB6F89474
:1028D000DEBF0FBECDBF9A83898389819A8100971D
:1028E00009F43CC0F894E0917104F091720487857A
:1028F000282F30E0E0917104F09172048785882FD1
:1029000090E0FC01E559FB4F8081982FE091710424
:10291000F0917204808980958923F901E559FB4F74
:102920008083F901E559FB4F8081882361F4E091B0
:102930007104F09172048189982F909580916A04B6
:10294000892380936A04E0917104F0917204898173
:102950009A819387828778940E944D0822960FB6B9
:10296000F894DEBF0FBECDBFDF91CF910895EF92F7
:10297000FF920F931F93CF93DF93CDB7DEB72D97C1
:102980000FB6F894DEBF0FBECDBF8F83688749872F
:102990003B872A878F81882359F48885882341F4CF
:1029A0008985882329F48A859B85009709F4A3C02B
:1029B00088858C3328F081E590E09D878C879FC0C7
:1029C00089858C3328F082E590E09D878C8797C0BD
:1029D0008A859B8523E0883E920728F083E590E076
:1029E0009D878C878CC08F81882F90E0A0E0B0E01D
:1029F00020E13EE040E050E0BC01CD010E947C19A6
:102A00007B018C018885882F90E0A0E0B0E02CE36A
:102A100030E040E050E0BC01CD010E947C19DC01B7
:102A2000CB01A8019701280F391F4A1F5B1F898519
:102A3000882F90E0A0E0B0E0820F931FA41FB51F85
:102A40002DE330E040E050E0BC01CD010E947C1954
:102A50007B018C018A859B85CC01A0E0B0E02DE351
:102A600030E040E050E0BC01CD010E947C19DC0167
:102A7000CB0188519E4FAF4FBF4F28EE33E040E06F
:102A800050E0BC01CD010E949B19DA01C9018E0DF5
:102A90009F1DA01FB11F8B839C83AD83BE838B8141
:102AA0009C81AD81BE81CD01AA27BB279A838983F2
:102AB0008B819C81AD81BE81A070B0708B839C8323
:102AC000AD83BE838B819C810E9461140DC080E028
:102AD00090E80E94611480E090E80E94611489816E
:102AE0009A8101979A83898389819A81009779F7DE
:102AF0001D861C8604C084E590E09D878C878C85AC
:102B00009D852D960FB6F894DEBF0FBECDBFDF9129
:102B1000CF911F910F91FF90EF9008950E94610354
:102B20000091B50303950093B503E0916604F0911D
:102B30006704C191CDBFD191DEBF0F910FBF0F913F
:102B40000BBFFF91EF91DF91CF91BF91AF919F911B
:102B50008F917F916F915F914F913F912F911F9135
:102B60000F91FF90EF90DF90CF90BF90AF909F902C
:102B70008F907F906F905F904F903F902F901F901D
:102B80000F9008950F921F922F923F924F925F9253
:102B90006F927F928F929F92AF92BF92CF92DF926D
:102BA000EF92FF920F931F932F933F934F935F9357
:102BB0006F937F938F939F93AF93BF93CF93DF9345
:102BC000EF93FF930BB70F930FB70F93E09171043F
:102BD000F0917204CDB7C193DEB7D1930E94610327
:102BE0000091BA030093BB03E0916604F09167047F
:102BF000E0937104F0937204C191CDBFD191DEBF17
:102C00000F910FBF0F910BBFFF91EF91DF91CF910C
:102C1000BF91AF919F918F917F916F915F914F91F4
:102C20003F912F911F910F91FF90EF90DF90CF90E8
:102C3000BF90AF909F908F907F906F905F904F90DC
:102C40003F902F901F900F9008950E946103009174
:102C5000BA030093BB03E0916604F0916704E0932C
:102C60007104F0937204C191CDBFD191DEBF0F9179
:102C70000FBF0F910BBFFF91EF91DF91CF91BF91EC
:102C8000AF919F918F917F916F915F914F913F9104
:102C90002F911F910F91FF90EF90DF90CF90BF90F9
:102CA000AF909F908F907F906F905F904F903F90EC
:102CB0002F901F900F9008950F921F922F923F9286
:102CC0004F925F926F927F928F929F92AF92BF923C
:102CD000CF92DF92EF92FF920F931F932F933F9328
:102CE0004F935F936F937F938F939F93AF93BF9314
:102CF000CF93DF93EF93FF930BB70F930FB700685A
:102D00000F9300917004039500937004013041F417
:102D1000CDB7DEB7E0917104F0917204C193D19305
:102D200000E002BFF0E01F2E78940E94F50400003E
:102D30000E94CD030F910FBF0F910BBFFF91EF9139
:102D4000DF91CF91BF91AF919F918F917F916F91C3
:102D50005F914F913F912F911F910F91FF90EF90B5
:102D6000DF90CF90BF90AF909F908F907F906F90AB
:102D70005F904F903F902F901F900F900895A0E18B
:102D8000B0E0E5ECF6E10C94CB190F89188D86E0E4
:102D90008E831C830B838FEF9FE798878F83AE0111
:102DA000455E5F4F5A834983698D7A8DCE010396C4
:102DB0000E94E41629853A85020F131FF80110823C
:102DC000E4E060960C94E7192F923F925F926F9225
:102DD0007F928F929F92AF92BF92CF92DF92EF92AB
:102DE000FF920F931F93CF93DF93CDB7DEB72B974F
:102DF0000FB6F894DEBF0FBECDBF3C014B016A0198
:102E0000FC0117821682838181FD03C08FEF9FEF43
:102E1000BBC11E010894211C311CF3013381F40154
:102E200033FD859133FF81914F01882309F4A9C1B6
:102E3000853239F433FD859133FF81914F0185321D
:102E400029F4B30190E00E94F218E7CF982FAA244A
:102E500010E055241032B0F49B3269F09C3228F413
:102E6000903251F0933271F40BC09D3239F09033AF
:102E700049F411602AC01260146027C0186025C090
:102E8000106123C017FD2AC0292F20532A3088F44F
:102E900016FF07C08AE0A89EC0011124A22EA80E2A
:102EA00014C08AE0589EC0011124522E580E1062A0
:102EB0000CC09E3221F416FD64C1106406C09C361D
:102EC00011F4106802C0983649F4F40133FD95916D
:102ED00033FF91914F01992309F0BCCF892F85547D
:102EE000833018F08052833038F424E030E0C20E92
:102EF000D31E8FE389830FC0933631F0933781F06F
:102F0000933509F056C020C0F6018081898322E004
:102F100030E0C20ED31E710181E0A82EB12C12C088
:102F2000F601E080F18016FD03C06FEF7FEF02C075
:102F30006A2D70E022E030E0C20ED31EC7010E946D
:102F4000E7185C011F7713C0F601E080F18016FDE1
:102F500003C06FEF7FEF02C06A2D70E022E030E027
:102F6000C20ED31EC7010E94DC185C01106813FF5B
:102F700007C01BC0B30180E290E00E94F2185A948F
:102F8000852D90E0A816B906A8F30FC0F70117FD2C
:102F9000859117FF81917F01B30190E00E94F218A3
:102FA00051105A940894A108B108A114B10471F702
:102FB000E5C0943611F0993669F517FF0AC0F6019D
:102FC000608171818281938124E030E0C20ED31E42
:102FD0000DC0F601808191819C01B901882777FDA0
:102FE0008095982F42E050E0C40ED51E012F0F7639
:102FF00097FF08C090958095709561957F4F8F4F92
:103000009F4F00682AE030E0A1010E941E19B82EEF
:10301000B2183DC0953721F41F7E2AE030E01CC075
:10302000197F9F3661F0903720F4983509F0A9C0D8
:103030000FC0903739F0983709F0A3C004C028E0DA
:1030400030E00AC0106114FD146020E130E004C0DB
:1030500014FD166020E132E017FF08C0F601608120
:1030600071818281938144E050E008C0F601808143
:103070009181BC0180E090E042E050E0C40ED51E9A
:10308000A1010E941E19B82EB218012F0F7706FF5A
:1030900009C00E7FBA1430F404FF06C002FD04C05C
:1030A0000F7E02C01B2D01C01A2D04FF0CC0FE01B3
:1030B000EB0DF11D8081803311F4097E08C01F5F84
:1030C00002FF05C003C0802F867809F01F5FE02E45
:1030D00003FD14C000FF0FC0151510F0AB2C0BC082
:1030E000AB2CA50CA11A152D06C0B30180E290E00F
:1030F0000E94F2181F5F1515C0F304C0151510F4D7
:10310000511A01C05524E4FE10C0B30180E390E0E1
:103110000E94F218E2FE1EC0E1FE03C088E590E0C6
:1031200002C088E790E0B3010CC08E2D867891F044
:10313000E1FE02C08BE201C080E207FD8DE2B30137
:1031400090E00E94F21806C0B30180E390E00E9474
:10315000F218AA94BA14C0F3BA94F101EB0DF11D60
:103160008081B30190E00E94F218BB2039F0F4CFC7
:10317000B30180E290E00E94F2185A945520C1F702
:103180004CCEF301868197812B960FB6F894DEBF63
:103190000FBECDBFDF91CF911F910F91FF90EF90A8
:1031A000DF90CF90BF90AF909F908F907F906F9067
:1031B0005F903F902F900895FC0105906150704002
:1031C0000110D8F7809590958E0F9F1F0895FC01F0
:1031D0006150704001900110D8F7809590958E0F46
:1031E0009F1F08950F931F93CF93DF938C01EB01E3
:1031F0008B8181FF1BC082FF0DC02E813F818C819E
:103200009D812817390764F4E881F9810193F983D6
:10321000E88306C0E885F985802F0995892B31F46C
:103220008E819F8101969F838E8302C00FEF1FEFD7
:10323000C801DF91CF911F910F910895FA01AA273C
:10324000283051F1203181F1E8946F936E7F6E5FE9
:103250007F4F8F4F9F4FAF4FB1E03ED0B4E03CD097
:10326000670F781F891F9A1FA11D680F791F8A1F7A
:10327000911DA11D6A0F711D811D911DA11D20D0E1
:1032800009F468943F912AE0269F11243019305D9B
:103290003193DEF6CF010895462F4770405D41938C
:1032A000B3E00FD0C9F7F6CF462F4F70405D4A33D9
:1032B00018F0495D31FD4052419302D0A9F7EACFA1
:1032C000B4E0A6959795879577956795BA95C9F7D0
:1032D00000976105710508959B01AC010A2E0694C3
:1032E0005795479537952795BA95C9F7620F731F7C
:1032F000841F951FA01D0895629FD001739FF00148
:10330000829FE00DF11D649FE00DF11D929FF00D75
:10331000839FF00D749FF00D659FF00D9927729FAC
:10332000B00DE11DF91F639FB00DE11DF91FBD0137
:10333000CF0111240895A1E21A2EAA1BBB1BFD0187
:103340000DC0AA1FBB1FEE1FFF1FA217B307E40784
:10335000F50720F0A21BB30BE40BF50B661F771FDC
:10336000881F991F1A9469F76095709580959095BC
:103370009B01AC01BD01CF0108952F923F924F9266
:103380005F926F927F928F929F92AF92BF92CF92F5
:10339000DF92EF92FF920F931F93CF93DF93CDB7FE
:1033A000DEB7CA1BDB0B0FB6F894DEBF0FBECDBF76
:1033B00009942A88398848885F846E847D848C8447
:1033C0009B84AA84B984C884DF80EE80FD800C8150
:1033D0001B81AA81B981CE0FD11D0FB6F894DEBF33
:0A33E0000FBECDBFED010895FFCF31
:1033EA00616463313D25640D00616463323D256487
:1033FA000D000102040810204080000001000200B4
:10340A0001000300010002000100040001000200A3
:10341A000100030001000200010005000100020092
:10342A000100030001000200010004000100020083
:10343A000100030001000200010006000100020071
:10344A000100030001000200010004000100020063
:10345A000100030001000200010005000100020052
:10346A000100030001000200010004000100020043
:10347A000100030001000200010007000100020030
:10348A000100030001000200010004000100020023
:10349A000100030001000200010005000100020012
:1034AA000100030001000200010004000100020003
:1034BA0001000300010002000100060001000200F1
:1034CA0001000300010002000100040001000200E3
:1034DA0001000300010002000100050001000200D2
:1034EA0001000300010002000100040001000200C3
:0A34FA0001000300010002000100C0
:00000001FF
