:100000000C9446000C9465000C9465000C946500FB
:100010000C9465000C9465000C9465000C946500CC
:100020000C9465000C9465000C9465000C946500BC
:100030000C9465000C9465000C9465000C946500AC
:100040000C9445130C9465000C9465000C946500A9
:100050000C9465000C9465000C9465000C9465008C
:100060000C9465000C9465000C9465000C9465007C
:100070000C9465000C9465000C9465000C9465006C
:100080000C9465000C9465000C94650011241FBE4F
:10009000CFEFD0E1DEBFCDBF12E0A0E0B1E0E4EDF4
:1000A000F7E200E00BBF02C007900D92A830B10745
:1000B000D9F715E0A8E0B2E001C01D92A835B1075C
:1000C000E1F70E9467000C94E9130C940000CF93B1
:1000D000DF93CDB7DEB721970FB6F894DEBF0FBE22
:1000E000CDBFEAE3F0E08FEF8083EBE3F0E0108236
:1000F000E3E5F0E087E08083E7E5F0E081E08083FE
:10010000E9E2F0E087E68083EBE2F0E01082EAE2E9
:10011000F0E088E18083E5E9F0E086E080830E94FA
:10012000980288E892E0E2EBF0E024E0AC016FEFA7
:1001300070E0CF010E94710E88E093E0E5ECF0E002
:1001400025E0AC016FEF70E0CF010E94710E0E94BC
:10015000690321960FB6F894DEBF0FBECDBFDF91C5
:10016000CF910895CF93DF93CDB7DEB7809108028A
:10017000809580930802EBE3F0E080910802808391
:100180008DE390E00E944A11F1CFCF93DF93CDB77A
:10019000DEB7ECE2F0E081E48083EBE2F0E0808126
:1001A000882F90E0807490700097B9F38DE390E011
:1001B0000E944A11EECFCF93DF93CDB7DEB72C97D5
:1001C0000FB6F894DEBF0FBECDBF9E838D837887B8
:1001D0006F835A8749873C872B8789859A859C83BB
:1001E0008B838D819E819A8389838981EB81FC81B8
:1001F00080838B819C8101979C838B8389819A81E9
:10020000892F9927EB81FC8180838B819C810197C9
:100210009C838B83EB81FC8110828B819C81019775
:100220009C838B83EB81FC8110828B819C81019765
:100230009C838B83EB81FC8110828B819C81019755
:100240009C838B83EB81FC8110828B819C81019745
:100250009C838B83EB81FC8110828B819C81019735
:100260009C838B83EB81FC8110828B819C81019725
:100270009C838B83EB81FC8110828B819C81019715
:100280009C838B83EB81FC8110828B819C81019705
:100290009C838B83EB81FC8110828B819C810197F5
:1002A0009C838B83EB81FC8110828B819C810197E5
:1002B0009C838B83EB81FC8110828B819C810197D5
:1002C0009C838B83EB81FC8110828B819C810197C5
:1002D0009C838B83EB81FC8110828B819C810197B5
:1002E0009C838B83EB81FC8110828B819C810197A5
:1002F0009C838B83EB81FC8110828B819C81019795
:100300009C838B83EB81FC8110828B819C81019784
:100310009C838B83EB81FC8110828B819C81019774
:100320009C838B83EB81FC8110828B819C81019764
:100330009C838B83EB81FC8110828B819C81019754
:100340009C838B83EB81FC8110828B819C81019744
:100350009C838B83EB81FC8110828B819C81019734
:100360009C838B83EB81FC8110828B819C81019724
:100370009C838B83EB81FC8110828B819C81019714
:100380009C838B83EB81FC8110828B819C81019704
:100390009C838B838F8198859A8389838981EB8164
:1003A000FC8180838B819C8101979C838B838981D5
:1003B0009A81892F9927EB81FC8180838B819C8195
:1003C00001979C838B83EB81FC8110828B819C81C4
:1003D00001979C838B83EB81FC8110828B819C81B4
:1003E00001979C838B83EB81FC8110828B819C81A4
:1003F00001979C838B83EB81FC8110828B819C8194
:1004000001979C838B83EB81FC8110828B819C8183
:1004100001979C838B83EB81FC8110828B819C8173
:1004200001979C838B83EB81FC8110828B819C8163
:1004300001979C838B83EB81FC8180E880838B8197
:100440009C8101979C838B838B819C812C960FB61A
:10045000F894DEBF0FBECDBFDF91CF910895CF934B
:10046000DF93CDB7DEB722970FB6F894DEBF0FBE8D
:10047000CDBF9A83898322960FB6F894DEBF0FBE54
:10048000CDBFDF91CF910895CF93DF93CDB7DEB786
:1004900022970FB6F894DEBF0FBECDBF9A83898333
:1004A00022960FB6F894DEBF0FBECDBFDF91CF917D
:1004B0000895CF93DF93CDB7DEB7DF91CF91089545
:1004C000CF93DF93CDB7DEB7DF91CF910895CF9370
:1004D000DF93CDB7DEB7DF91CF910895CF93DF9350
:1004E000CDB7DEB7DF91CF910895CF93DF93CDB72E
:1004F000DEB7DF91CF910895CF93DF93CDB7DEB70D
:10050000DF91CF910895CF93DF93CDB7DEB72297D8
:100510000FB6F894DEBF0FBECDBF9A8389832296B3
:100520000FB6F894DEBF0FBECDBFDF91CF91089517
:10053000CF93DF93CDB7DEB70E946E020E947306A1
:100540000E9492060E94F0060E942B060E94CC0692
:100550000E94DE060E947502DF91CF910895CF932D
:10056000DF93CDB7DEB780910A03813049F48091E3
:10057000A7038F3F29F08091A7038F5F8093A70384
:10058000DF91CF910895CF93DF93CDB7DEB7809100
:100590000A03813009F060C0F8948091A703882392
:1005A00029F08091A70381508093A7038091A7032E
:1005B000882309F050C080910903882309F04BC0BB
:1005C0008091A103882F90E0FC01E85FFE4F8081BD
:1005D0008093A6038091A603282F220F220F220FBB
:1005E0008091A603882F90E0FC01EE55FC4F80819E
:1005F000882F90E0FC01E85FFE4F8081820F80939E
:100600000F0390910F0380911003981721F18091AF
:100610000F03882F90E0880F991FFC01E65CFA4FCA
:10062000808191819093A00380939F038091930395
:1006300090919403A0919503B09196030196A11D0A
:10064000B11D8093930390939403A0939503B0936B
:1006500096030E940E137894DF91CF910895CF9363
:10066000DF93CDB7DEB780910A03813059F4F89457
:10067000809109038F3F29F0809109038F5F809358
:1006800009037894DF91CF910895CF93DF93CDB78D
:10069000DEB780910A038130C9F4F8948091090390
:1006A000882399F0809109038150809309038091F8
:1006B0000903882341F48091A703882321F47894C7
:1006C0000E94430703C0789401C07894DF91CF91D2
:1006D0000895CF93DF93CDB7DEB722970FB6F89486
:1006E000DEBF0FBECDBF80910A038823E9F580915C
:1006F000A103882F90E0FC01E85FFE4F80818A8390
:100700008A81882F90E0FC01EE55FC4F8081882F74
:1007100090E0FC01E85FFE4F808189838A81982FF9
:10072000990F990F990F8981890F80930F038091F9
:100730000F038093100380910F03882F90E0880FA0
:10074000991FFC01E65CFA4F808191819093A00390
:1007500080939F0380919F039091A0039093A9039E
:100760008093A8030E94771222960FB6F894DEBFFA
:100770000FBECDBFDF91CF910895CF93DF93CDB75B
:10078000DEB782E090E00E944A11F89410920B03C9
:1007900010920C0310920D0310920E0378948DE3C7
:1007A00090E00E944A11F89480910B0390910C0301
:1007B000A0910D03B0910E0380939703909398033B
:1007C000A0939903B0939A0381E0809339057894BC
:1007D000DF91CF910895CF93DF93CDB7DEB7229706
:1007E0000FB6F894DEBF0FBECDBF0E9467028091A6
:1007F0000A03813009F058C08091110390911203CF
:100800009A8389834BC0F894E981FA818285938524
:100810000097E9F1E981FA81828593850197E98161
:10082000FA8193878287E981FA818285938500978F
:1008300071F5E981FA818485882F90E08870907045
:100840000097F9F4E981FA8191898091A103892BBC
:100850008093A103E981FA818785282F30E0E9811F
:10086000FA818785882F90E0FC01EE55FC4F90813E
:10087000E981FA818089892BF901EE55FC4F80834B
:1008800006C0E981FA8181E090E093878287E9815F
:10089000FA81828193819A8389837894E981FA81AC
:1008A00085858C3009F0AFCF22960FB6F894DEBF65
:1008B0000FBECDBFDF91CF910895CF93DF93CDB71A
:1008C000DEB78CEF90E0DF91CF910895CF93DF9367
:1008D000CDB7DEB7DF91CF910895CF93DF93CDB73A
:1008E000DEB72C970FB6F894DEBF0FBECDBF998749
:1008F00088877B876A874C87E885F9858181882F7F
:1009000090E0FC01E85FFE4F80818C838C81882F12
:1009100090E0FC01E050FF4F80818A838C81282F7A
:1009200030E088859985820F931FFC01369680817F
:10093000882F90E0FC01E85FFE4F80818D838D81E0
:10094000882F90E0FC01E050FF4F80818B838C81E9
:10095000982F990F990F990F8D81890F89838C8119
:10096000482F50E08C81282F30E088859985820FB0
:10097000931FFC0136968081982F8B818095892367
:10098000282F88859985840F951FFC013696208332
:1009900088859985840F951FFC0136968081882370
:1009A00051F4E885F9858181982F8A818095892382
:1009B000E885F98581838981882F90E0880F991FC8
:1009C000FC01E65CFA4F808191819F838E83EE81EA
:1009D000FF8113861286EE81FF8117821682EE81D7
:1009E000FF818A859B8591878087EE81FF81848541
:1009F000982F8C8580958923EE81FF818487EE81F5
:100A0000FF8184858823B1F49091A1038A81892B89
:100A10008093A1038C81282F30E08C81882F90E077
:100A2000FC01EE55FC4F90818B81892BF901EE552D
:100A3000FC4F80838981882F90E02C960FB6F89424
:100A4000DEBF0FBECDBFDF91CF910895CF93DF936F
:100A5000CDB7DEB722970FB6F894DEBF0FBECDBF7D
:100A60009A838983E091A803F091A90389819A81EF
:100A700097838683E091A803F091A9038785282FA7
:100A800030E0E091A803F091A9038785882F90E0DA
:100A9000FC01EE55FC4F8081982FE091A803F09166
:100AA000A903808980958923F901EE55FC4F808345
:100AB000F901EE55FC4F8081882361F4E091A80391
:100AC000F091A9038189982F90958091A1038923A2
:100AD0008093A103E091A803F091A9038785482F93
:100AE00050E0E091A803F091A9038785282F30E01A
:100AF00089819A81820F931FFC0136969081E09143
:100B0000A803F091A9038089292F282B89819A8134
:100B1000840F951FFC0136962083E981FA8191812B
:100B2000E091A803F091A9038189892BE981FA81D9
:100B3000818322960FB6F894DEBF0FBECDBFDF9142
:100B4000CF910895CF93DF93CDB7DEB722970FB63D
:100B5000F894DEBF0FBECDBF9A838983E091A803CE
:100B6000F091A9038785482F50E0E091A803F09108
:100B7000A9038785282F30E089819A81820F931FEE
:100B8000FC0136968081982FE091A803F091A9038B
:100B9000808980958923282F89819A81840F951FC8
:100BA000FC013696208389819A81840F951FFC0170
:100BB00036968081882371F4E981FA818181982FAA
:100BC000E091A803F091A903818980958923E981A7
:100BD000FA818183E091A803F091A9031486E09142
:100BE000A803F091A9031782168222960FB6F894F3
:100BF000DEBF0FBECDBFDF91CF910895CF93DF93BE
:100C0000CDB7DEB724970FB6F894DEBF0FBECDBFC9
:100C10009C838B83EB81FC8111828B819C81069666
:100C20009A838983E981FA81108289819A81019668
:100C30009A838983E981FA81108289819A81019658
:100C40009A83898324960FB6F894DEBF0FBECDBF7A
:100C5000DF91CF910895CF93DF93CDB7DEB726977D
:100C60000FB6F894DEBF0FBECDBF8AE294E09C833E
:100C70008B8382E394E09A8389831E821D8218C04D
:100C8000EB81FC811082EB81FC8189819A819583C3
:100C900084838B819C8108969C838B8389819A8134
:100CA00008969A8389838D819E8101969E838D8388
:100CB0008D819E818230910518F3EB81FC81108239
:100CC000EB81FC81158214828AE294E09093A50363
:100CD0008093A40326960FB6F894DEBF0FBECDBF57
:100CE000DF91CF910895CF93DF93CDB7DEB7109208
:100CF000A7031092090310929E0310920A03109208
:100D000093031092940310929503109296031092FD
:100D10000B0310920C0310920D0310920E03DF913F
:100D2000CF910895CF93DF93CDB7DEB724970FB659
:100D3000F894DEBF0FBECDBF1092A10382EA93E00C
:100D40009A8389831C821B820DC0E981FA811082FB
:100D500089819A8101969A8389838B819C810196EE
:100D60009C838B838B819C818230910570F31092E0
:100D7000100310920F031092A00310929F03109281
:100D8000A9031092A80324960FB6F894DEBF0FBEF5
:100D9000CDBFDF91CF910895CF93DF93CDB7DEB76D
:100DA00089E294E0EAEAF7E02CE0AC0160E070E070
:100DB000CF010E94710EDF91CF910895CF93DF9301
:100DC000CDB7DEB782E993E0EEECF7E02BE0AC01C3
:100DD00060E070E0CF010E94710EDF91CF91089525
:100DE000CF93DF93CDB7DEB725970FB6F894DEBF6C
:100DF0000FBECDBF10921203109211031D820DC0C1
:100E00008D81882F90E0880F991FFC01E65CFA4FD6
:100E1000118210828D818F5F8D838D818D3080F363
:100E200082E494E09C838B8385E594E09A838983B4
:100E30001D8213C0EB81FC8189819A819383828317
:100E40008B819C8143969C838B8389819A81439675
:100E50009A8389838D818F5F8D838D818C3050F350
:100E6000EB81FC811382128282E494E090939C03D4
:100E700080939B0325960FB6F894DEBF0FBECDBFBF
:100E8000DF91CF910895CF93DF93CDB7DEB7219750
:100E90000FB6F894DEBF0FBECDBFF8948091A703C4
:100EA000882309F04DC080910903882309F048C0C8
:100EB0008091A103882F90E0FC01E85FFE4F8081C4
:100EC00089838981282F220F220F220F8981882F61
:100ED00090E0FC01EE55FC4F8081882F90E0FC01F2
:100EE000E85FFE4F8081820F80930F0390910F0384
:100EF00080911003981721F180910F03882F90E0C3
:100F0000880F991FFC01E65CFA4F808191819093D4
:100F1000A00380939F038091930390919403A091E9
:100F20009503B09196030196A11DB11D8093930383
:100F300090939403A0939503B09396030E94AB12F1
:100F4000789421960FB6F894DEBF0FBECDBFDF9127
:100F5000CF910895CF93DF93CDB7DEB722970FB629
:100F6000F894DEBF0FBECDBF9A838983F894809139
:100F70000B0390910C03A0910D03B0910E03019609
:100F8000A11DB11D80930B0390930C03A0930D033F
:100F9000B0930E0378940E947C02E8CFCF93DF9346
:100FA000CDB7DEB72B970FB6F894DEBF0FBECDBF1F
:100FB0009B878A8704C08AE790E00E944A1180914B
:100FC00039058823C1F38091970390919803A091EC
:100FD0009903B0919A0324E630E040E050E0BC0170
:100FE000CD010E94C713DA01C9018A839B83AC83B8
:100FF000BD83F89480910B0390910C03A0910D0395
:10100000B0910E038093540590935505A093560517
:10101000B093570580910B0390910C03A0910D03A1
:10102000B0910E038E839F83A887B98710920B031C
:1010300010920C0310920D0310920E0378948A8183
:101040009B81AC81BD810097A105B105E1F08E8146
:101050009F81A885B9852A813B814C815D81BC0136
:10106000CD010E94C713DA01C901982F84E6891BBC
:1010700089838981882324F0898180939D031BC003
:1010800010929D0318C010929D0380919703909138
:101090009803A0919903B0919A0324E630E040E0D0
:1010A00050E0BC01CD010E94C713DA01C9018A8357
:1010B0009B83AC83BD830E9460028DE390E00E941D
:1010C0004A1197CFAF92BF92CF92DF92EF92FF92E9
:1010D0000F931F93CF93DF93CDB7DEB763970FB610
:1010E000F894DEBF0FBECDBF8B837D836C835F839F
:1010F0004E8339872887EA86FB860C871D87DF8623
:10110000CE86B98AA88AF89480919B0390919C031B
:101110009A83898389819A81009709F4A0C0E98123
:10112000FA818281938190939C0380939B037894AE
:10113000E981FA818C819D8191838083E981FA81A3
:101140008B818587E981FA811486E981FA8113868A
:101150001286E981FA81128A8B8186958695869519
:10116000E981FA818787E981FA818785882F90E074
:10117000FC01E050FF4F8081E981FA81818B8B81F6
:101180008770E981FA818687E981FA818685882FCF
:1011900090E0FC01E050FF4F8081E981FA81808B73
:1011A000E981FA8117821682E981FA811186108617
:1011B00089819A810E94830289819A810E942F02EB
:1011C000F8948B81882F90E0880F991FFC01E65CD2
:1011D000FA4F89819A819183808380911103909144
:1011E0001203E981FA8193838283E981FA8115826E
:1011F00014828091110390911203009741F0E091C5
:101200001103F091120389819A81958384838981E6
:101210009A819093120380931103E981FA81918955
:101220008091A103892B8093A103E981FA818785AD
:10123000282F30E0E981FA818785882F90E0FC0132
:10124000EE55FC4F9081E981FA818089892BF90163
:10125000EE55FC4F808378941B8A1A8A05C07894D7
:1012600086E490E09B8B8A8B8A899B8963960FB674
:10127000F894DEBF0FBECDBFDF91CF911F910F91CC
:10128000FF90EF90DF90CF90BF90AF900895CF93F5
:10129000DF93CDB7DEB726970FB6F894DEBF0FBE4B
:1012A000CDBF9C838B838091A703882319F01E8276
:1012B0001D8232C0F8948091A4039091A5039A8373
:1012C00089838091A4039091A503009751F0E09148
:1012D000A403F091A503848195819093A503809345
:1012E000A403789489819A81009791F0E981FA8129
:1012F00081E08083E981FA8113821282E981FA8197
:101300008B819C819583848389819A810E94FE05CB
:1013100089819A819E838D838D819E8126960FB6C9
:10132000F894DEBF0FBECDBFDF91CF910895CF936C
:10133000DF93CDB7DEB72A970FB6F894DEBF0FBEA6
:10134000CDBF9C838B837E836D8358874F83809131
:10135000A703882339F0EF81F88582E080831A861D
:10136000198665C0F894EB81FC81848195819A830C
:10137000898389819A81009769F0EB81FC811582CC
:1013800014827894EF81F885108289819A819A87F6
:1013900089874DC0A091A803B091A903E091A8034B
:1013A000F091A90384858260FD018487E091A80300
:1013B000F091A9038D819E81938782878B819C8187
:1013C0000E94260578940E944307F894E091A803B0
:1013D000F091A903808591859A83898389819A8177
:1013E0000097D1F0E091A803F091A903118610862F
:1013F000E091A803F091A9031486E091A803F0916D
:10140000A903178216827894EF81F885108289816A
:101410009A819A8789870BC08B819C810E94A20543
:101420007894EF81F8858AE080831A861986898509
:101430009A852A960FB6F894DEBF0FBECDBFDF9116
:10144000CF910895CF93DF93CDB7DEB726970FB630
:10145000F894DEBF0FBECDBF9A8389837C836B83F4
:10146000F894E981FA818181882379F08B819C81CC
:1014700029813A8142E0BC01C9010E946D0478943F
:101480000E9443071E821D8215C0E981FA81848172
:101490009581009731F0789484E190E09E838D836C
:1014A00009C0E981FA818B819C819583848378943A
:1014B0001E821D828D819E8126960FB6F894DEBF16
:1014C0000FBECDBFDF91CF910895CF93DF93CDB7FE
:1014D000DEB727970FB6F894DEBF0FBECDBF8B8364
:1014E0007D836C838091A703882339F0EC81FD8193
:1014F0008DE880831F821E8267C0F8948B81882FBD
:1015000090E0880F991FFC01E65CFA4F8081918181
:10151000009741F07894EC81FD8188E280831F82FE
:101520001E8252C08B81882F90E0880F991FFC018A
:10153000E65CFA4F81E090E0918380838091A40380
:101540009091A5039A83898389819A810097A1F458
:101550008B81882F90E0880F991FFC01E65CFA4F81
:10156000118210827894EC81FD8184E080838981EE
:101570009A819F838E8328C0E091A403F091A503F4
:10158000848195819093A5038093A4037894E98145
:10159000FA8184E080838B81882F90E0982F8827C0
:1015A0008F6FE981FA8193838283E981FA811582C1
:1015B000148289819A810E94FE05EC81FD8110824E
:1015C00089819A819F838E838E819F8127960FB612
:1015D000F894DEBF0FBECDBFDF91CF910895CF93BA
:1015E000DF93CDB7DEB72B970FB6F894DEBF0FBEF3
:1015F000CDBF9F838E83798768875B874A87809179
:10160000A703882329F0EA85FB8582E080831FC138
:10161000F894EE81FF81828193818F3F39F5EE81CD
:10162000FF81828193818070EE81FF819383828329
:10163000EE81FF8122813381E091A803F091A9031B
:101640008585882F90E0822B932BEE81FF819383F9
:1016500082838091A8039091A903EE81FF819583F5
:1016600084837894EA85FB851082F1C0EE81FF8146
:1016700082819381892F99278D83EE81FF818281D9
:1016800093818C83EE81FF81848195819A83898304
:10169000E981FA8195858D81981709F49DC0E091C3
:1016A000A803F091A90395858C81981708F094C040
:1016B000E981FA818785882F90E0FC01EE55FC4F87
:1016C0009081E981FA8180898923882359F1E98110
:1016D000FA818785282F30E0E981FA818785882F74
:1016E00090E0FC01EE55FC4F8081982FE981FA8152
:1016F000808980958923F901EE55FC4F8083F9019B
:10170000EE55FC4F8081882351F4E981FA8181896B
:10171000982F90958091A10389238093A10381E064
:101720008B8301C01B82E981FA818D818587E981E4
:10173000FA818585869586958695E981FA818787E0
:10174000E981FA818785882F90E0FC01E050FF4F06
:101750008081E981FA81818BE981FA8185858770B1
:10176000E981FA818687E981FA818685882F90E070
:10177000FC01E050FF4F8081E981FA81808B8B81F1
:101780008130F1F4E981FA8191898091A103892B5B
:101790008093A103E981FA818785282F30E0E981D0
:1017A000FA818785882F90E0FC01EE55FC4F9081EF
:1017B000E981FA818089892BF901EE55FC4F8083FC
:1017C0008D81882F90E0880F991FFC01E65CFA4F0D
:1017D00089819A8191838083A091A803B091A90304
:1017E000E091A803F091A90384858061FD018487BD
:1017F000E091A803F091A903888599859387828752
:101800008E819F810E94260578940E944307F89458
:10181000E091A803F091A9038485882F90E080715E
:101820009070009751F08E819F810E94A20578945C
:10183000EA85FB858AE080830AC0E091A803F091E5
:10184000A903178216827894EA85FB8510822B966D
:101850000FB6F894DEBF0FBECDBFDF91CF910895D4
:10186000CF93DF93CDB7DEB726970FB6F894DEBFE0
:101870000FBECDBF9C838B838091A703882329F063
:1018800085E090E09E838D831BC1F894EB81FC8101
:1018900082819381892F99278A83EB81FC818281C0
:1018A00093818983E091A803F091A90395858A81AA
:1018B000981771F0E091A803F091A90395858981AB
:1018C000981731F07894E8E7F0E0FE83ED83F8C0F4
:1018D000E091A803F091A90395858A81981709F0F2
:1018E0009CC0E091A803F091A9038785282F30E0E0
:1018F000E091A803F091A9038785882F90E0FC016F
:10190000EE55FC4F8081982FE091A803F091A90338
:10191000808980958923F901EE55FC4F8083F90178
:10192000EE55FC4F8081882361F4E091A803F0918B
:10193000A9038189982F90958091A1038923809391
:10194000A103E091A803F091A90389818587E09123
:10195000A803F091A9038981869586958695878746
:10196000A091A803B091A903E091A803F091A90365
:101970008785882F90E0FC01E050FF4F8081FD01BA
:10198000818BE091A803F091A903898187708687F4
:10199000A091A803B091A903E091A803F091A90335
:1019A0008685882F90E0FC01E050FF4F8081FD018B
:1019B000808BE091A803F091A90391898091A10304
:1019C000892B8093A103E091A803F091A903878557
:1019D000282F30E0E091A803F091A9038785882F94
:1019E00090E0FC01EE55FC4F9081E091A803F0914E
:1019F000A9038089892BF901EE55FC4F80838981E9
:101A0000882F90E02091A8033091A903880F991F97
:101A1000FC01E65CFA4F318320838A81882F90E0B5
:101A2000880F991FFC01E65CFA4F81E090E09183FA
:101A30008083EB81FC818181882391F18B819C8162
:101A400040E160E070E00E946D048983EB81FC81DD
:101A5000828193818070EB81FC8193838283EB810F
:101A6000FC81228133818981882F90E0822B932B06
:101A7000EB81FC81938382838981882F90E0880F9A
:101A8000991FFC01E65CFA4F80819181EB81FC811A
:101A90009583848378940E9443071E821D8210C020
:101AA000EB81FC81828193818F6FEB81FC81938339
:101AB0008283EB81FC811582148278941E821D82C0
:101AC0008D819E8126960FB6F894DEBF0FBECDBFE6
:101AD000DF91CF910895CF93DF93CDB7DEB72697EF
:101AE0000FB6F894DEBF0FBECDBF9C838B83809171
:101AF000A703882319F01E821D8232C0F8948091BA
:101B0000A4039091A5039A8389838091A403909163
:101B1000A503009751F0E091A403F091A5038481FF
:101B200095819093A5038093A403789489819A81E9
:101B3000009791F0E981FA8183E08083E981FA815D
:101B40008B819C8193838283E981FA81158214823F
:101B500089819A810E94FE0589819A819E838D8365
:101B60008D819E8126960FB6F894DEBF0FBECDBF45
:101B7000DF91CF910895CF93DF93CDB7DEB726974E
:101B80000FB6F894DEBF0FBECDBF9A8389837C83E6
:101B90006B835E834D838091A703882329F0ED81B9
:101BA000FE8182E0808350C0F894E981FA818281CD
:101BB0009381009771F0E981FA8182819381019785
:101BC000E981FA81938382837894ED81FE8110828A
:101BD0003BC0A091A803B091A903E091A803F091A4
:101BE000A90384858160FD018487E091A803F091B9
:101BF000A9038B819C819387828789819A810E9426
:101C0000260578940E944307F894E091A803F09188
:101C1000A9038485882F90E081709070882351F00B
:101C200089819A810E94A2057894ED81FE818AE0E3
:101C300080830AC0E091A803F091A903178216825D
:101C40007894ED81FE81108226960FB6F894DEBF5F
:101C50000FBECDBFDF91CF910895CF93DF93CDB766
:101C6000DEB724970FB6F894DEBF0FBECDBF9A83C0
:101C70008983F894E981FA818181882369F08981D7
:101C80009A8141E060E070E00E946D0478940E94C7
:101C900043071C821B821AC0E981FA8182819381E9
:101CA0002FEF8F3F920769F0E981FA81828193815A
:101CB0000196E981FA819383828378941C821B8246
:101CC00005C0789482E390E09C838B838B819C8118
:101CD00024960FB6F894DEBF0FBECDBFDF91CF9133
:101CE0000895AF92BF92CF92DF92EF92FF920F933F
:101CF0001F93CF93DF93CDB7DEB72C970FB6F89431
:101D0000DEBF0FBECDBF9D838C837F836E835987DB
:101D100048872A87F8948A85882F90E0880F991F32
:101D2000FC01E65CFA4F80819181009709F050C078
:101D30008A85882F90E0880F991FFC01E65CFA4F96
:101D400081E090E0918380837894888599856E8185
:101D50007F81EC81FD8120E030E0AC01CF010E9469
:101D6000DB009B838A838A819B81AA24BB24CC24A9
:101D7000DD24EE24FF24870120E030E040E050E045
:101D8000BC018A850E94620889838981882371F455
:101D9000F89480919E038F5F80939E037894809146
:101DA0000A03813079F40E9443070CC0F8948A85B5
:101DB000882F90E0880F991FFC01E65CFA4F118292
:101DC000108278948981282F30E03C872B8705C0CA
:101DD000789488E290E09C878B878B859C852C96F5
:101DE0000FB6F894DEBF0FBECDBFDF91CF911F912C
:101DF0000F91FF90EF90DF90CF90BF90AF9008953C
:101E0000CF93DF93CDB7DEB728970FB6F894DEBF38
:101E10000FBECDBF8E838091A703882329F08FE367
:101E200090E098878F83F6C0F8948E818F3F31F4CD
:101E3000E091A803F091A90385858E838E81882F78
:101E400090E0880F991FFC01E65CFA4F8081918138
:101E50009B838A838A819B81009709F4D6C0EA819B
:101E6000FB818785282F30E0EA81FB818785882FD9
:101E700090E0FC01EE55FC4F8081982FEA81FB81B8
:101E8000808980958923F901EE55FC4F8083F90103
:101E9000EE55FC4F8081882351F4EA81FB818189D2
:101EA000982F90958091A10389238093A103EA81C3
:101EB000FB81868197819D838C838C819D81009796
:101EC000A1F1EA81FB818785482F50E0EA81FB81FF
:101ED0008785282F30E08C819D81820F931FFC0124
:101EE00036968081982FEA81FB81808980958923AD
:101EF000282F8C819D81840F951FFC0136962083AD
:101F00008C819D81840F951FFC01369680818823EA
:101F100061F4EC81FD818181982FEA81FB818189C7
:101F200080958923EC81FD818183EA81FB81138681
:101F30001286EA81FB811486809109038F3F29F084
:101F4000809109038F5F8093090378940E9466044F
:101F5000F89480910903882329F080910903815026
:101F6000809309038A819B810E94440280919E0391
:101F7000815080939E038E81882F90E0880F991F57
:101F8000FC01E65CFA4F11821082EA81FB818481B8
:101F90009581009781F4EA81FB810280F381E02D35
:101FA00015821482EA81FB818281938190931203CE
:101FB0008093110316C0EA81FB81A481B581EA8177
:101FC000FB8182819381FD0193838283EA81FB817E
:101FD000A281B381EA81FB8184819581FD01958392
:101FE000848380919B0390919C03EA81FB8193837E
:101FF00082838A819B8190939C0380939B03789436
:102000000E94430718861F8205C078948CE390E0F5
:1020100098878F838F81988528960FB6F894DEBFB6
:102020000FBECDBFDF91CF910895CF93DF93CDB792
:10203000DEB727970FB6F894DEBF0FBECDBF8D83F6
:102040008D818F3F71F4F894E091A803F091A9037A
:1020500082898C8378948C81282F30E03F832E8373
:102060001FC0F8948D81882F90E0880F991FFC0184
:10207000E65CFA4F808191819A83898389819A8174
:10208000009731F0E981FA818EE3828B1B8202C0D6
:102090008BE08B8378948B81282F30E03F832E83D5
:1020A0008E819F8127960FB6F894DEBF0FBECDBFFD
:1020B000DF91CF910895CF93DF93CDB7DEB725970A
:1020C0000FB6F894DEBF0FBECDBF8B83F8948B8123
:1020D000882F90E0880F991FFC01E65CFA4F808101
:1020E00091819A83898389819A81009731F47894C8
:1020F00084E690E09D838C8346C0E981FA818485E3
:10210000882F90E0887090700097C1F1E981FA8182
:102110008485877FE981FA818487E981FA818485D2
:10212000882341F5E981FA8182859385009711F52D
:10213000E981FA8191898091A103892B8093A10380
:10214000E981FA818785282F30E0E981FA81878546
:10215000882F90E0FC01EE55FC4F9081E981FA81D7
:102160008089892BF901EE55FC4F808378940E9479
:10217000430701C078941D821C8205C0789485E6CF
:1021800090E09D838C838C819D8125960FB6F89479
:10219000DEBF0FBECDBFDF91CF910895CF93DF9308
:1021A000CDB7DEB726970FB6F894DEBF0FBECDBF12
:1021B0008C83F8948C818F3F49F4E091A803F091CF
:1021C000A90385858C8381E08B830CC0E091A803F3
:1021D000F091A90395858C81981719F481E08B8380
:1021E00001C01B828C81882F90E0880F991FFC0111
:1021F000E65CFA4F808191819A83898389819A81F3
:10220000009731F478948AE590E09E838D8337C0FF
:10221000E981FA818785282F30E0E981FA81878575
:10222000882F90E0FC01EE55FC4F8081982FE981CA
:10223000FA81808980958923F901EE55FC4F8083CE
:10224000F901EE55FC4F8081882351F4E981FA8130
:102250008189982F90958091A10389238093A10370
:10226000E981FA8184858860E981FA81848778949C
:102270008B81813011F40E9443071E821D828D8163
:102280009E8126960FB6F894DEBF0FBECDBFDF91BC
:10229000CF910895CF93DF93CDB7DEB722970FB6D6
:1022A000F894DEBF0FBECDBF9A83898389819A815E
:1022B000009709F43CC0F894E091A803F091A903B9
:1022C0008785282F30E0E091A803F091A903878546
:1022D000882F90E0FC01EE55FC4F8081982FE09113
:1022E000A803F091A903808980958923F901EE550F
:1022F000FC4F8083F901EE55FC4F8081882361F407
:10230000E091A803F091A9038189982F909580917D
:10231000A10389238093A103E091A803F091A9036D
:1023200089819A819387828778940E9443072296B5
:102330000FB6F894DEBF0FBECDBFDF91CF910895E9
:10234000EF92FF920F931F93CF93DF93CDB7DEB73A
:102350002D970FB6F894DEBF0FBECDBF8F83688771
:1023600049873B872A878F81882359F4888588236A
:1023700041F48985882329F48A859B85009709F48F
:10238000A3C088858C3328F081E590E09D878C87F9
:102390009FC089858C3328F082E590E09D878C87EB
:1023A00097C08A859B8523E0883E920728F083E5C5
:1023B00090E09D878C878CC08F81882F90E0A0E073
:1023C000B0E020E13EE040E050E0BC01CD010E94E1
:1023D000A8137B018C018885882F90E0A0E0B0E0F5
:1023E0002CE330E040E050E0BC01CD010E94A81396
:1023F000DC01CB01A8019701280F391F4A1F5B1F81
:102400008985882F90E0A0E0B0E0820F931FA41F81
:10241000B51F2DE330E040E050E0BC01CD010E944B
:10242000A8137B018C018A859B85CC01A0E0B0E0DC
:102430002DE330E040E050E0BC01CD010E94A81344
:10244000DC01CB0188519E4FAF4FBF4F28EE33E0E8
:1024500040E050E0BC01CD010E94C713DA01C90180
:102460008E0D9F1DA01FB11F8B839C83AD83BE83E8
:102470008B819C81AD81BE81CD01AA27BB279A8328
:1024800089838B819C81AD81BE81A070B0708B836C
:102490009C83AD83BE838B819C810E944A110DC0B9
:1024A00080E090E80E944A1180E090E80E944A1182
:1024B00089819A8101979A83898389819A8100977A
:1024C00079F71D861C8604C084E590E09D878C8783
:1024D0008C859D852D960FB6F894DEBF0FBECDBFBF
:1024E000DF91CF911F910F91FF90EF9008950E947F
:1024F000590200910A03039500930A03E0919F0398
:10250000F091A003C191CDBFD191DEBF0F910FBF5C
:102510000F910BBFFF91EF91DF91CF91BF91AF91E1
:102520009F918F917F916F915F914F913F912F91EB
:102530001F910F91FF90EF90DF90CF90BF90AF90E1
:102540009F908F907F906F905F904F903F902F90D3
:102550001F900F9008950F921F922F923F924F92CB
:102560005F926F927F928F929F92AF92BF92CF9223
:10257000DF92EF92FF920F931F932F933F934F930E
:102580005F936F937F938F939F93AF93BF93CF93FB
:10259000DF93EF93FF930BB70F930FB70F93E09178
:1025A000A803F091A903CDB7C193DEB7D1930E94E0
:1025B000590200910F0300931003E0919F03F091E3
:1025C000A003E093A803F093A903C191CDBFD191DB
:1025D000DEBF0F910FBF0F910BBFFF91EF91DF9106
:1025E000CF91BF91AF919F918F917F916F915F91AB
:1025F0004F913F912F911F910F91FF90EF90DF909E
:10260000CF90BF90AF909F908F907F906F905F9092
:102610004F903F902F901F900F9008950E94590265
:1026200000910F0300931003E0919F03F091A0032A
:10263000E093A803F093A903C191CDBFD191DEBF70
:102640000F910FBF0F910BBFFF91EF91DF91CF91D2
:10265000BF91AF919F918F917F916F915F914F91BA
:102660003F912F911F910F91FF90EF90DF90CF90AE
:10267000BF90AF909F908F907F906F905F904F90A2
:102680003F902F901F900F9008950F921F922F92BE
:102690003F924F925F926F927F928F929F92AF92F2
:1026A000BF92CF92DF92EF92FF920F931F932F93DF
:1026B0003F934F935F936F937F938F939F93AF93CA
:1026C000BF93CF93DF93EF93FF930BB70F930FB7A6
:1026D00000680F930091A70303950093A7030130AF
:1026E00041F4CDB7DEB7E091A803F091A903C193FF
:1026F000D19300E002BFF0E01F2E78940E94EB031C
:1027000000000E94C3020F910FBF0F910BBFFF91FA
:10271000EF91DF91CF91BF91AF919F918F917F9179
:102720006F915F914F913F912F911F910F91FF906A
:10273000EF90DF90CF90BF90AF909F908F907F9061
:102740006F905F904F903F902F901F900F90089543
:10275000629FD001739FF001829FE00DF11D649F85
:10276000E00DF11D929FF00D839FF00D749FF00D11
:10277000659FF00D9927729FB00DE11DF91F639FB2
:10278000B00DE11DF91FBD01CF0111240895A1E293
:102790001A2EAA1BBB1BFD010DC0AA1FBB1FEE1FDB
:1027A000FF1FA217B307E407F50720F0A21BB30B26
:1027B000E40BF50B661F771F881F991F1A9469F7A2
:1027C00060957095809590959B01AC01BD01CF01FE
:0427D0000895FFCF9A
:1027D40001020408102040800000010002000100F2
:1027E40003000100020001000400010002000100D6
:1027F40003000100020001000500010002000100C5
:1028040003000100020001000400010002000100B5
:1028140003000100020001000600010002000100A3
:102824000300010002000100040001000200010095
:102834000300010002000100050001000200010084
:102844000300010002000100040001000200010075
:102854000300010002000100070001000200010062
:102864000300010002000100040001000200010055
:102874000300010002000100050001000200010044
:102884000300010002000100040001000200010035
:102894000300010002000100060001000200010023
:1028A4000300010002000100040001000200010015
:1028B4000300010002000100050001000200010004
:1028C40003000100020001000400010002000100F5
:0828D4000300010002000100F5
:00000001FF
