:100000000C9446000C9465000C9465000C946500FB
:100010000C9465000C9465000C9465000C946500CC
:100020000C9465000C9465000C9465000C946500BC
:100030000C9465000C9465000C9465000C946500AC
:100040000C9429140C9465000C9465000C946500C4
:100050000C9465000C9465000C9465000C9465008C
:100060000C9465000C9465000C9465000C9465007C
:100070000C9465000C9465000C9465000C9465006C
:100080000C9465000C9465000C94650011241FBE4F
:10009000CFEFD0E1DEBFCDBF12E0A0E0B1E0E4E8F9
:1000A000FFE200E00BBF02C007900D92A431B10740
:1000B000D9F716E0A4E1B2E001C01D92A530B10766
:1000C000E1F70E94DD000C94C1170C940000CF935F
:1000D000DF93CDB7DEB7E4E7F0E084EA8083E4E7BE
:1000E000F0E080818823DCF7DF91CF910895CF93F2
:1000F000DF93CDB7DEB7E4E7F0E084E98083DF91FA
:10010000CF910895CF93DF93CDB7DEB7E4E7F0E06A
:1001100084EC8083E4E7F0E080818823DCF7E3E788
:10012000F0E0808180931402DF91CF910895CF9306
:10013000DF93CDB7DEB7E4E7F0E084E88083E4E75F
:10014000F0E080818823DCF7E3E7F0E080818093B2
:100150001402DF91CF910895CF93DF93CDB7DEB72F
:1001600021970FB6F894DEBF0FBECDBF8983E3E7BA
:10017000F0E089818083E4E7F0E084E88083E4E7CD
:10018000F0E080818823DCF721960FB6F894DEBF7B
:100190000FBECDBFDF91CF910895CF93DF93CDB741
:1001A000DEB7E4E7F0E084EA8083E4E7F0E0808112
:1001B0008823DCF7DF91CF910895CF93DF93CDB7FC
:1001C000DEB7E9E2F0E087E68083EBE2F0E0108260
:1001D000EAE2F0E088E18083E5E9F0E086E0808310
:1001E000E3E5F0E087E08083E7E5F0E081E080830D
:1001F000E0E7F0E082E180830E947C0384E992E002
:10020000E4E2F1E024E0AC016FEF70E0CF010E9486
:10021000550F86E193E0E2E4F1E025E0AC016FEFF9
:1002200070E0CF010E94550F85EB93E0E2E9F1E029
:1002300026E0AC016FEF70E0CF010E94550F0E94E5
:100240004D04DF91CF910895CF93DF93CDB7DEB703
:100250000E94670080ED0E94AC0080E00E94AC002C
:1002600089E20E94AC0086E00E94AC0084E00E941B
:10027000AC000E94770085E00E943F1184E00E945C
:10028000B211E6CFCF93DF93CDB7DEB70E94670000
:1002900080ED0E94AC0080E00E94AC000E94CD0086
:1002A00081ED0E94AC000E94820080911402809334
:1002B00096020E94820080911402809395020E940F
:1002C000970080911402809317030E947700809119
:1002D0009602482F50E080919502282F30E08091BF
:1002E0001703882F90E05F934F933F932F939F9333
:1002F0008F9380E091E09F938F9388E193E09F93A9
:100300008F930E948C148DB79EB70A960FB6F894FF
:100310009EBF0FBE8DBF86E00E943F1185E00E9408
:10032000B211B4CFCF93DF93CDB7DEB722970FB61C
:10033000F894DEBF0FBECDBF1A82198217C0ACE29F
:10034000B0E089819A81FC01E85EFC4F80818C934A
:10035000EBE2F0E08081882F90E08072907000974F
:10036000B9F389819A8101969A83898389819A81D7
:10037000FC01E85EFC4F8081882309F7DDCFCF9335
:10038000DF93CDB7DEB72C970FB6F894DEBF0FBE64
:10039000CDBF9E838D8378876F835A8749873C873B
:1003A0002B8789859A859C838B838D819E819A83F7
:1003B00089838981EB81FC8180838B819C8101977A
:1003C0009C838B8389819A81892F9927EB81FC817A
:1003D00080838B819C8101979C838B83EB81FC8143
:1003E00010828B819C8101979C838B83EB81FC81A4
:1003F00010828B819C8101979C838B83EB81FC8194
:1004000010828B819C8101979C838B83EB81FC8183
:1004100010828B819C8101979C838B83EB81FC8173
:1004200010828B819C8101979C838B83EB81FC8163
:1004300010828B819C8101979C838B83EB81FC8153
:1004400010828B819C8101979C838B83EB81FC8143
:1004500010828B819C8101979C838B83EB81FC8133
:1004600010828B819C8101979C838B83EB81FC8123
:1004700010828B819C8101979C838B83EB81FC8113
:1004800010828B819C8101979C838B83EB81FC8103
:1004900010828B819C8101979C838B83EB81FC81F3
:1004A00010828B819C8101979C838B83EB81FC81E3
:1004B00010828B819C8101979C838B83EB81FC81D3
:1004C00010828B819C8101979C838B83EB81FC81C3
:1004D00010828B819C8101979C838B83EB81FC81B3
:1004E00010828B819C8101979C838B83EB81FC81A3
:1004F00010828B819C8101979C838B83EB81FC8193
:1005000010828B819C8101979C838B83EB81FC8182
:1005100010828B819C8101979C838B83EB81FC8172
:1005200010828B819C8101979C838B83EB81FC8162
:1005300010828B819C8101979C838B83EB81FC8152
:1005400010828B819C8101979C838B83EB81FC8142
:1005500010828B819C8101979C838B838F819885EE
:100560009A8389838981EB81FC8180838B819C8143
:1005700001979C838B8389819A81892F9927EB81AD
:10058000FC8180838B819C8101979C838B83EB8191
:10059000FC8110828B819C8101979C838B83EB81F2
:1005A000FC8110828B819C8101979C838B83EB81E2
:1005B000FC8110828B819C8101979C838B83EB81D2
:1005C000FC8110828B819C8101979C838B83EB81C2
:1005D000FC8110828B819C8101979C838B83EB81B2
:1005E000FC8110828B819C8101979C838B83EB81A2
:1005F000FC8110828B819C8101979C838B83EB8192
:10060000FC8180E880838B819C8101979C838B8314
:100610008B819C812C960FB6F894DEBF0FBECDBFA8
:10062000DF91CF910895CF93DF93CDB7DEB72297B7
:100630000FB6F894DEBF0FBECDBF9A838983229692
:100640000FB6F894DEBF0FBECDBFDF91CF910895F6
:10065000CF93DF93CDB7DEB722970FB6F894DEBF06
:100660000FBECDBF9A83898322960FB6F894DEBF62
:100670000FBECDBFDF91CF910895CF93DF93CDB75C
:10068000DEB7DF91CF910895CF93DF93CDB7DEB77B
:10069000DF91CF910895CF93DF93CDB7DEB7DF9190
:1006A000CF910895CF93DF93CDB7DEB7DF91CF9190
:1006B0000895CF93DF93CDB7DEB7DF91CF91089543
:1006C000CF93DF93CDB7DEB7DF91CF910895CF936E
:1006D000DF93CDB7DEB722970FB6F894DEBF0FBE1B
:1006E000CDBF9A83898322960FB6F894DEBF0FBEE2
:1006F000CDBFDF91CF910895CF93DF93CDB7DEB714
:100700000E9452030E9457070E9476070E94D40756
:100710000E940F070E94B0070E94C2070E9459035F
:10072000DF91CF910895CF93DF93CDB7DEB780915E
:10073000B703813049F4809154048F3F29F08091B0
:1007400054048F5F80935404DF91CF910895CF9329
:10075000DF93CDB7DEB78091B703813009F060C079
:10076000F89480915404882329F080915404815096
:100770008093540480915404882309F050C08091E0
:10078000B603882309F04BC080914E04882F90E077
:10079000FC01ED5EFE4F80818093530480915304F1
:1007A000282F220F220F220F80915304882F90E0D0
:1007B000FC01E15BFB4F8081882F90E0FC01ED5E46
:1007C000FE4F8081820F8093BC039091BC03809187
:1007D000BD03981721F18091BC03882F90E0880F0A
:1007E000991FFC01E951FA4F8081918190934D044A
:1007F00080934C048091400490914104A091420464
:10080000B09143040196A11DB11D809340049093C3
:100810004104A0934204B09343040E94F2137894DD
:10082000DF91CF910895CF93DF93CDB7DEB780915D
:10083000B703813059F4F8948091B6038F3F29F0C3
:100840008091B6038F5F8093B6037894DF91CF9148
:100850000895CF93DF93CDB7DEB78091B703813092
:10086000C9F4F8948091B603882399F08091B60377
:1008700081508093B6038091B603882341F4809120
:100880005404882321F478940E94270803C07894A4
:1008900001C07894DF91CF910895CF93DF93CDB7C6
:1008A000DEB722970FB6F894DEBF0FBECDBF8091A2
:1008B000B7038823E9F580914E04882F90E0FC016E
:1008C000ED5EFE4F80818A838A81882F90E0FC0153
:1008D000E15BFB4F8081882F90E0FC01ED5EFE4FD5
:1008E000808189838A81982F990F990F990F898127
:1008F000890F8093BC038091BC038093BD038091DA
:10090000BC03882F90E0880F991FFC01E951FA4F32
:100910008081918190934D0480934C0480914C048C
:1009200090914D0490935604809355040E945B135C
:1009300022960FB6F894DEBF0FBECDBFDF91CF91E8
:100940000895CF93DF93CDB7DEB782E090E00E94A9
:100950002E12F8941092B8031092B9031092BA03B1
:100960001092BB0378948DE390E00E942E12F894CD
:100970008091B8039091B903A091BA03B091BB03E1
:100980008093440490934504A0934604B093470495
:1009900081E08093E6057894DF91CF910895CF931D
:1009A000DF93CDB7DEB722970FB6F894DEBF0FBE48
:1009B000CDBF0E944B038091B703813009F058C02E
:1009C0008091BE039091BF039A8389834BC0F894B2
:1009D000E981FA81828593850097E9F1E981FA81BD
:1009E000828593850197E981FA8193878287E981DE
:1009F000FA8182859385009771F5E981FA81848572
:100A0000882F90E0887090700097F9F4E981FA815E
:100A1000918980914E04892B80934E04E981FA815B
:100A20008785282F30E0E981FA818785882F90E03B
:100A3000FC01E15BFB4F9081E981FA818089892B80
:100A4000F901E15BFB4F808306C0E981FA8181E017
:100A500090E093878287E981FA81828193819A83EA
:100A600089837894E981FA8185858C3009F0AFCF4C
:100A700022960FB6F894DEBF0FBECDBFDF91CF91A7
:100A80000895CF93DF93CDB7DEB78CEF90E0DF9181
:100A9000CF910895CF93DF93CDB7DEB7DF91CF919C
:100AA0000895CF93DF93CDB7DEB72C970FB6F894A8
:100AB000DEBF0FBECDBF998788877B876A874C874B
:100AC000E885F9858181882F90E0FC01ED5EFE4F7D
:100AD00080818C838C81882F90E0FC01E55FFE4F44
:100AE00080818A838C81282F30E088859985820FC8
:100AF000931FFC0136968081882F90E0FC01ED5E0B
:100B0000FE4F80818D838D81882F90E0FC01E55F11
:100B1000FE4F80818B838C81982F990F990F990FAD
:100B20008D81890F89838C81482F50E08C81282FFB
:100B300030E088859985820F931FFC01369680816D
:100B4000982F8B8180958923282F88859985840FFC
:100B5000951FFC013696208388859985840F951F03
:100B6000FC0136968081882351F4E885F9858181DE
:100B7000982F8A8180958923E885F98581838981E9
:100B8000882F90E0880F991FFC01E951FA4F80816E
:100B900091819F838E83EE81FF8113861286EE8181
:100BA000FF8117821682EE81FF818A859B8591875E
:100BB0008087EE81FF818485982F8C85809589239D
:100BC000EE81FF818487EE81FF8184858823B1F4E3
:100BD00090914E048A81892B80934E048C81282F1A
:100BE00030E08C81882F90E0FC01E15BFB4F90812D
:100BF0008B81892BF901E15BFB4F80838981882FF1
:100C000090E02C960FB6F894DEBF0FBECDBFDF91FB
:100C1000CF910895CF93DF93CDB7DEB722970FB66C
:100C2000F894DEBF0FBECDBF9A838983E09155044F
:100C3000F091560489819A8197838683E0915504C7
:100C4000F09156048785282F30E0E0915504F0910B
:100C500056048785882F90E0FC01E15BFB4F808183
:100C6000982FE0915504F09156048089809589234E
:100C7000F901E15BFB4F8083F901E15BFB4F808170
:100C8000882361F4E0915504F09156048189982FEE
:100C9000909580914E04892380934E04E0915504F1
:100CA000F09156048785482F50E0E0915504F0916B
:100CB00056048785282F30E089819A81820F931FFF
:100CC000FC0136969081E0915504F091560480899C
:100CD000292F282B89819A81840F951FFC01369634
:100CE0002083E981FA819181E0915504F0915604C5
:100CF0008189892BE981FA81818322960FB6F89444
:100D0000DEBF0FBECDBFDF91CF910895CF93DF93AC
:100D1000CDB7DEB722970FB6F894DEBF0FBECDBFBA
:100D20009A838983E0915504F09156048785482F72
:100D300050E0E0915504F09156048785282F30E06B
:100D400089819A81820F931FFC0136968081982FAA
:100D5000E0915504F0915604808980958923282FCD
:100D600089819A81840F951FFC01369620838981A1
:100D70009A81840F951FFC0136968081882371F437
:100D8000E981FA818181982FE0915504F091560410
:100D9000818980958923E981FA818183E0915504D5
:100DA000F09156041486E0915504F0915604178290
:100DB000168222960FB6F894DEBF0FBECDBFDF912C
:100DC000CF910895CF93DF93CDB7DEB724970FB6B9
:100DD000F894DEBF0FBECDBF9C838B83EB81FC817B
:100DE00011828B819C8106969A838983E981FA819D
:100DF000108289819A8101969A838983E981FA8197
:100E0000108289819A8101969A83898324960FB6EC
:100E1000F894DEBF0FBECDBFDF91CF910895CF9381
:100E2000DF93CDB7DEB726970FB6F894DEBF0FBEBF
:100E3000CDBF87ED94E09C838B838FED94E09A8304
:100E400089831E821D8218C0EB81FC811082EB8198
:100E5000FC8189819A81958384838B819C8108960A
:100E60009C838B8389819A8108969A8389838D815B
:100E70009E8101969E838D838D819E818230910516
:100E800018F3EB81FC811082EB81FC8115821482C6
:100E900087ED94E0909352048093510426960FB608
:100EA000F894DEBF0FBECDBFDF91CF910895CF93F1
:100EB000DF93CDB7DEB7109254041092B6031092B0
:100EC0004B041092B7031092400410924104109208
:100ED0004204109243041092B8031092B903109286
:100EE000BA031092BB03DF91CF910895CF93DF93A4
:100EF000CDB7DEB724970FB6F894DEBF0FBECDBFD7
:100F000010924E048FE494E09A8389831C821B82A2
:100F10000DC0E981FA81108289819A8101969A83B4
:100F200089838B819C8101969C838B838B819C819F
:100F30008230910570F31092BD031092BC031092A1
:100F40004D0410924C0410925604109255042496AD
:100F50000FB6F894DEBF0FBECDBFDF91CF910895DD
:100F6000CF93DF93CDB7DEB786ED94E0EEE8F8E0FF
:100F70002CE0AC0160E070E0CF010E94550FDF91E2
:100F8000CF910895CF93DF93CDB7DEB78FE394E091
:100F9000E2EBF8E02BE0AC0160E070E0CF010E94F2
:100FA000550FDF91CF910895CF93DF93CDB7DEB783
:100FB00025970FB6F894DEBF0FBECDBF1092BF03CA
:100FC0001092BE031D820DC08D81882F90E0880F86
:100FD000991FFC01E951FA4F118210828D818F5FB8
:100FE0008D838D818D3080F38FEE94E09C838B8395
:100FF00082E095E09A8389831D8213C0EB81FC8196
:1010000089819A81938382838B819C8143969C837F
:101010008B8389819A8143969A8389838D818F5F9F
:101020008D838D818C3050F3EB81FC811382128291
:101030008FEE94E0909349048093480425960FB670
:10104000F894DEBF0FBECDBFDF91CF910895CF934F
:10105000DF93CDB7DEB721970FB6F894DEBF0FBE92
:10106000CDBFF89480915404882309F04DC080913D
:10107000B603882309F048C080914E04882F90E081
:10108000FC01ED5EFE4F808189838981282F220F2C
:10109000220F220F8981882F90E0FC01E15BFB4F3A
:1010A0008081882F90E0FC01ED5EFE4F8081820FF1
:1010B0008093BC039091BC038091BD03981721F1EC
:1010C0008091BC03882F90E0880F991FFC01E951A3
:1010D000FA4F8081918190934D0480934C048091CC
:1010E000400490914104A0914204B09143040196C0
:1010F000A11DB11D8093400490934104A09342042C
:10110000B09343040E948F13789421960FB6F894FD
:10111000DEBF0FBECDBFDF91CF910895CF93DF9398
:10112000CDB7DEB722970FB6F894DEBF0FBECDBFA6
:101130009A838983F8948091B8039091B903A09120
:10114000BA03B091BB030196A11DB11D8093B803F2
:101150009093B903A093BA03B093BB0378940E9411
:101160006003E8CFCF93DF93CDB7DEB72B970FB6F1
:10117000F894DEBF0FBECDBF9B878A8704C08AE785
:1011800090E00E942E128091E6058823C1F38091A1
:10119000440490914504A0914604B091470424E68C
:1011A00030E040E050E0BC01CD010E946817DA0158
:1011B000C9018A839B83AC83BD83F8948091B80373
:1011C0009091B903A091BA03B091BB03809301063B
:1011D00090930206A0930306B09304068091B8038F
:1011E0009091B903A091BA03B091BB038E839F8302
:1011F000A887B9871092B8031092B9031092BA0366
:101200001092BB0378948A819B81AC81BD81009749
:10121000A105B105E1F08E819F81A885B9852A815C
:101220003B814C815D81BC01CD010E946817DA01D0
:10123000C901982F84E6891B89838981882324F03A
:10124000898180934A041BC010924A0418C01092EE
:101250004A048091440490914504A0914604B091C1
:10126000470424E630E040E050E0BC01CD010E949C
:101270006817DA01C9018A839B83AC83BD830E940E
:1012800044038DE390E00E942E1297CFAF92BF925D
:10129000CF92DF92EF92FF920F931F93CF93DF9342
:1012A000CDB7DEB763970FB6F894DEBF0FBECDBFE4
:1012B0008B837D836C835F834E8339872887EA869F
:1012C000FB860C871D87DF86CE86B98AA88AF894AC
:1012D00080914804909149049A83898389819A81F5
:1012E000009709F4A0C0E981FA81828193819093EB
:1012F0004904809348047894E981FA818C819D8126
:1013000091838083E981FA818B818587E981FA81E4
:101310001486E981FA8113861286E981FA81128A9C
:101320008B81869586958695E981FA818787E98103
:10133000FA818785882F90E0FC01E55FFE4F808170
:10134000E981FA81818B8B818770E981FA818687B7
:10135000E981FA818685882F90E0FC01E55FFE4FE8
:101360008081E981FA81808BE981FA811782168276
:10137000E981FA811186108689819A810E9467032A
:1013800089819A810E941303F8948B81882F90E0C1
:10139000880F991FFC01E951FA4F89819A81918345
:1013A00080838091BE039091BF03E981FA8193838A
:1013B0008283E981FA81158214828091BE03909123
:1013C000BF03009741F0E091BE03F091BF03898114
:1013D0009A819583848389819A819093BF038093B6
:1013E000BE03E981FA81918980914E04892B809313
:1013F0004E04E981FA818785282F30E0E981FA815E
:101400008785882F90E0FC01E15BFB4F9081E981AB
:10141000FA818089892BF901E15BFB4F8083789405
:101420001B8A1A8A05C0789486E490E09B8B8A8B8D
:101430008A899B8963960FB6F894DEBF0FBECDBF35
:10144000DF91CF911F910F91FF90EF90DF90CF90A0
:10145000BF90AF900895CF93DF93CDB7DEB72697B7
:101460000FB6F894DEBF0FBECDBF9C838B838091F7
:101470005404882319F01E821D8232C0F894809192
:101480005104909152049A838983809151049091E0
:101490005204009751F0E0915104F091520484817C
:1014A00095819093520480935104789489819A8114
:1014B000009791F0E981FA8181E08083E981FA81E6
:1014C00013821282E981FA818B819C8195838483C6
:1014D00089819A810E94E20689819A819E838D8307
:1014E0008D819E8126960FB6F894DEBF0FBECDBFCC
:1014F000DF91CF910895CF93DF93CDB7DEB72A97D1
:101500000FB6F894DEBF0FBECDBF9C838B837E8366
:101510006D8358874F8380915404882339F0EF817D
:10152000F88582E080831A86198665C0F894EB817D
:10153000FC81848195819A83898389819A8100972E
:1015400069F0EB81FC81158214827894EF81F88533
:10155000108289819A819A8789874DC0A09155040C
:10156000B0915604E0915504F09156048485826050
:10157000FD018487E0915504F09156048D819E8190
:10158000938782878B819C810E940A0678940E94AF
:101590002708F894E0915504F091560480859185D0
:1015A0009A83898389819A810097D1F0E0915504CB
:1015B000F091560411861086E0915504F09156047E
:1015C0001486E0915504F09156041782168278949F
:1015D000EF81F885108289819A819A8789870BC06B
:1015E0008B819C810E9486067894EF81F8858AE041
:1015F00080831A86198689859A852A960FB6F8946B
:10160000DEBF0FBECDBFDF91CF910895CF93DF93A3
:10161000CDB7DEB726970FB6F894DEBF0FBECDBFAD
:101620009A8389837C836B83F894E981FA81818131
:10163000882379F08B819C8129813A8142E0BC0129
:10164000C9010E94510578940E9427081E821D82BC
:1016500015C0E981FA8184819581009731F07894F1
:1016600084E190E09E838D8309C0E981FA818B81BA
:101670009C819583848378941E821D828D819E81B6
:1016800026960FB6F894DEBF0FBECDBFDF91CF9187
:101690000895CF93DF93CDB7DEB727970FB6F894B1
:1016A000DEBF0FBECDBF8B837D836C8380915404DE
:1016B000882339F0EC81FD818DE880831F821E82B2
:1016C00067C0F8948B81882F90E0880F991FFC01E8
:1016D000E951FA4F80819181009741F07894EC8133
:1016E000FD8188E280831F821E8252C08B81882FF9
:1016F00090E0880F991FFC01E951FA4F81E090E0DA
:101700009183808380915104909152049A838983BC
:1017100089819A810097A1F48B81882F90E0880FAE
:10172000991FFC01E951FA4F118210827894EC81E3
:10173000FD8184E0808389819A819F838E8328C084
:10174000E0915104F0915204848195819093520468
:10175000809351047894E981FA8184E080838B81BD
:10176000882F90E0982F88278F6FE981FA819383E3
:101770008283E981FA811582148289819A810E948B
:10178000E206EC81FD81108289819A819F838E839C
:101790008E819F8127960FB6F894DEBF0FBECDBF16
:1017A000DF91CF910895CF93DF93CDB7DEB72B971D
:1017B0000FB6F894DEBF0FBECDBF9F838E837987AF
:1017C00068875B874A8780915404882329F0EA85DB
:1017D000FB8582E080831FC1F894EE81FF818281C6
:1017E00093818F3F39F5EE81FF81828193818070F3
:1017F000EE81FF8193838283EE81FF812281338199
:10180000E0915504F09156048585882F90E0822B55
:10181000932BEE81FF819383828380915504909175
:101820005604EE81FF81958384837894EA85FB8555
:101830001082F1C0EE81FF8182819381892F9927E7
:101840008D83EE81FF81828193818C83EE81FF8184
:10185000848195819A838983E981FA8195858D8137
:10186000981709F49DC0E0915504F09156049585B0
:101870008C81981708F094C0E981FA818785882FB8
:1018800090E0FC01E15BFB4F9081E981FA81808966
:101890008923882359F1E981FA818785282F30E04F
:1018A000E981FA818785882F90E0FC01E15BFB4F9D
:1018B0008081982FE981FA81808980958923F901B7
:1018C000E15BFB4F8083F901E15BFB4F8081882363
:1018D00051F4E981FA818189982F909580914E0485
:1018E000892380934E0481E08B8301C01B82E981B0
:1018F000FA818D818587E981FA818585869586952E
:101900008695E981FA818787E981FA818785882F21
:1019100090E0FC01E55FFE4F8081E981FA81818BD7
:10192000E981FA8185858770E981FA818687E98175
:10193000FA818685882F90E0FC01E55FFE4F80816B
:10194000E981FA81808B8B818130F1F4E981FA8120
:10195000918980914E04892B80934E04E981FA810C
:101960008785282F30E0E981FA818785882F90E0EC
:10197000FC01E15BFB4F9081E981FA818089892B31
:10198000F901E15BFB4F80838D81882F90E0880F08
:10199000991FFC01E951FA4F89819A8191838083D3
:1019A000A0915504B0915604E0915504F09156046D
:1019B00084858061FD018487E0915504F09156048F
:1019C00088859985938782878E819F810E940A06E8
:1019D00078940E942708F894E0915504F0915604F9
:1019E0008485882F90E080719070009751F08E81EF
:1019F0009F810E9486067894EA85FB858AE0808331
:101A00000AC0E0915504F09156041782168278942A
:101A1000EA85FB8510822B960FB6F894DEBF0FBEC9
:101A2000CDBFDF91CF910895CF93DF93CDB7DEB7D0
:101A300026970FB6F894DEBF0FBECDBF9C838B8375
:101A400080915404882329F085E090E09E838D8363
:101A50001BC1F894EB81FC8182819381892F9927A6
:101A60008A83EB81FC81828193818983E091550493
:101A7000F091560495858A81981771F0E09155048C
:101A8000F091560495858981981731F07894E8E7AC
:101A9000F0E0FE83ED83F8C0E0915504F091560428
:101AA00095858A81981709F09CC0E0915504F091C2
:101AB00056048785282F30E0E0915504F0915604B4
:101AC0008785882F90E0FC01E15BFB4F8081982F98
:101AD000E0915504F0915604808980958923F9019D
:101AE000E15BFB4F8083F901E15BFB4F8081882341
:101AF00061F4E0915504F09156048189982F9095F6
:101B000080914E04892380934E04E0915504F09116
:101B1000560489818587E0915504F09156048981A6
:101B20008695869586958787A0915504B091560431
:101B3000E0915504F09156048785882F90E0FC01D0
:101B4000E55FFE4F8081FD01818BE0915504F091AE
:101B50005604898187708687A0915504B0915604F8
:101B6000E0915504F09156048685882F90E0FC01A1
:101B7000E55FFE4F8081FD01808BE0915504F0917F
:101B80005604918980914E04892B80934E04E091F4
:101B90005504F09156048785282F30E0E0915504D4
:101BA000F09156048785882F90E0FC01E15BFB4FA4
:101BB0009081E0915504F09156048089892BF901B8
:101BC000E15BFB4F80838981882F90E02091550451
:101BD00030915604880F991FFC01E951FA4F318367
:101BE00020838A81882F90E0880F991FFC01E9519A
:101BF000FA4F81E090E091838083EB81FC818181C9
:101C0000882391F18B819C8140E160E070E00E942B
:101C100051058983EB81FC81828193818070EB8106
:101C2000FC8193838283EB81FC81228133818981D2
:101C3000882F90E0822B932BEB81FC81938382830E
:101C40008981882F90E0880F991FFC01E951FA4F94
:101C500080819181EB81FC819583848378940E94BB
:101C600027081E821D8210C0EB81FC818281938136
:101C70008F6FEB81FC8193838283EB81FC811582E2
:101C8000148278941E821D828D819E8126960FB6C5
:101C9000F894DEBF0FBECDBFDF91CF910895CF93F3
:101CA000DF93CDB7DEB726970FB6F894DEBF0FBE31
:101CB000CDBF9C838B8380915404882319F01E82AE
:101CC0001D8232C0F89480915104909152049A83FD
:101CD00089838091510490915204009751F0E091D2
:101CE0005104F09152048481958190935204809321
:101CF0005104789489819A81009791F0E981FA8161
:101D000083E08083E981FA818B819C819383828344
:101D1000E981FA811582148289819A810E94E20602
:101D200089819A819E838D838D819E8126960FB6AF
:101D3000F894DEBF0FBECDBFDF91CF910895CF9352
:101D4000DF93CDB7DEB726970FB6F894DEBF0FBE90
:101D5000CDBF9A8389837C836B835E834D8380911F
:101D60005404882329F0ED81FE8182E0808350C0F5
:101D7000F894E981FA8182819381009771F0E98179
:101D8000FA81828193810197E981FA819383828329
:101D90007894ED81FE8110823BC0A0915504B091F2
:101DA0005604E0915504F091560484858160FD014C
:101DB0008487E0915504F09156048B819C81938730
:101DC000828789819A810E940A0678940E94270856
:101DD000F894E0915504F09156048485882F90E0A2
:101DE00081709070882351F089819A810E948606C3
:101DF0007894ED81FE818AE080830AC0E0915504E9
:101E0000F0915604178216827894ED81FE8110823B
:101E100026960FB6F894DEBF0FBECDBFDF91CF91EF
:101E20000895CF93DF93CDB7DEB724970FB6F8941C
:101E3000DEBF0FBECDBF9A838983F894E981FA8112
:101E40008181882369F089819A8141E060E070E0B6
:101E50000E94510578940E9427081C821B821AC098
:101E6000E981FA81828193812FEF8F3F920769F098
:101E7000E981FA81828193810196E981FA819383D4
:101E8000828378941C821B8205C0789482E390E060
:101E90009C838B838B819C8124960FB6F894DEBF44
:101EA0000FBECDBFDF91CF910895AF92BF92CF9279
:101EB000DF92EF92FF920F931F93CF93DF93CDB7F3
:101EC000DEB72C970FB6F894DEBF0FBECDBF9D8353
:101ED0008C837F836E83598748872A87F8948A8505
:101EE000882F90E0880F991FFC01E951FA4F8081FB
:101EF0009181009709F050C08A85882F90E0880F63
:101F0000991FFC01E951FA4F81E090E091838083B1
:101F10007894888599856E817F81EC81FD8120E0B0
:101F200030E0AC01CF010E94BF019B838A838A818C
:101F30009B81AA24BB24CC24DD24EE24FF2487012A
:101F400020E030E040E050E0BC018A850E94460974
:101F500089838981882371F4F89480914B048F5F81
:101F600080934B0478948091B703813079F40E9478
:101F700027080CC0F8948A85882F90E0880F991F55
:101F8000FC01E951FA4F1182108278948981282F3F
:101F900030E03C872B8705C0789488E290E09C87EE
:101FA0008B878B859C852C960FB6F894DEBF0FBE71
:101FB000CDBFDF91CF911F910F91FF90EF90DF90F8
:101FC000CF90BF90AF900895CF93DF93CDB7DEB79A
:101FD00028970FB6F894DEBF0FBECDBF8E838091D9
:101FE0005404882329F08FE390E098878F83F6C00C
:101FF000F8948E818F3F31F4E0915504F0915604AE
:1020000085858E838E81882F90E0880F991FFC0133
:10201000E951FA4F808191819B838A838A819B81D8
:10202000009709F4D6C0EA81FB818785282F30E02C
:10203000EA81FB818785882F90E0FC01E15BFB4F03
:102040008081982FEA81FB81808980958923F9011D
:10205000E15BFB4F8083F901E15BFB4F80818823CB
:1020600051F4EA81FB818189982F909580914E04EB
:10207000892380934E04EA81FB81868197819D8329
:102080008C838C819D810097A1F1EA81FB818785FA
:10209000482F50E0EA81FB818785282F30E08C8132
:1020A0009D81820F931FFC0136968081982FEA81D3
:1020B000FB81808980958923282F8C819D81840FC5
:1020C000951FFC01369620838C819D81840F951F7E
:1020D000FC0136968081882361F4EC81FD81818149
:1020E000982FEA81FB81818980958923EC81FD818C
:1020F0008183EA81FB8113861286EA81FB81148643
:102100008091B6038F3F29F08091B6038F5F809353
:10211000B60378940E944A05F8948091B603882308
:1021200029F08091B60381508093B6038A819B8108
:102130000E94280380914B04815080934B048E8130
:10214000882F90E0880F991FFC01E951FA4F118206
:102150001082EA81FB8184819581009781F4EA8174
:10216000FB810280F381E02D15821482EA81FB81DC
:10217000828193819093BF038093BE0316C0EA814E
:10218000FB81A481B581EA81FB8182819381FD017C
:1021900093838283EA81FB81A281B381EA81FB81FF
:1021A00084819581FD019583848380914804909179
:1021B0004904EA81FB81938382838A819B81909386
:1021C00049048093480478940E94270818861F8247
:1021D00005C078948CE390E098878F838F819885F1
:1021E00028960FB6F894DEBF0FBECDBFDF91CF911A
:1021F0000895CF93DF93CDB7DEB727970FB6F89446
:10220000DEBF0FBECDBF8D838D818F3F71F4F894FB
:10221000E0915504F091560482898C8378948C81E6
:10222000282F30E03F832E831FC0F8948D81882FA4
:1022300090E0880F991FFC01E951FA4F808191814C
:102240009A83898389819A81009731F0E981FA81A3
:102250008EE3828B1B8202C08BE08B8378948B8110
:10226000282F30E03F832E838E819F8127960FB6E3
:10227000F894DEBF0FBECDBFDF91CF910895CF930D
:10228000DF93CDB7DEB725970FB6F894DEBF0FBE4C
:10229000CDBF8B83F8948B81882F90E0880F991F96
:1022A000FC01E951FA4F808191819A838983898168
:1022B0009A81009731F4789484E690E09D838C8332
:1022C00046C0E981FA818485882F90E088709070FB
:1022D0000097C1F1E981FA818485877FE981FA81DC
:1022E0008487E981FA818485882341F5E981FA812F
:1022F00082859385009711F5E981FA819189809112
:102300004E04892B80934E04E981FA818785282F1A
:1023100030E0E981FA818785882F90E0FC01E15B5C
:10232000FB4F9081E981FA818089892BF901E15B7A
:10233000FB4F808378940E94270801C078941D8207
:102340001C8205C0789485E690E09D838C838C8107
:102350009D8125960FB6F894DEBF0FBECDBFDF91ED
:10236000CF910895CF93DF93CDB7DEB726970FB601
:10237000F894DEBF0FBECDBF8C83F8948C818F3F65
:1023800049F4E0915504F091560485858C8381E0F1
:102390008B830CC0E0915504F091560495858C8197
:1023A000981719F481E08B8301C01B828C81882FE0
:1023B00090E0880F991FFC01E951FA4F80819181CB
:1023C0009A83898389819A81009731F478948AE588
:1023D00090E09E838D8337C0E981FA818785282F1D
:1023E00030E0E981FA818785882F90E0FC01E15B8C
:1023F000FB4F8081982FE981FA818089809589231C
:10240000F901E15BFB4F8083F901E15BFB4F8081C8
:10241000882351F4E981FA818189982F90958091E0
:102420004E04892380934E04E981FA818485886073
:10243000E981FA81848778948B81813011F40E943C
:1024400027081E821D828D819E8126960FB6F894E4
:10245000DEBF0FBECDBFDF91CF910895CF93DF9345
:10246000CDB7DEB722970FB6F894DEBF0FBECDBF53
:102470009A83898389819A81009709F43CC0F894F2
:10248000E0915504F09156048785282F30E0E091C3
:102490005504F09156048785882F90E0FC01E15B9C
:1024A000FB4F8081982FE0915504F091560480896C
:1024B00080958923F901E15BFB4F8083F901E15BA2
:1024C000FB4F8081882361F4E0915504F09156041C
:1024D0008189982F909580914E04892380934E0492
:1024E000E0915504F091560489819A8193878287FF
:1024F00078940E94270822960FB6F894DEBF0FBE8C
:10250000CDBFDF91CF910895EF92FF920F931F936C
:10251000CF93DF93CDB7DEB72D970FB6F894DEBF1C
:102520000FBECDBF8F83688749873B872A878F81FE
:10253000882359F48885882341F48985882329F4E0
:102540008A859B85009709F4A3C088858C3328F081
:1025500081E590E09D878C879FC089858C3328F02A
:1025600082E590E09D878C8797C08A859B8523E0D4
:10257000883E920728F083E590E09D878C878CC089
:102580008F81882F90E0A0E0B0E020E13EE040E0C5
:1025900050E0BC01CD010E9449177B018C01888568
:1025A000882F90E0A0E0B0E02CE330E040E050E085
:1025B000BC01CD010E944917DC01CB01A8019701A4
:1025C000280F391F4A1F5B1F8985882F90E0A0E0E4
:1025D000B0E0820F931FA41FB51F2DE330E040E051
:1025E00050E0BC01CD010E9449177B018C018A8516
:1025F0009B85CC01A0E0B0E02DE330E040E050E06E
:10260000BC01CD010E944917DC01CB0188519E4FCE
:10261000AF4FBF4F28EE33E040E050E0BC01CD01AA
:102620000E946817DA01C9018E0D9F1DA01FB11FFE
:102630008B839C83AD83BE838B819C81AD81BE8166
:10264000CD01AA27BB279A8389838B819C81AD8189
:10265000BE81A070B0708B839C83AD83BE838B8161
:102660009C810E942E120DC080E090E80E942E12E4
:1026700080E090E80E942E1289819A8101979A83C6
:10268000898389819A81009779F71D861C8604C009
:1026900084E590E09D878C878C859D852D960FB66F
:1026A000F894DEBF0FBECDBFDF91CF911F910F9188
:1026B000FF90EF9008950E943D030091B7030395AA
:1026C0000093B703E0914C04F0914D04C191CDBF4C
:1026D000D191DEBF0F910FBF0F910BBFFF91EF9113
:1026E000DF91CF91BF91AF919F918F917F916F912A
:1026F0005F914F913F912F911F910F91FF90EF901C
:10270000DF90CF90BF90AF909F908F907F906F9011
:102710005F904F903F902F901F900F9008950F92D1
:102720001F922F923F924F925F926F927F928F9261
:102730009F92AF92BF92CF92DF92EF92FF920F9350
:102740001F932F933F934F935F936F937F938F9339
:102750009F93AF93BF93CF93DF93EF93FF930BB709
:102760000F930FB70F93E0915504F0915604CDB736
:10277000C193DEB7D1930E943D030091BC03009347
:10278000BD03E0914C04F0914D04E0935504F093A7
:102790005604C191CDBFD191DEBF0F910FBF0F91F4
:1027A0000BBFFF91EF91DF91CF91BF91AF919F91BF
:1027B0008F917F916F915F914F913F912F911F91D9
:1027C0000F91FF90EF90DF90CF90BF90AF909F90D0
:1027D0008F907F906F905F904F903F902F901F90C1
:1027E0000F9008950E943D030091BC030093BD0328
:1027F000E0914C04F0914D04E0935504F09356049D
:10280000C191CDBFD191DEBF0F910FBF0F910BBF13
:10281000FF91EF91DF91CF91BF91AF919F918F91F8
:102820007F916F915F914F913F912F911F910F91E8
:10283000FF90EF90DF90CF90BF90AF909F908F90E0
:102840007F906F905F904F903F902F901F900F90D0
:1028500008950F921F922F923F924F925F926F9224
:102860007F928F929F92AF92BF92CF92DF92EF9220
:10287000FF920F931F932F933F934F935F936F9309
:102880007F938F939F93AF93BF93CF93DF93EF93F8
:10289000FF930BB70F930FB700680F930091540489
:1028A000039500935404013041F4CDB7DEB7E091B5
:1028B0005504F0915604C193D19300E002BFF0E0BB
:1028C0001F2E78940E94CF0400000E94A7030F914E
:1028D0000FBF0F910BBFFF91EF91DF91CF91BF9190
:1028E000AF919F918F917F916F915F914F913F91A8
:1028F0002F911F910F91FF90EF90DF90CF90BF909D
:10290000AF909F908F907F906F905F904F903F908F
:102910002F901F900F900895A0E1B0E0E2E9F4E15C
:102920000C9498170F89188D86E08E831C830B8377
:102930008FEF9FE798878F83AE01455E5F4F5A8385
:102940004983698D7A8DCE0103960E94B114298541
:102950003A85020F131FF8011082E4E060960C9490
:10296000B4172F923F925F926F927F928F929F92B5
:10297000AF92BF92CF92DF92EF92FF920F931F938D
:10298000CF93DF93CDB7DEB72B970FB6F894DEBFAA
:102990000FBECDBF3C014B016A01FC0117821682BC
:1029A000838181FD03C08FEF9FEFBBC11E0108949F
:1029B000211C311CF3013381F40133FD859133FF78
:1029C00081914F01882309F4A9C1853239F433FD7F
:1029D000859133FF81914F01853229F4B30190E055
:1029E0000E94BF16E7CF982FAA2410E0552410327A
:1029F000B0F49B3269F09C3228F4903251F093325B
:102A000071F40BC09D3239F0903349F411602AC043
:102A10001260146027C0186025C0106123C017FD24
:102A20002AC0292F20532A3088F416FF07C08AE0D5
:102A3000A89EC0011124A22EA80E14C08AE0589EA0
:102A4000C0011124522E580E10620CC09E3221F487
:102A500016FD64C1106406C09C3611F4106802C0F3
:102A6000983649F4F40133FD959133FF91914F016C
:102A7000992309F0BCCF892F8554833018F08052F8
:102A8000833038F424E030E0C20ED31E8FE3898314
:102A90000FC0933631F0933781F0933509F056C06B
:102AA00020C0F6018081898322E030E0C20ED31E6F
:102AB000710181E0A82EB12C12C0F601E080F180F6
:102AC00016FD03C06FEF7FEF02C06A2D70E022E0B9
:102AD00030E0C20ED31EC7010E94B4165C011F77FE
:102AE00013C0F601E080F18016FD03C06FEF7FEFA9
:102AF00002C06A2D70E022E030E0C20ED31EC70192
:102B00000E94A9165C01106813FF07C01BC0B30127
:102B100080E290E00E94BF165A94852D90E0A8169E
:102B2000B906A8F30FC0F70117FD859117FF819132
:102B30007F01B30190E00E94BF1651105A9408948F
:102B4000A108B108A114B10471F7E5C0943611F0E1
:102B5000993669F517FF0AC0F6016081718182819B
:102B6000938124E030E0C20ED31E0DC0F6018081B7
:102B700091819C01B901882777FD8095982F42E0CB
:102B800050E0C40ED51E012F0F7697FF08C0909518
:102B90008095709561957F4F8F4F9F4F00682AE019
:102BA00030E0A1010E94EB16B82EB2183DC0953757
:102BB00021F41F7E2AE030E01CC0197F9F3661F0AF
:102BC000903720F4983509F0A9C00FC0903739F03C
:102BD000983709F0A3C004C028E030E00AC01061B3
:102BE00014FD146020E130E004C014FD166020E103
:102BF00032E017FF08C0F601608171818281938104
:102C000044E050E008C0F60180819181BC0180E081
:102C100090E042E050E0C40ED51EA1010E94EB16E8
:102C2000B82EB218012F0F7706FF09C00E7FBA1415
:102C300030F404FF06C002FD04C00F7E02C01B2D4D
:102C400001C01A2D04FF0CC0FE01EB0DF11D8081A7
:102C5000803311F4097E08C01F5F02FF05C003C066
:102C6000802F867809F01F5FE02E03FD14C000FF5F
:102C70000FC0151510F0AB2C0BC0AB2CA50CA11A76
:102C8000152D06C0B30180E290E00E94BF161F5FC1
:102C90001515C0F304C0151510F4511A01C05524C0
:102CA000E4FE10C0B30180E390E00E94BF16E2FE94
:102CB0001EC0E1FE03C088E590E002C088E790E016
:102CC000B3010CC08E2D867891F0E1FE02C08BE23C
:102CD00001C080E207FD8DE2B30190E00E94BF16C3
:102CE00006C0B30180E390E00E94BF16AA94BA1414
:102CF000C0F3BA94F101EB0DF11D8081B30190E0B6
:102D00000E94BF16BB2039F0F4CFB30180E290E0FF
:102D10000E94BF165A945520C1F74CCEF30186810C
:102D200097812B960FB6F894DEBF0FBECDBFDF9113
:102D3000CF911F910F91FF90EF90DF90CF90BF90B8
:102D4000AF909F908F907F906F905F903F902F906B
:102D50000895FC010590615070400110D8F78095EE
:102D600090958E0F9F1F0895FC0161507040019057
:102D70000110D8F7809590958E0F9F1F08950F939F
:102D80001F93CF93DF938C01EB018B8181FF1BC0DD
:102D900082FF0DC02E813F818C819D8128173907CC
:102DA00064F4E881F9810193F983E88306C0E8853A
:102DB000F985802F0995892B31F48E819F810196A9
:102DC0009F838E8302C00FEF1FEFC801DF91CF9169
:102DD0001F910F910895FA01AA27283051F120314F
:102DE00081F1E8946F936E7F6E5F7F4F8F4F9F4F9F
:102DF000AF4FB1E03ED0B4E03CD0670F781F891FE1
:102E00009A1FA11D680F791F8A1F911DA11D6A0FAE
:102E1000711D811D911DA11D20D009F468943F9161
:102E20002AE0269F11243019305D3193DEF6CF0160
:102E30000895462F4770405D4193B3E00FD0C9F726
:102E4000F6CF462F4F70405D4A3318F0495D31FD93
:102E50004052419302D0A9F7EACFB4E0A6959795E6
:102E6000879577956795BA95C9F7009761057105BC
:102E700008959B01AC010A2E069457954795379506
:102E80002795BA95C9F7620F731F841F951FA01D60
:102E90000895629FD001739FF001829FE00DF11DA4
:102EA000649FE00DF11D929FF00D839FF00D749FC4
:102EB000F00D659FF00D9927729FB00DE11DF91F70
:102EC000639FB00DE11DF91FBD01CF0111240895CD
:102ED000A1E21A2EAA1BBB1BFD010DC0AA1FBB1F1E
:102EE000EE1FFF1FA217B307E407F50720F0A21B90
:102EF000B30BE40BF50B661F771F881F991F1A94FD
:102F000069F760957095809590959B01AC01BD0126
:102F1000CF0108952F923F924F925F926F927F92CE
:102F20008F929F92AF92BF92CF92DF92EF92FF92D9
:102F30000F931F93CF93DF93CDB7DEB7CA1BDB0B85
:102F40000FB6F894DEBF0FBECDBF09942A8839882A
:102F500048885F846E847D848C849B84AA84B98431
:102F6000C884DF80EE80FD800C811B81AA81B9813D
:102F7000CE0FD11D0FB6F894DEBF0FBECDBFED0151
:042F80000895FFCFE2
:102F840025783A25783A2578200D000102040810A6
:102F94002040800000010002000100030001000243
:102FA400000100040001000200010003000100020E
:102FB40000010005000100020001000300010002FD
:102FC40000010004000100020001000300010002EE
:102FD40000010006000100020001000300010002DC
:102FE40000010004000100020001000300010002CE
:102FF40000010005000100020001000300010002BD
:1030040000010004000100020001000300010002AD
:10301400000100070001000200010003000100029A
:10302400000100040001000200010003000100028D
:10303400000100050001000200010003000100027C
:10304400000100040001000200010003000100026D
:10305400000100060001000200010003000100025B
:10306400000100040001000200010003000100024D
:10307400000100050001000200010003000100023C
:10308400000100040001000200010003000100022D
:043094000001000037
:04000003000000CE2B
:00000001FF
