:100000000C9446000C9465000C9465000C946500FB
:100010000C9465000C9465000C9465000C946500CC
:100020000C9465000C9465000C9465000C946500BC
:100030000C9465000C9465000C9465000C946500AC
:100040000C940C130C9465000C9465000C946500E2
:100050000C9465000C9465000C9465000C9465008C
:100060000C9465000C9465000C9465000C9465007C
:100070000C9465000C9465000C9465000C9465006C
:100080000C9465000C9465000C94650011241FBE4F
:10009000CFEFD0E1DEBFCDBF12E0A0E0B1E0E2E6FD
:1000A000F7E200E00BBF02C007900D92A830B10745
:1000B000D9F714E0A8E0B2E001C01D92A83DB10755
:1000C000E1F70E9467000C94B0130C940000CF93EA
:1000D000DF93CDB7DEB7EAE3F0E08FEF8083EBE3A9
:1000E000F0E01082E3E5F0E087E08083E7E5F0E010
:1000F00081E080830E945F0288E892E0ECE8F0E013
:1001000024E0AC016FEF70E0CF010E94380E0E9436
:100110003003DF91CF910895CF93DF93CDB7DEB752
:1001200080910802809580930802EBE3F0E08091D3
:100130000802808320E030E041E060E080E00E943F
:100140006711EECFCF93DF93CDB7DEB72C970FB605
:10015000F894DEBF0FBECDBF9E838D8378876F83FB
:100160005A8749873C872B8789859A859C838B830F
:100170008D819E819A8389838981EB81FC81808333
:100180008B819C8101979C838B8389819A81892FA4
:100190009927EB81FC8180838B819C8101979C83D3
:1001A0008B83EB81FC8110828B819C8101979C83E6
:1001B0008B83EB81FC8110828B819C8101979C83D6
:1001C0008B83EB81FC8110828B819C8101979C83C6
:1001D0008B83EB81FC8110828B819C8101979C83B6
:1001E0008B83EB81FC8110828B819C8101979C83A6
:1001F0008B83EB81FC8110828B819C8101979C8396
:100200008B83EB81FC8110828B819C8101979C8385
:100210008B83EB81FC8110828B819C8101979C8375
:100220008B83EB81FC8110828B819C8101979C8365
:100230008B83EB81FC8110828B819C8101979C8355
:100240008B83EB81FC8110828B819C8101979C8345
:100250008B83EB81FC8110828B819C8101979C8335
:100260008B83EB81FC8110828B819C8101979C8325
:100270008B83EB81FC8110828B819C8101979C8315
:100280008B83EB81FC8110828B819C8101979C8305
:100290008B83EB81FC8110828B819C8101979C83F5
:1002A0008B83EB81FC8110828B819C8101979C83E5
:1002B0008B83EB81FC8110828B819C8101979C83D5
:1002C0008B83EB81FC8110828B819C8101979C83C5
:1002D0008B83EB81FC8110828B819C8101979C83B5
:1002E0008B83EB81FC8110828B819C8101979C83A5
:1002F0008B83EB81FC8110828B819C8101979C8395
:100300008B83EB81FC8110828B819C8101979C8384
:100310008B83EB81FC8110828B819C8101979C8374
:100320008B838F8198859A8389838981EB81FC8176
:1003300080838B819C8101979C838B8389819A81A7
:10034000892F9927EB81FC8180838B819C81019788
:100350009C838B83EB81FC8110828B819C81019734
:100360009C838B83EB81FC8110828B819C81019724
:100370009C838B83EB81FC8110828B819C81019714
:100380009C838B83EB81FC8110828B819C81019704
:100390009C838B83EB81FC8110828B819C810197F4
:1003A0009C838B83EB81FC8110828B819C810197E4
:1003B0009C838B83EB81FC8110828B819C810197D4
:1003C0009C838B83EB81FC8180E880838B819C8183
:1003D00001979C838B838B819C812C960FB6F8941C
:1003E000DEBF0FBECDBFDF91CF910895CF93DF93D6
:1003F000CDB7DEB722970FB6F894DEBF0FBECDBFE4
:100400009A83898322960FB6F894DEBF0FBECDBFC4
:10041000DF91CF910895CF93DF93CDB7DEB72297C9
:100420000FB6F894DEBF0FBECDBF9A8389832296A4
:100430000FB6F894DEBF0FBECDBFDF91CF91089508
:10044000CF93DF93CDB7DEB7DF91CF910895CF93F0
:10045000DF93CDB7DEB7DF91CF910895CF93DF93D0
:10046000CDB7DEB7DF91CF910895CF93DF93CDB7AE
:10047000DEB7DF91CF910895CF93DF93CDB7DEB78D
:10048000DF91CF910895CF93DF93CDB7DEB7DF91A2
:10049000CF910895CF93DF93CDB7DEB722970FB6F4
:1004A000F894DEBF0FBECDBF9A83898322960FB624
:1004B000F894DEBF0FBECDBFDF91CF910895CF93EB
:1004C000DF93CDB7DEB70E9435020E943A060E9444
:1004D00059060E94B7060E94F2050E9493060E94E8
:1004E000A5060E943C02DF91CF910895CF93DF9340
:1004F000CDB7DEB780918A02813049F4809127031D
:100500008F3F29F0809127038F5F80932703DF912E
:10051000CF910895CF93DF93CDB7DEB780918A0254
:10052000813009F060C0F89480912703882329F076
:10053000809127038150809327038091270388238C
:1005400009F050C080918902882309F04BC0809146
:100550002103882F90E0FC01E85FFE4F80818093AB
:10056000260380912603282F220F220F220F80912D
:100570002603882F90E0FC01EE5DFC4F8081882FE0
:1005800090E0FC01E85FFE4F8081820F80938F0234
:1005900090918F0280919002981721F180918F02A3
:1005A000882F90E0880F991FFC01E654FB4F808153
:1005B00091819093200380931F0380911303909166
:1005C0001403A0911503B09116030196A11DB11D4E
:1005D0008093130390931403A0931503B093160311
:1005E0000E94D5127894DF91CF910895CF93DF9335
:1005F000CDB7DEB780918A02813059F4F8948091AA
:1006000089028F3F29F0809189028F5F8093890250
:100610007894DF91CF910895CF93DF93CDB7DEB774
:1006200080918A028130C9F4F894809189028823EC
:1006300099F080918902815080938902809189028A
:10064000882341F480912703882321F478940E9421
:100650000A0703C0789401C07894DF91CF91089580
:10066000CF93DF93CDB7DEB722970FB6F894DEBFF6
:100670000FBECDBF80918A028823E9F580912103C6
:10068000882F90E0FC01E85FFE4F80818A838A8199
:10069000882F90E0FC01EE5DFC4F8081882F90E078
:1006A000FC01E85FFE4F808189838A81982F990F32
:1006B000990F990F8981890F80938F0280918F0202
:1006C0008093900280918F02882F90E0880F991F6D
:1006D000FC01E654FB4F808191819093200380932D
:1006E0001F0380911F03909120039093290380930F
:1006F00028030E943E1222960FB6F894DEBF0FBE6A
:10070000CDBFDF91CF910895CF93DF93CDB7DEB703
:1007100082E090E00E941111F89410928B021092E6
:100720008C0210928D0210928E0278948DE390E0EC
:100730000E941111F89480918B0290918C02A091EB
:100740008D02B0918E028093170390931803A093AB
:100750001903B0931A0381E08093B9047894DF9170
:10076000CF910895CF93DF93CDB7DEB722970FB621
:10077000F894DEBF0FBECDBF0E942E0280918A0288
:10078000813009F058C080919102909192029A8331
:1007900089834BC0F894E981FA818285938500971B
:1007A000E9F1E981FA81828593850197E981FA81EE
:1007B00093878287E981FA8182859385009771F515
:1007C000E981FA818485882F90E088709070009785
:1007D000F9F4E981FA81918980912103892B809331
:1007E0002103E981FA818785282F30E0E981FA81A8
:1007F0008785882F90E0FC01EE5DFC4F9081E981B8
:10080000FA818089892BF901EE5DFC4F808306C057
:10081000E981FA8181E090E093878287E981FA811A
:10082000828193819A8389837894E981FA8185858D
:100830008C3009F0AFCF22960FB6F894DEBF0FBE12
:10084000CDBFDF91CF910895CF93DF93CDB7DEB7C2
:100850008CEF90E0DF91CF910895CF93DF93CDB7E8
:10086000DEB7DF91CF910895CF93DF93CDB7DEB799
:100870002C970FB6F894DEBF0FBECDBF998788873F
:100880007B876A874C87E885F9858181882F90E08E
:10089000FC01E85FFE4F80818C838C81882F90E083
:1008A000FC01E050FF4F80818A838C81282F30E04B
:1008B00088859985820F931FFC0136968081882F49
:1008C00090E0FC01E85FFE4F80818D838D81882F51
:1008D00090E0FC01E050FF4F80818B838C81982F4A
:1008E000990F990F990F8D81890F89838C81482FDA
:1008F00050E08C81282F30E088859985820F931FE6
:10090000FC0136968081982F8B8180958923282F32
:1009100088859985840F951FFC01369620838885EC
:100920009985840F951FFC0136968081882351F4A8
:10093000E885F9858181982F8A8180958923E885CA
:10094000F98581838981882F90E0880F991FFC01A8
:10095000E654FB4F808191819F838E83EE81FF81DE
:1009600013861286EE81FF8117821682EE81FF8147
:100970008A859B8591878087EE81FF818485982F6A
:100980008C8580958923EE81FF818487EE81FF81AC
:1009900084858823B1F4909121038A81892B8093E7
:1009A00021038C81282F30E08C81882F90E0FC017E
:1009B000EE5DFC4F90818B81892BF901EE5DFC4F40
:1009C00080838981882F90E02C960FB6F894DEBF43
:1009D0000FBECDBFDF91CF910895CF93DF93CDB7F9
:1009E000DEB722970FB6F894DEBF0FBECDBF9A8355
:1009F0008983E0912803F091290389819A81978363
:100A00008683E0912803F09129038785282F30E021
:100A1000E0912803F09129038785882F90E0FC015D
:100A2000EE5DFC4F8081982FE0912803F09129031F
:100A3000808980958923F901EE5DFC4F8083F9015F
:100A4000EE5DFC4F8081882361F4E0912803F091F2
:100A500029038189982F9095809121038923809380
:100A60002103E0912803F09129038785482F50E066
:100A7000E0912803F09129038785282F30E08981B0
:100A80009A81820F931FFC0136969081E091280392
:100A9000F09129038089292F282B89819A81840F3D
:100AA000951FFC0136962083E981FA819181E091BE
:100AB0002803F09129038189892BE981FA818183B7
:100AC00022960FB6F894DEBF0FBECDBFDF91CF9157
:100AD0000895CF93DF93CDB7DEB722970FB6F89482
:100AE000DEBF0FBECDBF9A838983E0912803F091CA
:100AF00029038785482F50E0E0912803F0912903CE
:100B00008785282F30E089819A81820F931FFC010D
:100B100036968081982FE0912803F09129038089EF
:100B200080958923282F89819A81840F951FFC0144
:100B30003696208389819A81840F951FFC01369611
:100B40008081882371F4E981FA818181982FE09175
:100B50002803F0912903818980958923E981FA810D
:100B60008183E0912803F09129031486E091280302
:100B7000F09129031782168222960FB6F894DEBFF1
:100B80000FBECDBFDF91CF910895CF93DF93CDB747
:100B9000DEB724970FB6F894DEBF0FBECDBF9C839F
:100BA0008B83EB81FC8111828B819C8106969A83D9
:100BB0008983E981FA81108289819A8101969A83D9
:100BC0008983E981FA81108289819A8101969A83C9
:100BD000898324960FB6F894DEBF0FBECDBFDF9198
:100BE000CF910895CF93DF93CDB7DEB726970FB699
:100BF000F894DEBF0FBECDBF8AEA93E09C838B835F
:100C000082EB93E09A8389831E821D8218C0EB8158
:100C1000FC811082EB81FC8189819A819583848398
:100C20008B819C8108969C838B8389819A8108960D
:100C30009A8389838D819E8101969E838D838D8188
:100C40009E818230910518F3EB81FC811082EB814B
:100C5000FC81158214828AEA93E0909325038093A5
:100C6000240326960FB6F894DEBF0FBECDBFDF91EA
:100C7000CF910895CF93DF93CDB7DEB710922703BE
:100C80001092890210921E0310928A02109213038E
:100C900010921403109215031092160310928B02F7
:100CA00010928C0210928D0210928E02DF91CF91E1
:100CB0000895CF93DF93CDB7DEB724970FB6F8949E
:100CC000DEBF0FBECDBF1092210382E293E09A8374
:100CD00089831C821B820DC0E981FA81108289817F
:100CE0009A8101969A8389838B819C8101969C834A
:100CF0008B838B819C818230910570F310929002DE
:100D000010928F021092200310921F031092290359
:100D10001092280324960FB6F894DEBF0FBECDBF05
:100D2000DF91CF910895CF93DF93CDB7DEB789EAF6
:100D300093E0E1E7F7E02CE0AC0160E070E0CF0188
:100D40000E94380EDF91CF910895CF93DF93CDB7F6
:100D5000DEB782E193E0E5E9F7E02BE0AC0160E08B
:100D600070E0CF010E94380EDF91CF910895CF93AC
:100D7000DF93CDB7DEB725970FB6F894DEBF0FBE71
:100D8000CDBF10929202109291021D820DC08D81F2
:100D9000882F90E0880F991FFC01E654FB4F1182C9
:100DA00010828D818F5F8D838D818D3080F382ECF9
:100DB00093E09C838B8385ED93E09A8389831D82E6
:100DC00013C0EB81FC8189819A81938382838B811B
:100DD0009C8143969C838B8389819A8143969A83D5
:100DE00089838D818F5F8D838D818C3050F3EB8172
:100DF000FC811382128282EC93E090931C03809317
:100E00001B0325960FB6F894DEBF0FBECDBFDF9152
:100E1000CF910895CF93DF93CDB7DEB721970FB66B
:100E2000F894DEBF0FBECDBFF894809127038823CE
:100E300009F04DC080918902882309F048C0809153
:100E40002103882F90E0FC01E85FFE4F80818983B9
:100E50008981282F220F220F220F8981882F90E06D
:100E6000FC01EE5DFC4F8081882F90E0FC01E85F83
:100E7000FE4F8081820F80938F0290918F0280912C
:100E80009002981721F180918F02882F90E0880FAF
:100E9000991FFC01E654FB4F8081918190932003C0
:100EA00080931F038091130390911403A091150365
:100EB000B09116030196A11DB11D80931303909369
:100EC0001403A0931503B09316030E947212789432
:100ED00021960FB6F894DEBF0FBECDBFDF91CF9144
:100EE0000895CF93DF93CDB7DEB722970FB6F8946E
:100EF000DEBF0FBECDBF9A838983F89480918B02A9
:100F000090918C02A0918D02B0918E020196A11D4C
:100F1000B11D80938B0290938C02A0938D02B093AD
:100F20008E0278940E944302E8CFCF93DF93CDB72F
:100F3000DEB72B970FB6F894DEBF0FBECDBF9B87F1
:100F40008A8704C08AE790E00E9411118091B90459
:100F50008823C1F38091170390911803A09119037E
:100F6000B0911A0324E630E040E050E0BC01CD012E
:100F70000E948E13DA01C9018A839B83AC83BD83EF
:100F8000F89480918B0290918C02A0918D02B09187
:100F90008E028093D4049093D504A093D604B0938A
:100FA000D70480918B0290918C02A0918D02B09118
:100FB0008E028E839F83A887B98710928B0210922E
:100FC0008C0210928D0210928E0278948A819B81FD
:100FD000AC81BD810097A105B105E1F08E819F81B3
:100FE000A885B9852A813B814C815D81BC01CD01F9
:100FF0000E948E13DA01C901982F84E6891B898328
:101000008981882324F0898180931D031BC010925D
:101010001D0318C010921D038091170390911803AF
:10102000A0911903B0911A0324E630E040E050E0AB
:10103000BC01CD010E948E13DA01C9018A839B8312
:10104000AC83BD830E9427028DE390E00E941111C2
:1010500097CFAF92BF92CF92DF92EF92FF920F9312
:101060001F93CF93DF93CDB7DEB763970FB6F89496
:10107000DEBF0FBECDBF8B837D836C835F834E83CA
:1010800039872887EA86FB860C871D87DF86CE8610
:10109000B98AA88AF89480911B0390911C039A83C3
:1010A000898389819A81009709F4A0C0E981FA8136
:1010B0008281938190931C0380931B037894E98130
:1010C000FA818C819D8191838083E981FA818B8172
:1010D0008587E981FA811486E981FA81138612866F
:1010E000E981FA81128A8B81869586958695E981B8
:1010F000FA818787E981FA818785882F90E0FC0152
:10110000E050FF4F8081E981FA81818B8B8187706C
:10111000E981FA818687E981FA818685882F90E0C6
:10112000FC01E050FF4F8081E981FA81808BE981E9
:10113000FA8117821682E981FA81118610868981E7
:101140009A810E944A0289819A810E94F601F8944C
:101150008B81882F90E0880F991FFC01E654FB4F8C
:1011600089819A81918380838091910290919202EA
:10117000E981FA8193838283E981FA81158214825D
:101180008091910290919202009741F0E09191023A
:10119000F091920289819A819583848389819A81D1
:1011A0009093920280939102E981FA8191898091D2
:1011B0002103892B80932103E981FA818785282FD8
:1011C00030E0E981FA818785882F90E0FC01EE5DAF
:1011D000FC4F9081E981FA818089892BF901EE5DCC
:1011E000FC4F808378941B8A1A8A05C0789486E421
:1011F00090E09B8B8A8B8A899B8963960FB6F894C3
:10120000DEBF0FBECDBFDF91CF911F910F91FF9039
:10121000EF90DF90CF90BF90AF900895CF93DF9382
:10122000CDB7DEB726970FB6F894DEBF0FBECDBFA1
:101230009C838B8380912703882319F01E821D8253
:1012400032C0F89480912403909125039A83898376
:101250008091240390912503009751F0E09124039D
:10126000F091250384819581909325038093240335
:10127000789489819A81009791F0E981FA8181E0DF
:101280008083E981FA8113821282E981FA818B815C
:101290009C819583848389819A810E94C505898177
:1012A0009A819E838D838D819E8126960FB6F894B8
:1012B000DEBF0FBECDBFDF91CF910895CF93DF93F7
:1012C000CDB7DEB72A970FB6F894DEBF0FBECDBFFD
:1012D0009C838B837E836D8358874F838091270304
:1012E000882339F0EF81F88582E080831A86198699
:1012F00065C0F894EB81FC81848195819A83898310
:1013000089819A81009769F0EB81FC8115821482B2
:101310007894EF81F885108289819A819A878987EC
:101320004DC0A0912803B0912903E0912803F091CA
:10133000290384858260FD018487E0912803F09170
:1013400029038D819E81938782878B819C810E9456
:10135000ED0478940E940A07F894E0912803F09134
:101360002903808591859A83898389819A81009751
:10137000D1F0E0912803F091290311861086E091C5
:101380002803F09129031486E0912803F0912903A2
:10139000178216827894EF81F885108289819A816C
:1013A0009A8789870BC08B819C810E9469057894FC
:1013B000EF81F8858AE080831A86198689859A8567
:1013C0002A960FB6F894DEBF0FBECDBFDF91CF9146
:1013D0000895CF93DF93CDB7DEB726970FB6F89475
:1013E000DEBF0FBECDBF9A8389837C836B83F89465
:1013F000E981FA818181882379F08B819C8129811F
:101400003A8142E0BC01C9010E94340478940E94F0
:101410000A071E821D8215C0E981FA8184819581A7
:10142000009731F0789484E190E09E838D8309C029
:10143000E981FA818B819C819583848378941E82D3
:101440001D828D819E8126960FB6F894DEBF0FBE59
:10145000CDBFDF91CF910895CF93DF93CDB7DEB7A6
:1014600027970FB6F894DEBF0FBECDBF8B837D8369
:101470006C8380912703882339F0EC81FD818DE80E
:1014800080831F821E8267C0F8948B81882F90E032
:10149000880F991FFC01E654FB4F808191810097D2
:1014A00041F07894EC81FD8188E280831F821E8266
:1014B00052C08B81882F90E0880F991FFC01E65461
:1014C000FB4F81E090E09183808380912403909191
:1014D00025039A83898389819A810097A1F48B815E
:1014E000882F90E0880F991FFC01E654FB4F118272
:1014F00010827894EC81FD8184E0808389819A81D7
:101500009F838E8328C0E0912403F091250384817A
:10151000958190932503809324037894E981FA813F
:1015200084E080838B81882F90E0982F88278F6FAD
:10153000E981FA8193838283E981FA811582148299
:1015400089819A810E94C505EC81FD811082898183
:101550009A819F838E838E819F8127960FB6F89400
:10156000DEBF0FBECDBFDF91CF910895CF93DF9344
:10157000CDB7DEB72B970FB6F894DEBF0FBECDBF49
:101580009F838E83798768875B874A87809127034B
:10159000882329F0EA85FB8582E080831FC1F894C7
:1015A000EE81FF81828193818F3F39F5EE81FF814A
:1015B000828193818070EE81FF8193838283EE81AB
:1015C000FF8122813381E0912803F09129038585F1
:1015D000882F90E0822B932BEE81FF81938382836F
:1015E0008091280390912903EE81FF819583848364
:1015F0007894EA85FB851082F1C0EE81FF818281BB
:101600009381892F99278D83EE81FF818281938138
:101610008C83EE81FF81848195819A838983E9811E
:10162000FA8195858D81981709F49DC0E091280372
:10163000F091290395858C81981708F094C0E98171
:10164000FA818785882F90E0FC01EE5DFC4F908148
:10165000E981FA8180898923882359F1E981FA8116
:101660008785282F30E0E981FA818785882F90E0EF
:10167000FC01EE5DFC4F8081982FE981FA81808921
:1016800080958923F901EE5DFC4F8083F901EE5DC1
:10169000FC4F8081882351F4E981FA818189982F58
:1016A00090958091210389238093210381E08B838E
:1016B00001C01B82E981FA818D818587E981FA81E8
:1016C0008585869586958695E981FA818787E98162
:1016D000FA818785882F90E0FC01E050FF4F8081E0
:1016E000E981FA81818BE981FA8185858770E981B9
:1016F000FA818687E981FA818685882F90E0FC014E
:10170000E050FF4F8081E981FA81808B8B818130AD
:10171000F1F4E981FA81918980912103892B8093E9
:101720002103E981FA818785282F30E0E981FA8158
:101730008785882F90E0FC01EE5DFC4F9081E98168
:10174000FA818089892BF901EE5DFC4F80838D81C0
:10175000882F90E0880F991FFC01E654FB4F898188
:101760009A8191838083A0912803B0912903E0910D
:101770002803F091290384858061FD018487E0912D
:101780002803F091290388859985938782878E8124
:101790009F810E94ED0478940E940A07F894E091DA
:1017A0002803F09129038485882F90E08071907040
:1017B000009751F08E819F810E9469057894EA8597
:1017C000FB858AE080830AC0E0912803F091290319
:1017D000178216827894EA85FB8510822B960FB6C5
:1017E000F894DEBF0FBECDBFDF91CF910895CF93A8
:1017F000DF93CDB7DEB726970FB6F894DEBF0FBEE6
:10180000CDBF9C838B8380912703882329F085E0BB
:1018100090E09E838D831BC1F894EB81FC818281D3
:101820009381892F99278A83EB81FC81828193811F
:101830008983E0912803F091290395858A8198177F
:1018400071F0E0912803F09129039585898198171B
:1018500031F07894E8E7F0E0FE83ED83F8C0E091A2
:101860002803F091290395858A81981709F09CC077
:10187000E0912803F09129038785282F30E0E0913B
:101880002803F09129038785882F90E0FC01EE5D05
:10189000FC4F8081982FE0912803F09129038089E3
:1018A00080958923F901EE5DFC4F8083F901EE5D9F
:1018B000FC4F8081882361F4E0912803F091290393
:1018C0008189982F9095809121038923809321030A
:1018D000E0912803F091290389818587E09128030D
:1018E000F091290389818695869586958787A091B1
:1018F0002803B0912903E0912803F09129038785FB
:10190000882F90E0FC01E050FF4F8081FD01818B2A
:10191000E0912803F0912903898187708687A0913F
:101920002803B0912903E0912803F09129038685CB
:10193000882F90E0FC01E050FF4F8081FD01808BFB
:10194000E0912803F0912903918980912103892B4B
:1019500080932103E0912803F09129038785282FA4
:1019600030E0E0912803F09129038785882F90E0EB
:10197000FC01EE5DFC4F9081E0912803F09129037A
:101980008089892BF901EE5DFC4F80838981882F46
:1019900090E02091280330912903880F991FFC01C2
:1019A000E654FB4F318320838A81882F90E0880F93
:1019B000991FFC01E654FB4F81E090E09183808306
:1019C000EB81FC818181882391F18B819C8140E1B5
:1019D00060E070E00E9434048983EB81FC818281A5
:1019E00093818070EB81FC8193838283EB81FC8106
:1019F000228133818981882F90E0822B932BEB8188
:101A0000FC81938382838981882F90E0880F991FBE
:101A1000FC01E654FB4F80819181EB81FC81958331
:101A2000848378940E940A071E821D8210C0EB8175
:101A3000FC81828193818F6FEB81FC819383828310
:101A4000EB81FC811582148278941E821D828D8127
:101A50009E8126960FB6F894DEBF0FBECDBFDF91F4
:101A6000CF910895CF93DF93CDB7DEB726970FB60A
:101A7000F894DEBF0FBECDBF9C838B83809127037C
:101A8000882319F01E821D8232C0F89480912403AD
:101A9000909125039A838983809124039091250353
:101AA000009751F0E0912403F09125038481958102
:101AB0009093250380932403789489819A810097D9
:101AC00091F0E981FA8183E08083E981FA818B8159
:101AD0009C8193838283E981FA81158214828981B2
:101AE0009A810E94C50589819A819E838D838D810B
:101AF0009E8126960FB6F894DEBF0FBECDBFDF9154
:101B0000CF910895CF93DF93CDB7DEB726970FB669
:101B1000F894DEBF0FBECDBF9A8389837C836B832D
:101B20005E834D8380912703882329F0ED81FE8118
:101B300082E0808350C0F894E981FA8182819381A8
:101B4000009771F0E981FA81828193810197E9819F
:101B5000FA81938382837894ED81FE8110823BC069
:101B6000A0912803B0912903E0912803F091290363
:101B700084858160FD018487E0912803F091290329
:101B80008B819C819387828789819A810E94ED0451
:101B900078940E940A07F894E0912803F0912903B1
:101BA0008485882F90E081709070882351F089811E
:101BB0009A810E9469057894ED81FE818AE0808394
:101BC0000AC0E0912803F0912903178216827894C5
:101BD000ED81FE81108226960FB6F894DEBF0FBE0F
:101BE000CDBFDF91CF910895CF93DF93CDB7DEB70F
:101BF00024970FB6F894DEBF0FBECDBF9A838983BA
:101C0000F894E981FA818181882369F089819A8138
:101C100041E060E070E00E94340478940E940A077A
:101C20001C821B821AC0E981FA81828193812FEF85
:101C30008F3F920769F0E981FA8182819381019651
:101C4000E981FA819383828378941C821B8205C088
:101C5000789482E390E09C838B838B819C81249693
:101C60000FB6F894DEBF0FBECDBFDF91CF910895C0
:101C7000AF92BF92CF92DF92EF92FF920F931F939A
:101C8000CF93DF93CDB7DEB72C970FB6F894DEBFB6
:101C90000FBECDBF9D838C837F836E83598748871A
:101CA0002A87F8948A85882F90E0880F991FFC0175
:101CB000E654FB4F80819181009709F050C08A85DE
:101CC000882F90E0880F991FFC01E654FB4F81E0BC
:101CD00090E0918380837894888599856E817F8157
:101CE000EC81FD8120E030E0AC01CF010E94A20038
:101CF0009B838A838A819B81AA24BB24CC24DD24F4
:101D0000EE24FF24870120E030E040E050E0BC01F9
:101D10008A850E94290889838981882371F4F8942F
:101D200080911E038F5F80931E03789480918A02B6
:101D3000813079F40E940A070CC0F8948A85882FB4
:101D400090E0880F991FFC01E654FB4F118210822E
:101D500078948981282F30E03C872B8705C07894C0
:101D600088E290E09C878B878B859C852C960FB6AC
:101D7000F894DEBF0FBECDBFDF91CF911F910F91C1
:101D8000FF90EF90DF90CF90BF90AF900895CF93EA
:101D9000DF93CDB7DEB728970FB6F894DEBF0FBE3E
:101DA000CDBF8E8380912703882329F08FE390E0B5
:101DB00098878F83F6C0F8948E818F3F31F4E0913D
:101DC0002803F091290385858E838E81882F90E0EA
:101DD000880F991FFC01E654FB4F808191819B8302
:101DE0008A838A819B81009709F4D6C0EA81FB81AE
:101DF0008785282F30E0EA81FB818785882F90E056
:101E0000FC01EE5DFC4F8081982FEA81FB81808987
:101E100080958923F901EE5DFC4F8083F901EE5D29
:101E2000FC4F8081882351F4EA81FB818189982FBE
:101E3000909580912103892380932103EA81FB817E
:101E4000868197819D838C838C819D810097A1F1F0
:101E5000EA81FB818785482F50E0EA81FB818785F5
:101E6000282F30E08C819D81820F931FFC013696D4
:101E70008081982FEA81FB81808980958923282F92
:101E80008C819D81840F951FFC01369620838C8167
:101E90009D81840F951FFC0136968081882361F413
:101EA000EC81FD818181982FEA81FB818189809578
:101EB0008923EC81FD818183EA81FB81138612866F
:101EC000EA81FB811486809189028F3F29F08091FD
:101ED00089028F5F8093890278940E942D04F89480
:101EE00080918902882329F0809189028150809312
:101EF00089028A819B810E940B0280911E0381507E
:101F000080931E038E81882F90E0880F991FFC011B
:101F1000E654FB4F11821082EA81FB818481958116
:101F2000009781F4EA81FB810280F381E02D158224
:101F30001482EA81FB818281938190939202809343
:101F4000910216C0EA81FB81A481B581EA81FB81FF
:101F500082819381FD0193838283EA81FB81A28147
:101F6000B381EA81FB8184819581FD01958384831E
:101F700080911B0390911C03EA81FB8193838283F0
:101F80008A819B8190931C0380931B0378940E9409
:101F90000A0718861F8205C078948CE390E0988722
:101FA0008F838F81988528960FB6F894DEBF0FBE79
:101FB000CDBFDF91CF910895CF93DF93CDB7DEB73B
:101FC00027970FB6F894DEBF0FBECDBF8D838D81EE
:101FD0008F3F71F4F894E0912803F09129038289EE
:101FE0008C8378948C81282F30E03F832E831FC010
:101FF000F8948D81882F90E0880F991FFC01E6549A
:10200000FB4F808191819A83898389819A8100978E
:1020100031F0E981FA818EE3828B1B8202C08BE072
:102020008B8378948B81282F30E03F832E838E81A1
:102030009F8127960FB6F894DEBF0FBECDBFDF910C
:10204000CF910895CF93DF93CDB7DEB725970FB625
:10205000F894DEBF0FBECDBF8B83F8948B81882FA1
:1020600090E0880F991FFC01E654FB4F808191811D
:102070009A83898389819A81009731F4789484E6E0
:1020800090E09D838C8346C0E981FA818485882F06
:1020900090E0887090700097C1F1E981FA818485A1
:1020A000877FE981FA818487E981FA8184858823A1
:1020B00041F5E981FA8182859385009711F5E981DF
:1020C000FA81918980912103892B80932103E981F1
:1020D000FA818785282F30E0E981FA818785882F6A
:1020E00090E0FC01EE5DFC4F9081E981FA818089EE
:1020F000892BF901EE5DFC4F808378940E940A07DA
:1021000001C078941D821C8205C0789485E690E019
:102110009D838C838C819D8125960FB6F894DEBFBC
:102120000FBECDBFDF91CF910895CF93DF93CDB791
:10213000DEB726970FB6F894DEBF0FBECDBF8C83F7
:10214000F8948C818F3F49F4E0912803F0912903A2
:1021500085858C8381E08B830CC0E0912803F0910E
:10216000290395858C81981719F481E08B8301C030
:102170001B828C81882F90E0880F991FFC01E65408
:10218000FB4F808191819A83898389819A8100970D
:1021900031F478948AE590E09E838D8337C0E9819D
:1021A000FA818785282F30E0E981FA818785882F99
:1021B00090E0FC01EE5DFC4F8081982FE981FA816F
:1021C000808980958923F901EE5DFC4F8083F901B8
:1021D000EE5DFC4F8081882351F4E981FA81818989
:1021E000982F909580912103892380932103E98181
:1021F000FA8184858860E981FA81848778948B816B
:10220000813011F40E940A071E821D828D819E81F9
:1022100026960FB6F894DEBF0FBECDBFDF91CF91EB
:102220000895CF93DF93CDB7DEB722970FB6F8941A
:10223000DEBF0FBECDBF9A83898389819A810097C3
:1022400009F43CC0F894E0912803F09129038785B4
:10225000282F30E0E0912803F09129038785882F0B
:1022600090E0FC01EE5DFC4F8081982FE091280307
:10227000F0912903808980958923F901EE5DFC4F57
:102280008083F901EE5DFC4F8081882361F4E09149
:102290002803F09129038189982F9095809121033B
:1022A000892380932103E0912803F09129038981F8
:1022B0009A819387828778940E940A0722960FB6A4
:1022C000F894DEBF0FBECDBFDF91CF910895EF929E
:1022D000FF920F931F93CF93DF93CDB7DEB72D9768
:1022E0000FB6F894DEBF0FBECDBF8F8368874987D6
:1022F0003B872A878F81882359F48885882341F476
:102300008985882329F48A859B85009709F4A3C0D1
:1023100088858C3328F081E590E09D878C879FC06D
:1023200089858C3328F082E590E09D878C8797C063
:102330008A859B8523E0883E920728F083E590E01C
:102340009D878C878CC08F81882F90E0A0E0B0E0C3
:1023500020E13EE040E050E0BC01CD010E946F135F
:102360007B018C018885882F90E0A0E0B0E02CE311
:1023700030E040E050E0BC01CD010E946F13DC0171
:10238000CB01A8019701280F391F4A1F5B1F8985C0
:10239000882F90E0A0E0B0E0820F931FA41FB51F2C
:1023A0002DE330E040E050E0BC01CD010E946F130E
:1023B0007B018C018A859B85CC01A0E0B0E02DE3F8
:1023C00030E040E050E0BC01CD010E946F13DC0121
:1023D000CB0188519E4FAF4FBF4F28EE33E040E016
:1023E00050E0BC01CD010E948E13DA01C9018E0DAF
:1023F0009F1DA01FB11F8B839C83AD83BE838B81E8
:102400009C81AD81BE81CD01AA27BB279A83898398
:102410008B819C81AD81BE81A070B0708B839C83C9
:10242000AD83BE838B819C810E9411110DC080E021
:1024300090E80E94111180E090E80E9411118981BA
:102440009A8101979A83898389819A81009779F784
:102450001D861C8604C084E590E09D878C878C8552
:102460009D852D960FB6F894DEBF0FBECDBFDF91D0
:10247000CF911F910F91FF90EF9008950E9420023D
:1024800000918A02039500938A02E0911F03F09164
:102490002003C191CDBFD191DEBF0F910FBF0F912E
:1024A0000BBFFF91EF91DF91CF91BF91AF919F91C2
:1024B0008F917F916F915F914F913F912F911F91DC
:1024C0000F91FF90EF90DF90CF90BF90AF909F90D3
:1024D0008F907F906F905F904F903F902F901F90C4
:1024E0000F9008950F921F922F923F924F925F92FA
:1024F0006F927F928F929F92AF92BF92CF92DF9214
:10250000EF92FF920F931F932F933F934F935F93FD
:102510006F937F938F939F93AF93BF93CF93DF93EB
:10252000EF93FF930BB70F930FB70F93E09128032F
:10253000F0912903CDB7C193DEB7D1930E94200259
:1025400000918F0200939002E0911F03F09120030D
:10255000E0932803F0932903C191CDBFD191DEBF51
:102560000F910FBF0F910BBFFF91EF91DF91CF91B3
:10257000BF91AF919F918F917F916F915F914F919B
:102580003F912F911F910F91FF90EF90DF90CF908F
:10259000BF90AF909F908F907F906F905F904F9083
:1025A0003F902F901F900F9008950E94200200915D
:1025B0008F0200939002E0911F03F0912003E093BB
:1025C0002803F0932903C191CDBFD191DEBF0F91B4
:1025D0000FBF0F910BBFFF91EF91DF91CF91BF9193
:1025E000AF919F918F917F916F915F914F913F91AB
:1025F0002F911F910F91FF90EF90DF90CF90BF90A0
:10260000AF909F908F907F906F905F904F903F9092
:102610002F901F900F9008950F921F922F923F922C
:102620004F925F926F927F928F929F92AF92BF92E2
:10263000CF92DF92EF92FF920F931F932F933F93CE
:102640004F935F936F937F938F939F93AF93BF93BA
:10265000CF93DF93EF93FF930BB70F930FB7006800
:102660000F9300912703039500932703013041F452
:10267000CDB7DEB7E0912803F0912903C193D19340
:1026800000E002BFF0E01F2E78940E94B203000029
:102690000E948A020F910FBF0F910BBFFF91EF9124
:1026A000DF91CF91BF91AF919F918F917F916F916A
:1026B0005F914F913F912F911F910F91FF90EF905C
:1026C000DF90CF90BF90AF909F908F907F906F9052
:1026D0005F904F903F902F901F900F900895629FB2
:1026E000D001739FF001829FE00DF11D649FE00D0A
:1026F000F11D929FF00D839FF00D749FF00D659F6B
:10270000F00D9927729FB00DE11DF91F639FB00D69
:10271000E11DF91FBD01CF0111240895A1E21A2E78
:10272000AA1BBB1BFD010DC0AA1FBB1FEE1FFF1F75
:10273000A217B307E407F50720F0A21BB30BE40BC5
:10274000F50B661F771F881F991F1A9469F760950C
:102750007095809590959B01AC01BD01CF010895C6
:02276000FFCFA9
:102762000102040810204080000001000200010064
:102772000300010002000100040001000200010048
:102782000300010002000100050001000200010037
:102792000300010002000100040001000200010028
:1027A2000300010002000100060001000200010016
:1027B2000300010002000100040001000200010008
:1027C20003000100020001000500010002000100F7
:1027D20003000100020001000400010002000100E8
:1027E20003000100020001000700010002000100D5
:1027F20003000100020001000400010002000100C8
:1028020003000100020001000500010002000100B6
:1028120003000100020001000400010002000100A7
:102822000300010002000100060001000200010095
:102832000300010002000100040001000200010087
:102842000300010002000100050001000200010076
:102852000300010002000100040001000200010067
:08286200030001000200010067
:00000001FF
