:020000040000FA
:10000000600200105101000055010000570100007E
:10001000590100005B0100005D01000000000000CC
:100020000000000000000000000000005F01000070
:100030006101000000000000630100006501000094
:100040006701000067010000670100006701000010
:100050006701000067010000670100006701000000
:1000600067010000670100006701000067010000F0
:1000700067010000670100006701000067010000E0
:1000800067010000670100006701000067010000D0
:1000900067010000670100006701000067010000C0
:1000A00067010000670100006701000067010000B0
:1000B00067010000670100006701000067010000A0
:1000C00067010000670100006701000000F002F80E
:1000D00000F02EF80AA090E8000C82448344AAF1B4
:1000E0000107DA4501D100F023F8AFF2090EBAE8B2
:1000F0000F0013F0010F18BFFB1A43F0010318475C
:10010000B8010000C80100000023002400250026DB
:10011000103A28BF78C1FBD8520728BF30C148BF6A
:100120000B6070471FB500F0C0F81FBD10B510BDC3
:1001300000F081F81146FFF7F5FF00F037F800F006
:100140009FF803B4FFF7F2FF03BC00F0A7F800002C
:1001500008480047FEE7FEE7FEE7FEE7FEE7FEE7AA
:10016000FEE7FEE7FEE7FEE703480449024A044BC8
:1001700070470000CD000000600000106002001019
:10018000600000100120234908602348406D80F082
:10019000010021494865704702201E4908601E4839
:1001A000406D80F002001C494865704703201949E2
:1001B00008604FF4A000194908614FF00300184986
:1001C000C1F848014FF00100164908604FF00300E4
:1001D000114908644FF0000048651348D0F8B40096
:1001E00040F44060114908604FF0120000F005F83B
:1001F000132000F002F800BFFEE700F01F0201210B
:10020000914042094FF0E02303EB8202C2F8001153
:100210007047000040C10F4000C0092000C00240EC
:1002200000C00F404CC10F4000800240B48002402B
:10023000704770477047754600F028F8AE460500D5
:100240006946534620F00700854618B020B5FFF7F1
:100250008BFFBDE820404FF000064FF000074FF045
:1002600000084FF0000B21F00701AC46ACE8C009D4
:10027000ACE8C009ACE8C009ACE8C0098D467047DD
:100280000446AFF300802046FFF75BFF004870474D
:1002900000000010004870470400001001491820B9
:1002A000ABBEFEE726000200704710B5FFF7F2FF75
:1002B0004FF00001016010BD0003000000000010BD
:1002C00060020000080100000000000000000000C3
:1002D000000000000000000000000000000000001E
:1002E000000000000000000000000000000000000E
:1002F000000000000000000000000000FFFFFFFF02
:04000005000000CD2A
:00000001FF
